{
	"aitu_diana.sol": {
		"aitu_diana": {
			"abi": [
				{
					"inputs": [],
					"stateMutability": "nonpayable",
					"type": "constructor"
				},
				{
					"inputs": [
						{
							"internalType": "address",
							"name": "spender",
							"type": "address"
						},
						{
							"internalType": "uint256",
							"name": "allowance",
							"type": "uint256"
						},
						{
							"internalType": "uint256",
							"name": "needed",
							"type": "uint256"
						}
					],
					"name": "ERC20InsufficientAllowance",
					"type": "error"
				},
				{
					"inputs": [
						{
							"internalType": "address",
							"name": "sender",
							"type": "address"
						},
						{
							"internalType": "uint256",
							"name": "balance",
							"type": "uint256"
						},
						{
							"internalType": "uint256",
							"name": "needed",
							"type": "uint256"
						}
					],
					"name": "ERC20InsufficientBalance",
					"type": "error"
				},
				{
					"inputs": [
						{
							"internalType": "address",
							"name": "approver",
							"type": "address"
						}
					],
					"name": "ERC20InvalidApprover",
					"type": "error"
				},
				{
					"inputs": [
						{
							"internalType": "address",
							"name": "receiver",
							"type": "address"
						}
					],
					"name": "ERC20InvalidReceiver",
					"type": "error"
				},
				{
					"inputs": [
						{
							"internalType": "address",
							"name": "sender",
							"type": "address"
						}
					],
					"name": "ERC20InvalidSender",
					"type": "error"
				},
				{
					"inputs": [
						{
							"internalType": "address",
							"name": "spender",
							"type": "address"
						}
					],
					"name": "ERC20InvalidSpender",
					"type": "error"
				},
				{
					"anonymous": false,
					"inputs": [
						{
							"indexed": true,
							"internalType": "address",
							"name": "owner",
							"type": "address"
						},
						{
							"indexed": true,
							"internalType": "address",
							"name": "spender",
							"type": "address"
						},
						{
							"indexed": false,
							"internalType": "uint256",
							"name": "value",
							"type": "uint256"
						}
					],
					"name": "Approval",
					"type": "event"
				},
				{
					"anonymous": false,
					"inputs": [
						{
							"indexed": true,
							"internalType": "address",
							"name": "from",
							"type": "address"
						},
						{
							"indexed": true,
							"internalType": "address",
							"name": "to",
							"type": "address"
						},
						{
							"indexed": false,
							"internalType": "uint256",
							"name": "value",
							"type": "uint256"
						}
					],
					"name": "Transfer",
					"type": "event"
				},
				{
					"inputs": [],
					"name": "admin",
					"outputs": [
						{
							"internalType": "address",
							"name": "",
							"type": "address"
						}
					],
					"stateMutability": "view",
					"type": "function"
				},
				{
					"inputs": [
						{
							"internalType": "address",
							"name": "owner",
							"type": "address"
						},
						{
							"internalType": "address",
							"name": "spender",
							"type": "address"
						}
					],
					"name": "allowance",
					"outputs": [
						{
							"internalType": "uint256",
							"name": "",
							"type": "uint256"
						}
					],
					"stateMutability": "view",
					"type": "function"
				},
				{
					"inputs": [
						{
							"internalType": "address",
							"name": "spender",
							"type": "address"
						},
						{
							"internalType": "uint256",
							"name": "value",
							"type": "uint256"
						}
					],
					"name": "approve",
					"outputs": [
						{
							"internalType": "bool",
							"name": "",
							"type": "bool"
						}
					],
					"stateMutability": "nonpayable",
					"type": "function"
				},
				{
					"inputs": [
						{
							"internalType": "address",
							"name": "account",
							"type": "address"
						}
					],
					"name": "balanceOf",
					"outputs": [
						{
							"internalType": "uint256",
							"name": "",
							"type": "uint256"
						}
					],
					"stateMutability": "view",
					"type": "function"
				},
				{
					"inputs": [
						{
							"internalType": "uint256",
							"name": "amount",
							"type": "uint256"
						}
					],
					"name": "burn",
					"outputs": [],
					"stateMutability": "nonpayable",
					"type": "function"
				},
				{
					"inputs": [],
					"name": "decimals",
					"outputs": [
						{
							"internalType": "uint8",
							"name": "",
							"type": "uint8"
						}
					],
					"stateMutability": "view",
					"type": "function"
				},
				{
					"inputs": [],
					"name": "getLatestTransactionTimestamp",
					"outputs": [
						{
							"internalType": "uint256",
							"name": "year",
							"type": "uint256"
						},
						{
							"internalType": "uint256",
							"name": "month",
							"type": "uint256"
						},
						{
							"internalType": "uint256",
							"name": "day",
							"type": "uint256"
						},
						{
							"internalType": "uint256",
							"name": "hour",
							"type": "uint256"
						},
						{
							"internalType": "uint256",
							"name": "minute",
							"type": "uint256"
						},
						{
							"internalType": "uint256",
							"name": "second",
							"type": "uint256"
						}
					],
					"stateMutability": "view",
					"type": "function"
				},
				{
					"inputs": [
						{
							"internalType": "uint256",
							"name": "transactionId",
							"type": "uint256"
						}
					],
					"name": "getTransactionInfo",
					"outputs": [
						{
							"internalType": "address",
							"name": "sender",
							"type": "address"
						},
						{
							"internalType": "address",
							"name": "recipient",
							"type": "address"
						},
						{
							"internalType": "uint256",
							"name": "amount",
							"type": "uint256"
						},
						{
							"internalType": "uint256",
							"name": "timestamp",
							"type": "uint256"
						}
					],
					"stateMutability": "view",
					"type": "function"
				},
				{
					"inputs": [
						{
							"internalType": "uint256",
							"name": "transactionId",
							"type": "uint256"
						}
					],
					"name": "getTransactionReceiver",
					"outputs": [
						{
							"internalType": "address",
							"name": "",
							"type": "address"
						}
					],
					"stateMutability": "view",
					"type": "function"
				},
				{
					"inputs": [],
					"name": "getTransactionSender",
					"outputs": [
						{
							"internalType": "address",
							"name": "",
							"type": "address"
						}
					],
					"stateMutability": "view",
					"type": "function"
				},
				{
					"inputs": [
						{
							"internalType": "address",
							"name": "to",
							"type": "address"
						},
						{
							"internalType": "uint256",
							"name": "amount",
							"type": "uint256"
						}
					],
					"name": "mint",
					"outputs": [],
					"stateMutability": "nonpayable",
					"type": "function"
				},
				{
					"inputs": [],
					"name": "name",
					"outputs": [
						{
							"internalType": "string",
							"name": "",
							"type": "string"
						}
					],
					"stateMutability": "view",
					"type": "function"
				},
				{
					"inputs": [],
					"name": "symbol",
					"outputs": [
						{
							"internalType": "string",
							"name": "",
							"type": "string"
						}
					],
					"stateMutability": "view",
					"type": "function"
				},
				{
					"inputs": [],
					"name": "totalSupply",
					"outputs": [
						{
							"internalType": "uint256",
							"name": "",
							"type": "uint256"
						}
					],
					"stateMutability": "view",
					"type": "function"
				},
				{
					"inputs": [],
					"name": "totalTransactions",
					"outputs": [
						{
							"internalType": "uint256",
							"name": "",
							"type": "uint256"
						}
					],
					"stateMutability": "view",
					"type": "function"
				},
				{
					"inputs": [
						{
							"internalType": "uint256",
							"name": "",
							"type": "uint256"
						}
					],
					"name": "transactions",
					"outputs": [
						{
							"internalType": "address",
							"name": "sender",
							"type": "address"
						},
						{
							"internalType": "address",
							"name": "recipient",
							"type": "address"
						},
						{
							"internalType": "uint256",
							"name": "amount",
							"type": "uint256"
						},
						{
							"internalType": "uint256",
							"name": "timestamp",
							"type": "uint256"
						}
					],
					"stateMutability": "view",
					"type": "function"
				},
				{
					"inputs": [
						{
							"internalType": "address",
							"name": "to",
							"type": "address"
						},
						{
							"internalType": "uint256",
							"name": "value",
							"type": "uint256"
						}
					],
					"name": "transfer",
					"outputs": [
						{
							"internalType": "bool",
							"name": "",
							"type": "bool"
						}
					],
					"stateMutability": "nonpayable",
					"type": "function"
				},
				{
					"inputs": [
						{
							"internalType": "address",
							"name": "from",
							"type": "address"
						},
						{
							"internalType": "address",
							"name": "to",
							"type": "address"
						},
						{
							"internalType": "uint256",
							"name": "value",
							"type": "uint256"
						}
					],
					"name": "transferFrom",
					"outputs": [
						{
							"internalType": "bool",
							"name": "",
							"type": "bool"
						}
					],
					"stateMutability": "nonpayable",
					"type": "function"
				}
			],
			"devdoc": {
				"errors": {
					"ERC20InsufficientAllowance(address,uint256,uint256)": [
						{
							"details": "Indicates a failure with the `spender`’s `allowance`. Used in transfers.",
							"params": {
								"allowance": "Amount of tokens a `spender` is allowed to operate with.",
								"needed": "Minimum amount required to perform a transfer.",
								"spender": "Address that may be allowed to operate on tokens without being their owner."
							}
						}
					],
					"ERC20InsufficientBalance(address,uint256,uint256)": [
						{
							"details": "Indicates an error related to the current `balance` of a `sender`. Used in transfers.",
							"params": {
								"balance": "Current balance for the interacting account.",
								"needed": "Minimum amount required to perform a transfer.",
								"sender": "Address whose tokens are being transferred."
							}
						}
					],
					"ERC20InvalidApprover(address)": [
						{
							"details": "Indicates a failure with the `approver` of a token to be approved. Used in approvals.",
							"params": {
								"approver": "Address initiating an approval operation."
							}
						}
					],
					"ERC20InvalidReceiver(address)": [
						{
							"details": "Indicates a failure with the token `receiver`. Used in transfers.",
							"params": {
								"receiver": "Address to which tokens are being transferred."
							}
						}
					],
					"ERC20InvalidSender(address)": [
						{
							"details": "Indicates a failure with the token `sender`. Used in transfers.",
							"params": {
								"sender": "Address whose tokens are being transferred."
							}
						}
					],
					"ERC20InvalidSpender(address)": [
						{
							"details": "Indicates a failure with the `spender` to be approved. Used in approvals.",
							"params": {
								"spender": "Address that may be allowed to operate on tokens without being their owner."
							}
						}
					]
				},
				"events": {
					"Approval(address,address,uint256)": {
						"details": "Emitted when the allowance of a `spender` for an `owner` is set by a call to {approve}. `value` is the new allowance."
					},
					"Transfer(address,address,uint256)": {
						"details": "Emitted when `value` tokens are moved from one account (`from`) to another (`to`). Note that `value` may be zero."
					}
				},
				"kind": "dev",
				"methods": {
					"allowance(address,address)": {
						"details": "See {IERC20-allowance}."
					},
					"approve(address,uint256)": {
						"details": "See {IERC20-approve}. NOTE: If `value` is the maximum `uint256`, the allowance is not updated on `transferFrom`. This is semantically equivalent to an infinite approval. Requirements: - `spender` cannot be the zero address."
					},
					"balanceOf(address)": {
						"details": "See {IERC20-balanceOf}."
					},
					"decimals()": {
						"details": "Returns the number of decimals used to get its user representation. For example, if `decimals` equals `2`, a balance of `505` tokens should be displayed to a user as `5.05` (`505 / 10 ** 2`). Tokens usually opt for a value of 18, imitating the relationship between Ether and Wei. This is the default value returned by this function, unless it's overridden. NOTE: This information is only used for _display_ purposes: it in no way affects any of the arithmetic of the contract, including {IERC20-balanceOf} and {IERC20-transfer}."
					},
					"name()": {
						"details": "Returns the name of the token."
					},
					"symbol()": {
						"details": "Returns the symbol of the token, usually a shorter version of the name."
					},
					"totalSupply()": {
						"details": "See {IERC20-totalSupply}."
					},
					"transfer(address,uint256)": {
						"details": "See {IERC20-transfer}. Requirements: - `to` cannot be the zero address. - the caller must have a balance of at least `value`."
					},
					"transferFrom(address,address,uint256)": {
						"details": "See {IERC20-transferFrom}. Emits an {Approval} event indicating the updated allowance. This is not required by the ERC. See the note at the beginning of {ERC20}. NOTE: Does not update the allowance if the current allowance is the maximum `uint256`. Requirements: - `from` and `to` cannot be the zero address. - `from` must have a balance of at least `value`. - the caller must have allowance for ``from``'s tokens of at least `value`."
					}
				},
				"version": 1
			},
			"evm": {
				"assembly": "    /* \"aitu_diana.sol\":365:2681  contract aitu_diana is ERC20 {... */\n  mstore(0x40, 0x80)\n    /* \"aitu_diana.sol\":718:859  constructor() ERC20('MyToken', 'MTN') {... */\n  callvalue\n  dup1\n  iszero\n  tag_1\n  jumpi\n  0x00\n  dup1\n  revert\ntag_1:\n  pop\n    /* \"https://github.com/OpenZeppelin/openzeppelin-contracts/blob/e5c63635e3508a8d9d0afed091578cc4bb59a9c7/contracts/token/ERC20/ERC20.sol\":1897:2010  constructor(string memory name_, string memory symbol_) {... */\n  mload(0x40)\n  dup1\n  0x40\n  add\n  0x40\n  mstore\n  dup1\n  0x07\n  dup2\n  mstore\n  0x20\n  add\n  0x4d79546f6b656e00000000000000000000000000000000000000000000000000\n  dup2\n  mstore\n  pop\n  mload(0x40)\n  dup1\n  0x40\n  add\n  0x40\n  mstore\n  dup1\n  0x03\n  dup2\n  mstore\n  0x20\n  add\n  0x4d544e0000000000000000000000000000000000000000000000000000000000\n  dup2\n  mstore\n  pop\n    /* \"https://github.com/OpenZeppelin/openzeppelin-contracts/blob/e5c63635e3508a8d9d0afed091578cc4bb59a9c7/contracts/token/ERC20/ERC20.sol\":1971:1976  name_ */\n  dup2\n    /* \"https://github.com/OpenZeppelin/openzeppelin-contracts/blob/e5c63635e3508a8d9d0afed091578cc4bb59a9c7/contracts/token/ERC20/ERC20.sol\":1963:1968  _name */\n  0x03\n    /* \"https://github.com/OpenZeppelin/openzeppelin-contracts/blob/e5c63635e3508a8d9d0afed091578cc4bb59a9c7/contracts/token/ERC20/ERC20.sol\":1963:1976  _name = name_ */\n  swap1\n  dup2\n  tag_5\n  swap2\n  swap1\n  tag_6\n  jump\t// in\ntag_5:\n  pop\n    /* \"https://github.com/OpenZeppelin/openzeppelin-contracts/blob/e5c63635e3508a8d9d0afed091578cc4bb59a9c7/contracts/token/ERC20/ERC20.sol\":1996:2003  symbol_ */\n  dup1\n    /* \"https://github.com/OpenZeppelin/openzeppelin-contracts/blob/e5c63635e3508a8d9d0afed091578cc4bb59a9c7/contracts/token/ERC20/ERC20.sol\":1986:1993  _symbol */\n  0x04\n    /* \"https://github.com/OpenZeppelin/openzeppelin-contracts/blob/e5c63635e3508a8d9d0afed091578cc4bb59a9c7/contracts/token/ERC20/ERC20.sol\":1986:2003  _symbol = symbol_ */\n  swap1\n  dup2\n  tag_7\n  swap2\n  swap1\n  tag_6\n  jump\t// in\ntag_7:\n  pop\n    /* \"https://github.com/OpenZeppelin/openzeppelin-contracts/blob/e5c63635e3508a8d9d0afed091578cc4bb59a9c7/contracts/token/ERC20/ERC20.sol\":1897:2010  constructor(string memory name_, string memory symbol_) {... */\n  pop\n  pop\n    /* \"aitu_diana.sol\":767:790  _mint(msg.sender, 2000) */\n  tag_9\n    /* \"aitu_diana.sol\":773:783  msg.sender */\n  caller\n    /* \"aitu_diana.sol\":785:789  2000 */\n  0x07d0\n    /* \"aitu_diana.sol\":767:772  _mint */\n  shl(0x20, tag_10)\n    /* \"aitu_diana.sol\":767:790  _mint(msg.sender, 2000) */\n  0x20\n  shr\n  jump\t// in\ntag_9:\n    /* \"aitu_diana.sol\":809:819  msg.sender */\n  caller\n    /* \"aitu_diana.sol\":801:806  admin */\n  0x05\n  0x00\n    /* \"aitu_diana.sol\":801:819  admin = msg.sender */\n  0x0100\n  exp\n  dup2\n  sload\n  dup2\n  0xffffffffffffffffffffffffffffffffffffffff\n  mul\n  not\n  and\n  swap1\n  dup4\n  0xffffffffffffffffffffffffffffffffffffffff\n  and\n  mul\n  or\n  swap1\n  sstore\n  pop\n    /* \"aitu_diana.sol\":850:851  0 */\n  0x00\n    /* \"aitu_diana.sol\":830:847  totalTransactions */\n  0x06\n    /* \"aitu_diana.sol\":830:851  totalTransactions = 0 */\n  dup2\n  swap1\n  sstore\n  pop\n    /* \"aitu_diana.sol\":365:2681  contract aitu_diana is ERC20 {... */\n  jump(tag_11)\n    /* \"https://github.com/OpenZeppelin/openzeppelin-contracts/blob/e5c63635e3508a8d9d0afed091578cc4bb59a9c7/contracts/token/ERC20/ERC20.sol\":7722:7930  function _mint(address account, uint256 value) internal {... */\ntag_10:\n    /* \"https://github.com/OpenZeppelin/openzeppelin-contracts/blob/e5c63635e3508a8d9d0afed091578cc4bb59a9c7/contracts/token/ERC20/ERC20.sol\":7811:7812  0 */\n  0x00\n    /* \"https://github.com/OpenZeppelin/openzeppelin-contracts/blob/e5c63635e3508a8d9d0afed091578cc4bb59a9c7/contracts/token/ERC20/ERC20.sol\":7792:7813  account == address(0) */\n  0xffffffffffffffffffffffffffffffffffffffff\n  and\n    /* \"https://github.com/OpenZeppelin/openzeppelin-contracts/blob/e5c63635e3508a8d9d0afed091578cc4bb59a9c7/contracts/token/ERC20/ERC20.sol\":7792:7799  account */\n  dup3\n    /* \"https://github.com/OpenZeppelin/openzeppelin-contracts/blob/e5c63635e3508a8d9d0afed091578cc4bb59a9c7/contracts/token/ERC20/ERC20.sol\":7792:7813  account == address(0) */\n  0xffffffffffffffffffffffffffffffffffffffff\n  and\n  sub\n    /* \"https://github.com/OpenZeppelin/openzeppelin-contracts/blob/e5c63635e3508a8d9d0afed091578cc4bb59a9c7/contracts/token/ERC20/ERC20.sol\":7788:7879  if (account == address(0)) {... */\n  tag_13\n  jumpi\n    /* \"https://github.com/OpenZeppelin/openzeppelin-contracts/blob/e5c63635e3508a8d9d0afed091578cc4bb59a9c7/contracts/token/ERC20/ERC20.sol\":7865:7866  0 */\n  0x00\n    /* \"https://github.com/OpenZeppelin/openzeppelin-contracts/blob/e5c63635e3508a8d9d0afed091578cc4bb59a9c7/contracts/token/ERC20/ERC20.sol\":7836:7868  ERC20InvalidReceiver(address(0)) */\n  mload(0x40)\n  0xec442f0500000000000000000000000000000000000000000000000000000000\n  dup2\n  mstore\n  0x04\n  add\n  tag_14\n  swap2\n  swap1\n  tag_15\n  jump\t// in\ntag_14:\n  mload(0x40)\n  dup1\n  swap2\n  sub\n  swap1\n  revert\n    /* \"https://github.com/OpenZeppelin/openzeppelin-contracts/blob/e5c63635e3508a8d9d0afed091578cc4bb59a9c7/contracts/token/ERC20/ERC20.sol\":7788:7879  if (account == address(0)) {... */\ntag_13:\n    /* \"https://github.com/OpenZeppelin/openzeppelin-contracts/blob/e5c63635e3508a8d9d0afed091578cc4bb59a9c7/contracts/token/ERC20/ERC20.sol\":7888:7923  _update(address(0), account, value) */\n  tag_16\n    /* \"https://github.com/OpenZeppelin/openzeppelin-contracts/blob/e5c63635e3508a8d9d0afed091578cc4bb59a9c7/contracts/token/ERC20/ERC20.sol\":7904:7905  0 */\n  0x00\n    /* \"https://github.com/OpenZeppelin/openzeppelin-contracts/blob/e5c63635e3508a8d9d0afed091578cc4bb59a9c7/contracts/token/ERC20/ERC20.sol\":7908:7915  account */\n  dup4\n    /* \"https://github.com/OpenZeppelin/openzeppelin-contracts/blob/e5c63635e3508a8d9d0afed091578cc4bb59a9c7/contracts/token/ERC20/ERC20.sol\":7917:7922  value */\n  dup4\n    /* \"https://github.com/OpenZeppelin/openzeppelin-contracts/blob/e5c63635e3508a8d9d0afed091578cc4bb59a9c7/contracts/token/ERC20/ERC20.sol\":7888:7895  _update */\n  shl(0x20, tag_17)\n    /* \"https://github.com/OpenZeppelin/openzeppelin-contracts/blob/e5c63635e3508a8d9d0afed091578cc4bb59a9c7/contracts/token/ERC20/ERC20.sol\":7888:7923  _update(address(0), account, value) */\n  0x20\n  shr\n  jump\t// in\ntag_16:\n    /* \"https://github.com/OpenZeppelin/openzeppelin-contracts/blob/e5c63635e3508a8d9d0afed091578cc4bb59a9c7/contracts/token/ERC20/ERC20.sol\":7722:7930  function _mint(address account, uint256 value) internal {... */\n  pop\n  pop\n  jump\t// out\n    /* \"https://github.com/OpenZeppelin/openzeppelin-contracts/blob/e5c63635e3508a8d9d0afed091578cc4bb59a9c7/contracts/token/ERC20/ERC20.sol\":6272:7379  function _update(address from, address to, uint256 value) internal virtual {... */\ntag_17:\n    /* \"https://github.com/OpenZeppelin/openzeppelin-contracts/blob/e5c63635e3508a8d9d0afed091578cc4bb59a9c7/contracts/token/ERC20/ERC20.sol\":6377:6378  0 */\n  0x00\n    /* \"https://github.com/OpenZeppelin/openzeppelin-contracts/blob/e5c63635e3508a8d9d0afed091578cc4bb59a9c7/contracts/token/ERC20/ERC20.sol\":6361:6379  from == address(0) */\n  0xffffffffffffffffffffffffffffffffffffffff\n  and\n    /* \"https://github.com/OpenZeppelin/openzeppelin-contracts/blob/e5c63635e3508a8d9d0afed091578cc4bb59a9c7/contracts/token/ERC20/ERC20.sol\":6361:6365  from */\n  dup4\n    /* \"https://github.com/OpenZeppelin/openzeppelin-contracts/blob/e5c63635e3508a8d9d0afed091578cc4bb59a9c7/contracts/token/ERC20/ERC20.sol\":6361:6379  from == address(0) */\n  0xffffffffffffffffffffffffffffffffffffffff\n  and\n  sub\n    /* \"https://github.com/OpenZeppelin/openzeppelin-contracts/blob/e5c63635e3508a8d9d0afed091578cc4bb59a9c7/contracts/token/ERC20/ERC20.sol\":6357:6897  if (from == address(0)) {... */\n  tag_19\n  jumpi\n    /* \"https://github.com/OpenZeppelin/openzeppelin-contracts/blob/e5c63635e3508a8d9d0afed091578cc4bb59a9c7/contracts/token/ERC20/ERC20.sol\":6513:6518  value */\n  dup1\n    /* \"https://github.com/OpenZeppelin/openzeppelin-contracts/blob/e5c63635e3508a8d9d0afed091578cc4bb59a9c7/contracts/token/ERC20/ERC20.sol\":6497:6509  _totalSupply */\n  0x02\n  0x00\n    /* \"https://github.com/OpenZeppelin/openzeppelin-contracts/blob/e5c63635e3508a8d9d0afed091578cc4bb59a9c7/contracts/token/ERC20/ERC20.sol\":6497:6518  _totalSupply += value */\n  dup3\n  dup3\n  sload\n  tag_20\n  swap2\n  swap1\n  tag_21\n  jump\t// in\ntag_20:\n  swap3\n  pop\n  pop\n  dup2\n  swap1\n  sstore\n  pop\n    /* \"https://github.com/OpenZeppelin/openzeppelin-contracts/blob/e5c63635e3508a8d9d0afed091578cc4bb59a9c7/contracts/token/ERC20/ERC20.sol\":6357:6897  if (from == address(0)) {... */\n  jump(tag_22)\ntag_19:\n    /* \"https://github.com/OpenZeppelin/openzeppelin-contracts/blob/e5c63635e3508a8d9d0afed091578cc4bb59a9c7/contracts/token/ERC20/ERC20.sol\":6549:6568  uint256 fromBalance */\n  0x00\n    /* \"https://github.com/OpenZeppelin/openzeppelin-contracts/blob/e5c63635e3508a8d9d0afed091578cc4bb59a9c7/contracts/token/ERC20/ERC20.sol\":6571:6580  _balances */\n  dup1\n    /* \"https://github.com/OpenZeppelin/openzeppelin-contracts/blob/e5c63635e3508a8d9d0afed091578cc4bb59a9c7/contracts/token/ERC20/ERC20.sol\":6571:6586  _balances[from] */\n  0x00\n    /* \"https://github.com/OpenZeppelin/openzeppelin-contracts/blob/e5c63635e3508a8d9d0afed091578cc4bb59a9c7/contracts/token/ERC20/ERC20.sol\":6581:6585  from */\n  dup6\n    /* \"https://github.com/OpenZeppelin/openzeppelin-contracts/blob/e5c63635e3508a8d9d0afed091578cc4bb59a9c7/contracts/token/ERC20/ERC20.sol\":6571:6586  _balances[from] */\n  0xffffffffffffffffffffffffffffffffffffffff\n  and\n  0xffffffffffffffffffffffffffffffffffffffff\n  and\n  dup2\n  mstore\n  0x20\n  add\n  swap1\n  dup2\n  mstore\n  0x20\n  add\n  0x00\n  keccak256\n  sload\n    /* \"https://github.com/OpenZeppelin/openzeppelin-contracts/blob/e5c63635e3508a8d9d0afed091578cc4bb59a9c7/contracts/token/ERC20/ERC20.sol\":6549:6586  uint256 fromBalance = _balances[from] */\n  swap1\n  pop\n    /* \"https://github.com/OpenZeppelin/openzeppelin-contracts/blob/e5c63635e3508a8d9d0afed091578cc4bb59a9c7/contracts/token/ERC20/ERC20.sol\":6618:6623  value */\n  dup2\n    /* \"https://github.com/OpenZeppelin/openzeppelin-contracts/blob/e5c63635e3508a8d9d0afed091578cc4bb59a9c7/contracts/token/ERC20/ERC20.sol\":6604:6615  fromBalance */\n  dup2\n    /* \"https://github.com/OpenZeppelin/openzeppelin-contracts/blob/e5c63635e3508a8d9d0afed091578cc4bb59a9c7/contracts/token/ERC20/ERC20.sol\":6604:6623  fromBalance < value */\n  lt\n    /* \"https://github.com/OpenZeppelin/openzeppelin-contracts/blob/e5c63635e3508a8d9d0afed091578cc4bb59a9c7/contracts/token/ERC20/ERC20.sol\":6600:6715  if (fromBalance < value) {... */\n  iszero\n  tag_23\n  jumpi\n    /* \"https://github.com/OpenZeppelin/openzeppelin-contracts/blob/e5c63635e3508a8d9d0afed091578cc4bb59a9c7/contracts/token/ERC20/ERC20.sol\":6675:6679  from */\n  dup4\n    /* \"https://github.com/OpenZeppelin/openzeppelin-contracts/blob/e5c63635e3508a8d9d0afed091578cc4bb59a9c7/contracts/token/ERC20/ERC20.sol\":6681:6692  fromBalance */\n  dup2\n    /* \"https://github.com/OpenZeppelin/openzeppelin-contracts/blob/e5c63635e3508a8d9d0afed091578cc4bb59a9c7/contracts/token/ERC20/ERC20.sol\":6694:6699  value */\n  dup4\n    /* \"https://github.com/OpenZeppelin/openzeppelin-contracts/blob/e5c63635e3508a8d9d0afed091578cc4bb59a9c7/contracts/token/ERC20/ERC20.sol\":6650:6700  ERC20InsufficientBalance(from, fromBalance, value) */\n  mload(0x40)\n  0xe450d38c00000000000000000000000000000000000000000000000000000000\n  dup2\n  mstore\n  0x04\n  add\n  tag_24\n  swap4\n  swap3\n  swap2\n  swap1\n  tag_25\n  jump\t// in\ntag_24:\n  mload(0x40)\n  dup1\n  swap2\n  sub\n  swap1\n  revert\n    /* \"https://github.com/OpenZeppelin/openzeppelin-contracts/blob/e5c63635e3508a8d9d0afed091578cc4bb59a9c7/contracts/token/ERC20/ERC20.sol\":6600:6715  if (fromBalance < value) {... */\ntag_23:\n    /* \"https://github.com/OpenZeppelin/openzeppelin-contracts/blob/e5c63635e3508a8d9d0afed091578cc4bb59a9c7/contracts/token/ERC20/ERC20.sol\":6867:6872  value */\n  dup2\n    /* \"https://github.com/OpenZeppelin/openzeppelin-contracts/blob/e5c63635e3508a8d9d0afed091578cc4bb59a9c7/contracts/token/ERC20/ERC20.sol\":6853:6864  fromBalance */\n  dup2\n    /* \"https://github.com/OpenZeppelin/openzeppelin-contracts/blob/e5c63635e3508a8d9d0afed091578cc4bb59a9c7/contracts/token/ERC20/ERC20.sol\":6853:6872  fromBalance - value */\n  sub\n    /* \"https://github.com/OpenZeppelin/openzeppelin-contracts/blob/e5c63635e3508a8d9d0afed091578cc4bb59a9c7/contracts/token/ERC20/ERC20.sol\":6835:6844  _balances */\n  0x00\n    /* \"https://github.com/OpenZeppelin/openzeppelin-contracts/blob/e5c63635e3508a8d9d0afed091578cc4bb59a9c7/contracts/token/ERC20/ERC20.sol\":6835:6850  _balances[from] */\n  dup1\n    /* \"https://github.com/OpenZeppelin/openzeppelin-contracts/blob/e5c63635e3508a8d9d0afed091578cc4bb59a9c7/contracts/token/ERC20/ERC20.sol\":6845:6849  from */\n  dup7\n    /* \"https://github.com/OpenZeppelin/openzeppelin-contracts/blob/e5c63635e3508a8d9d0afed091578cc4bb59a9c7/contracts/token/ERC20/ERC20.sol\":6835:6850  _balances[from] */\n  0xffffffffffffffffffffffffffffffffffffffff\n  and\n  0xffffffffffffffffffffffffffffffffffffffff\n  and\n  dup2\n  mstore\n  0x20\n  add\n  swap1\n  dup2\n  mstore\n  0x20\n  add\n  0x00\n  keccak256\n    /* \"https://github.com/OpenZeppelin/openzeppelin-contracts/blob/e5c63635e3508a8d9d0afed091578cc4bb59a9c7/contracts/token/ERC20/ERC20.sol\":6835:6872  _balances[from] = fromBalance - value */\n  dup2\n  swap1\n  sstore\n  pop\n    /* \"https://github.com/OpenZeppelin/openzeppelin-contracts/blob/e5c63635e3508a8d9d0afed091578cc4bb59a9c7/contracts/token/ERC20/ERC20.sol\":6535:6897  {... */\n  pop\n    /* \"https://github.com/OpenZeppelin/openzeppelin-contracts/blob/e5c63635e3508a8d9d0afed091578cc4bb59a9c7/contracts/token/ERC20/ERC20.sol\":6357:6897  if (from == address(0)) {... */\ntag_22:\n    /* \"https://github.com/OpenZeppelin/openzeppelin-contracts/blob/e5c63635e3508a8d9d0afed091578cc4bb59a9c7/contracts/token/ERC20/ERC20.sol\":6925:6926  0 */\n  0x00\n    /* \"https://github.com/OpenZeppelin/openzeppelin-contracts/blob/e5c63635e3508a8d9d0afed091578cc4bb59a9c7/contracts/token/ERC20/ERC20.sol\":6911:6927  to == address(0) */\n  0xffffffffffffffffffffffffffffffffffffffff\n  and\n    /* \"https://github.com/OpenZeppelin/openzeppelin-contracts/blob/e5c63635e3508a8d9d0afed091578cc4bb59a9c7/contracts/token/ERC20/ERC20.sol\":6911:6913  to */\n  dup3\n    /* \"https://github.com/OpenZeppelin/openzeppelin-contracts/blob/e5c63635e3508a8d9d0afed091578cc4bb59a9c7/contracts/token/ERC20/ERC20.sol\":6911:6927  to == address(0) */\n  0xffffffffffffffffffffffffffffffffffffffff\n  and\n  sub\n    /* \"https://github.com/OpenZeppelin/openzeppelin-contracts/blob/e5c63635e3508a8d9d0afed091578cc4bb59a9c7/contracts/token/ERC20/ERC20.sol\":6907:7332  if (to == address(0)) {... */\n  tag_26\n  jumpi\n    /* \"https://github.com/OpenZeppelin/openzeppelin-contracts/blob/e5c63635e3508a8d9d0afed091578cc4bb59a9c7/contracts/token/ERC20/ERC20.sol\":7090:7095  value */\n  dup1\n    /* \"https://github.com/OpenZeppelin/openzeppelin-contracts/blob/e5c63635e3508a8d9d0afed091578cc4bb59a9c7/contracts/token/ERC20/ERC20.sol\":7074:7086  _totalSupply */\n  0x02\n  0x00\n    /* \"https://github.com/OpenZeppelin/openzeppelin-contracts/blob/e5c63635e3508a8d9d0afed091578cc4bb59a9c7/contracts/token/ERC20/ERC20.sol\":7074:7095  _totalSupply -= value */\n  dup3\n  dup3\n  sload\n  sub\n  swap3\n  pop\n  pop\n  dup2\n  swap1\n  sstore\n  pop\n    /* \"https://github.com/OpenZeppelin/openzeppelin-contracts/blob/e5c63635e3508a8d9d0afed091578cc4bb59a9c7/contracts/token/ERC20/ERC20.sol\":6907:7332  if (to == address(0)) {... */\n  jump(tag_27)\ntag_26:\n    /* \"https://github.com/OpenZeppelin/openzeppelin-contracts/blob/e5c63635e3508a8d9d0afed091578cc4bb59a9c7/contracts/token/ERC20/ERC20.sol\":7302:7307  value */\n  dup1\n    /* \"https://github.com/OpenZeppelin/openzeppelin-contracts/blob/e5c63635e3508a8d9d0afed091578cc4bb59a9c7/contracts/token/ERC20/ERC20.sol\":7285:7294  _balances */\n  0x00\n    /* \"https://github.com/OpenZeppelin/openzeppelin-contracts/blob/e5c63635e3508a8d9d0afed091578cc4bb59a9c7/contracts/token/ERC20/ERC20.sol\":7285:7298  _balances[to] */\n  dup1\n    /* \"https://github.com/OpenZeppelin/openzeppelin-contracts/blob/e5c63635e3508a8d9d0afed091578cc4bb59a9c7/contracts/token/ERC20/ERC20.sol\":7295:7297  to */\n  dup5\n    /* \"https://github.com/OpenZeppelin/openzeppelin-contracts/blob/e5c63635e3508a8d9d0afed091578cc4bb59a9c7/contracts/token/ERC20/ERC20.sol\":7285:7298  _balances[to] */\n  0xffffffffffffffffffffffffffffffffffffffff\n  and\n  0xffffffffffffffffffffffffffffffffffffffff\n  and\n  dup2\n  mstore\n  0x20\n  add\n  swap1\n  dup2\n  mstore\n  0x20\n  add\n  0x00\n  keccak256\n  0x00\n    /* \"https://github.com/OpenZeppelin/openzeppelin-contracts/blob/e5c63635e3508a8d9d0afed091578cc4bb59a9c7/contracts/token/ERC20/ERC20.sol\":7285:7307  _balances[to] += value */\n  dup3\n  dup3\n  sload\n  add\n  swap3\n  pop\n  pop\n  dup2\n  swap1\n  sstore\n  pop\n    /* \"https://github.com/OpenZeppelin/openzeppelin-contracts/blob/e5c63635e3508a8d9d0afed091578cc4bb59a9c7/contracts/token/ERC20/ERC20.sol\":6907:7332  if (to == address(0)) {... */\ntag_27:\n    /* \"https://github.com/OpenZeppelin/openzeppelin-contracts/blob/e5c63635e3508a8d9d0afed091578cc4bb59a9c7/contracts/token/ERC20/ERC20.sol\":7362:7364  to */\n  dup2\n    /* \"https://github.com/OpenZeppelin/openzeppelin-contracts/blob/e5c63635e3508a8d9d0afed091578cc4bb59a9c7/contracts/token/ERC20/ERC20.sol\":7347:7372  Transfer(from, to, value) */\n  0xffffffffffffffffffffffffffffffffffffffff\n  and\n    /* \"https://github.com/OpenZeppelin/openzeppelin-contracts/blob/e5c63635e3508a8d9d0afed091578cc4bb59a9c7/contracts/token/ERC20/ERC20.sol\":7356:7360  from */\n  dup4\n    /* \"https://github.com/OpenZeppelin/openzeppelin-contracts/blob/e5c63635e3508a8d9d0afed091578cc4bb59a9c7/contracts/token/ERC20/ERC20.sol\":7347:7372  Transfer(from, to, value) */\n  0xffffffffffffffffffffffffffffffffffffffff\n  and\n  0xddf252ad1be2c89b69c2b068fc378daa952ba7f163c4a11628f55a4df523b3ef\n    /* \"https://github.com/OpenZeppelin/openzeppelin-contracts/blob/e5c63635e3508a8d9d0afed091578cc4bb59a9c7/contracts/token/ERC20/ERC20.sol\":7366:7371  value */\n  dup4\n    /* \"https://github.com/OpenZeppelin/openzeppelin-contracts/blob/e5c63635e3508a8d9d0afed091578cc4bb59a9c7/contracts/token/ERC20/ERC20.sol\":7347:7372  Transfer(from, to, value) */\n  mload(0x40)\n  tag_28\n  swap2\n  swap1\n  tag_29\n  jump\t// in\ntag_28:\n  mload(0x40)\n  dup1\n  swap2\n  sub\n  swap1\n  log3\n    /* \"https://github.com/OpenZeppelin/openzeppelin-contracts/blob/e5c63635e3508a8d9d0afed091578cc4bb59a9c7/contracts/token/ERC20/ERC20.sol\":6272:7379  function _update(address from, address to, uint256 value) internal virtual {... */\n  pop\n  pop\n  pop\n  jump\t// out\n    /* \"#utility.yul\":7:106   */\ntag_30:\n    /* \"#utility.yul\":59:65   */\n  0x00\n    /* \"#utility.yul\":93:98   */\n  dup2\n    /* \"#utility.yul\":87:99   */\n  mload\n    /* \"#utility.yul\":77:99   */\n  swap1\n  pop\n    /* \"#utility.yul\":7:106   */\n  swap2\n  swap1\n  pop\n  jump\t// out\n    /* \"#utility.yul\":112:292   */\ntag_31:\n    /* \"#utility.yul\":160:237   */\n  0x4e487b7100000000000000000000000000000000000000000000000000000000\n    /* \"#utility.yul\":157:158   */\n  0x00\n    /* \"#utility.yul\":150:238   */\n  mstore\n    /* \"#utility.yul\":257:261   */\n  0x41\n    /* \"#utility.yul\":254:255   */\n  0x04\n    /* \"#utility.yul\":247:262   */\n  mstore\n    /* \"#utility.yul\":281:285   */\n  0x24\n    /* \"#utility.yul\":278:279   */\n  0x00\n    /* \"#utility.yul\":271:286   */\n  revert\n    /* \"#utility.yul\":298:478   */\ntag_32:\n    /* \"#utility.yul\":346:423   */\n  0x4e487b7100000000000000000000000000000000000000000000000000000000\n    /* \"#utility.yul\":343:344   */\n  0x00\n    /* \"#utility.yul\":336:424   */\n  mstore\n    /* \"#utility.yul\":443:447   */\n  0x22\n    /* \"#utility.yul\":440:441   */\n  0x04\n    /* \"#utility.yul\":433:448   */\n  mstore\n    /* \"#utility.yul\":467:471   */\n  0x24\n    /* \"#utility.yul\":464:465   */\n  0x00\n    /* \"#utility.yul\":457:472   */\n  revert\n    /* \"#utility.yul\":484:804   */\ntag_33:\n    /* \"#utility.yul\":528:534   */\n  0x00\n    /* \"#utility.yul\":565:566   */\n  0x02\n    /* \"#utility.yul\":559:563   */\n  dup3\n    /* \"#utility.yul\":555:567   */\n  div\n    /* \"#utility.yul\":545:567   */\n  swap1\n  pop\n    /* \"#utility.yul\":612:613   */\n  0x01\n    /* \"#utility.yul\":606:610   */\n  dup3\n    /* \"#utility.yul\":602:614   */\n  and\n    /* \"#utility.yul\":633:651   */\n  dup1\n    /* \"#utility.yul\":623:704   */\n  tag_60\n  jumpi\n    /* \"#utility.yul\":689:693   */\n  0x7f\n    /* \"#utility.yul\":681:687   */\n  dup3\n    /* \"#utility.yul\":677:694   */\n  and\n    /* \"#utility.yul\":667:694   */\n  swap2\n  pop\n    /* \"#utility.yul\":623:704   */\ntag_60:\n    /* \"#utility.yul\":751:753   */\n  0x20\n    /* \"#utility.yul\":743:749   */\n  dup3\n    /* \"#utility.yul\":740:754   */\n  lt\n    /* \"#utility.yul\":720:738   */\n  dup2\n    /* \"#utility.yul\":717:755   */\n  sub\n    /* \"#utility.yul\":714:798   */\n  tag_61\n  jumpi\n    /* \"#utility.yul\":770:788   */\n  tag_62\n  tag_32\n  jump\t// in\ntag_62:\n    /* \"#utility.yul\":714:798   */\ntag_61:\n    /* \"#utility.yul\":535:804   */\n  pop\n    /* \"#utility.yul\":484:804   */\n  swap2\n  swap1\n  pop\n  jump\t// out\n    /* \"#utility.yul\":810:951   */\ntag_34:\n    /* \"#utility.yul\":859:863   */\n  0x00\n    /* \"#utility.yul\":882:885   */\n  dup2\n    /* \"#utility.yul\":874:885   */\n  swap1\n  pop\n    /* \"#utility.yul\":905:908   */\n  dup2\n    /* \"#utility.yul\":902:903   */\n  0x00\n    /* \"#utility.yul\":895:909   */\n  mstore\n    /* \"#utility.yul\":939:943   */\n  0x20\n    /* \"#utility.yul\":936:937   */\n  0x00\n    /* \"#utility.yul\":926:944   */\n  keccak256\n    /* \"#utility.yul\":918:944   */\n  swap1\n  pop\n    /* \"#utility.yul\":810:951   */\n  swap2\n  swap1\n  pop\n  jump\t// out\n    /* \"#utility.yul\":957:1050   */\ntag_35:\n    /* \"#utility.yul\":994:1000   */\n  0x00\n    /* \"#utility.yul\":1041:1043   */\n  0x20\n    /* \"#utility.yul\":1036:1038   */\n  0x1f\n    /* \"#utility.yul\":1029:1034   */\n  dup4\n    /* \"#utility.yul\":1025:1039   */\n  add\n    /* \"#utility.yul\":1021:1044   */\n  div\n    /* \"#utility.yul\":1011:1044   */\n  swap1\n  pop\n    /* \"#utility.yul\":957:1050   */\n  swap2\n  swap1\n  pop\n  jump\t// out\n    /* \"#utility.yul\":1056:1163   */\ntag_36:\n    /* \"#utility.yul\":1100:1108   */\n  0x00\n    /* \"#utility.yul\":1150:1155   */\n  dup3\n    /* \"#utility.yul\":1144:1148   */\n  dup3\n    /* \"#utility.yul\":1140:1156   */\n  shl\n    /* \"#utility.yul\":1119:1156   */\n  swap1\n  pop\n    /* \"#utility.yul\":1056:1163   */\n  swap3\n  swap2\n  pop\n  pop\n  jump\t// out\n    /* \"#utility.yul\":1169:1562   */\ntag_37:\n    /* \"#utility.yul\":1238:1244   */\n  0x00\n    /* \"#utility.yul\":1288:1289   */\n  0x08\n    /* \"#utility.yul\":1276:1286   */\n  dup4\n    /* \"#utility.yul\":1272:1290   */\n  mul\n    /* \"#utility.yul\":1311:1408   */\n  tag_67\n    /* \"#utility.yul\":1341:1407   */\n  0xffffffffffffffffffffffffffffffffffffffffffffffffffffffffffffffff\n    /* \"#utility.yul\":1330:1339   */\n  dup3\n    /* \"#utility.yul\":1311:1408   */\n  tag_36\n  jump\t// in\ntag_67:\n    /* \"#utility.yul\":1429:1468   */\n  tag_68\n    /* \"#utility.yul\":1459:1467   */\n  dup7\n    /* \"#utility.yul\":1448:1457   */\n  dup4\n    /* \"#utility.yul\":1429:1468   */\n  tag_36\n  jump\t// in\ntag_68:\n    /* \"#utility.yul\":1417:1468   */\n  swap6\n  pop\n    /* \"#utility.yul\":1501:1505   */\n  dup1\n    /* \"#utility.yul\":1497:1506   */\n  not\n    /* \"#utility.yul\":1490:1495   */\n  dup5\n    /* \"#utility.yul\":1486:1507   */\n  and\n    /* \"#utility.yul\":1477:1507   */\n  swap4\n  pop\n    /* \"#utility.yul\":1550:1554   */\n  dup1\n    /* \"#utility.yul\":1540:1548   */\n  dup7\n    /* \"#utility.yul\":1536:1555   */\n  and\n    /* \"#utility.yul\":1529:1534   */\n  dup5\n    /* \"#utility.yul\":1526:1556   */\n  or\n    /* \"#utility.yul\":1516:1556   */\n  swap3\n  pop\n    /* \"#utility.yul\":1245:1562   */\n  pop\n  pop\n    /* \"#utility.yul\":1169:1562   */\n  swap4\n  swap3\n  pop\n  pop\n  pop\n  jump\t// out\n    /* \"#utility.yul\":1568:1645   */\ntag_38:\n    /* \"#utility.yul\":1605:1612   */\n  0x00\n    /* \"#utility.yul\":1634:1639   */\n  dup2\n    /* \"#utility.yul\":1623:1639   */\n  swap1\n  pop\n    /* \"#utility.yul\":1568:1645   */\n  swap2\n  swap1\n  pop\n  jump\t// out\n    /* \"#utility.yul\":1651:1711   */\ntag_39:\n    /* \"#utility.yul\":1679:1682   */\n  0x00\n    /* \"#utility.yul\":1700:1705   */\n  dup2\n    /* \"#utility.yul\":1693:1705   */\n  swap1\n  pop\n    /* \"#utility.yul\":1651:1711   */\n  swap2\n  swap1\n  pop\n  jump\t// out\n    /* \"#utility.yul\":1717:1859   */\ntag_40:\n    /* \"#utility.yul\":1767:1776   */\n  0x00\n    /* \"#utility.yul\":1800:1853   */\n  tag_72\n    /* \"#utility.yul\":1818:1852   */\n  tag_73\n    /* \"#utility.yul\":1827:1851   */\n  tag_74\n    /* \"#utility.yul\":1845:1850   */\n  dup5\n    /* \"#utility.yul\":1827:1851   */\n  tag_38\n  jump\t// in\ntag_74:\n    /* \"#utility.yul\":1818:1852   */\n  tag_39\n  jump\t// in\ntag_73:\n    /* \"#utility.yul\":1800:1853   */\n  tag_38\n  jump\t// in\ntag_72:\n    /* \"#utility.yul\":1787:1853   */\n  swap1\n  pop\n    /* \"#utility.yul\":1717:1859   */\n  swap2\n  swap1\n  pop\n  jump\t// out\n    /* \"#utility.yul\":1865:1940   */\ntag_41:\n    /* \"#utility.yul\":1908:1911   */\n  0x00\n    /* \"#utility.yul\":1929:1934   */\n  dup2\n    /* \"#utility.yul\":1922:1934   */\n  swap1\n  pop\n    /* \"#utility.yul\":1865:1940   */\n  swap2\n  swap1\n  pop\n  jump\t// out\n    /* \"#utility.yul\":1946:2215   */\ntag_42:\n    /* \"#utility.yul\":2056:2095   */\n  tag_77\n    /* \"#utility.yul\":2087:2094   */\n  dup4\n    /* \"#utility.yul\":2056:2095   */\n  tag_40\n  jump\t// in\ntag_77:\n    /* \"#utility.yul\":2117:2208   */\n  tag_78\n    /* \"#utility.yul\":2166:2207   */\n  tag_79\n    /* \"#utility.yul\":2190:2206   */\n  dup3\n    /* \"#utility.yul\":2166:2207   */\n  tag_41\n  jump\t// in\ntag_79:\n    /* \"#utility.yul\":2158:2164   */\n  dup5\n    /* \"#utility.yul\":2151:2155   */\n  dup5\n    /* \"#utility.yul\":2145:2156   */\n  sload\n    /* \"#utility.yul\":2117:2208   */\n  tag_37\n  jump\t// in\ntag_78:\n    /* \"#utility.yul\":2111:2115   */\n  dup3\n    /* \"#utility.yul\":2104:2209   */\n  sstore\n    /* \"#utility.yul\":2022:2215   */\n  pop\n    /* \"#utility.yul\":1946:2215   */\n  pop\n  pop\n  pop\n  jump\t// out\n    /* \"#utility.yul\":2221:2294   */\ntag_43:\n    /* \"#utility.yul\":2266:2269   */\n  0x00\n    /* \"#utility.yul\":2221:2294   */\n  swap1\n  jump\t// out\n    /* \"#utility.yul\":2300:2489   */\ntag_44:\n    /* \"#utility.yul\":2377:2409   */\n  tag_82\n  tag_43\n  jump\t// in\ntag_82:\n    /* \"#utility.yul\":2418:2483   */\n  tag_83\n    /* \"#utility.yul\":2476:2482   */\n  dup2\n    /* \"#utility.yul\":2468:2474   */\n  dup5\n    /* \"#utility.yul\":2462:2466   */\n  dup5\n    /* \"#utility.yul\":2418:2483   */\n  tag_42\n  jump\t// in\ntag_83:\n    /* \"#utility.yul\":2353:2489   */\n  pop\n    /* \"#utility.yul\":2300:2489   */\n  pop\n  pop\n  jump\t// out\n    /* \"#utility.yul\":2495:2681   */\ntag_45:\n    /* \"#utility.yul\":2555:2675   */\ntag_85:\n    /* \"#utility.yul\":2572:2575   */\n  dup2\n    /* \"#utility.yul\":2565:2570   */\n  dup2\n    /* \"#utility.yul\":2562:2576   */\n  lt\n    /* \"#utility.yul\":2555:2675   */\n  iszero\n  tag_87\n  jumpi\n    /* \"#utility.yul\":2626:2665   */\n  tag_88\n    /* \"#utility.yul\":2663:2664   */\n  0x00\n    /* \"#utility.yul\":2656:2661   */\n  dup3\n    /* \"#utility.yul\":2626:2665   */\n  tag_44\n  jump\t// in\ntag_88:\n    /* \"#utility.yul\":2599:2600   */\n  0x01\n    /* \"#utility.yul\":2592:2597   */\n  dup2\n    /* \"#utility.yul\":2588:2601   */\n  add\n    /* \"#utility.yul\":2579:2601   */\n  swap1\n  pop\n    /* \"#utility.yul\":2555:2675   */\n  jump(tag_85)\ntag_87:\n    /* \"#utility.yul\":2495:2681   */\n  pop\n  pop\n  jump\t// out\n    /* \"#utility.yul\":2687:3230   */\ntag_46:\n    /* \"#utility.yul\":2788:2790   */\n  0x1f\n    /* \"#utility.yul\":2783:2786   */\n  dup3\n    /* \"#utility.yul\":2780:2791   */\n  gt\n    /* \"#utility.yul\":2777:3223   */\n  iszero\n  tag_90\n  jumpi\n    /* \"#utility.yul\":2822:2860   */\n  tag_91\n    /* \"#utility.yul\":2854:2859   */\n  dup2\n    /* \"#utility.yul\":2822:2860   */\n  tag_34\n  jump\t// in\ntag_91:\n    /* \"#utility.yul\":2906:2935   */\n  tag_92\n    /* \"#utility.yul\":2924:2934   */\n  dup5\n    /* \"#utility.yul\":2906:2935   */\n  tag_35\n  jump\t// in\ntag_92:\n    /* \"#utility.yul\":2896:2904   */\n  dup2\n    /* \"#utility.yul\":2892:2936   */\n  add\n    /* \"#utility.yul\":3089:3091   */\n  0x20\n    /* \"#utility.yul\":3077:3087   */\n  dup6\n    /* \"#utility.yul\":3074:3092   */\n  lt\n    /* \"#utility.yul\":3071:3120   */\n  iszero\n  tag_93\n  jumpi\n    /* \"#utility.yul\":3110:3118   */\n  dup2\n    /* \"#utility.yul\":3095:3118   */\n  swap1\n  pop\n    /* \"#utility.yul\":3071:3120   */\ntag_93:\n    /* \"#utility.yul\":3133:3213   */\n  tag_94\n    /* \"#utility.yul\":3189:3211   */\n  tag_95\n    /* \"#utility.yul\":3207:3210   */\n  dup6\n    /* \"#utility.yul\":3189:3211   */\n  tag_35\n  jump\t// in\ntag_95:\n    /* \"#utility.yul\":3179:3187   */\n  dup4\n    /* \"#utility.yul\":3175:3212   */\n  add\n    /* \"#utility.yul\":3162:3173   */\n  dup3\n    /* \"#utility.yul\":3133:3213   */\n  tag_45\n  jump\t// in\ntag_94:\n    /* \"#utility.yul\":2792:3223   */\n  pop\n  pop\n    /* \"#utility.yul\":2777:3223   */\ntag_90:\n    /* \"#utility.yul\":2687:3230   */\n  pop\n  pop\n  pop\n  jump\t// out\n    /* \"#utility.yul\":3236:3353   */\ntag_47:\n    /* \"#utility.yul\":3290:3298   */\n  0x00\n    /* \"#utility.yul\":3340:3345   */\n  dup3\n    /* \"#utility.yul\":3334:3338   */\n  dup3\n    /* \"#utility.yul\":3330:3346   */\n  shr\n    /* \"#utility.yul\":3309:3346   */\n  swap1\n  pop\n    /* \"#utility.yul\":3236:3353   */\n  swap3\n  swap2\n  pop\n  pop\n  jump\t// out\n    /* \"#utility.yul\":3359:3528   */\ntag_48:\n    /* \"#utility.yul\":3403:3409   */\n  0x00\n    /* \"#utility.yul\":3436:3487   */\n  tag_98\n    /* \"#utility.yul\":3484:3485   */\n  0x00\n    /* \"#utility.yul\":3480:3486   */\n  not\n    /* \"#utility.yul\":3472:3477   */\n  dup5\n    /* \"#utility.yul\":3469:3470   */\n  0x08\n    /* \"#utility.yul\":3465:3478   */\n  mul\n    /* \"#utility.yul\":3436:3487   */\n  tag_47\n  jump\t// in\ntag_98:\n    /* \"#utility.yul\":3432:3488   */\n  not\n    /* \"#utility.yul\":3517:3521   */\n  dup1\n    /* \"#utility.yul\":3511:3515   */\n  dup4\n    /* \"#utility.yul\":3507:3522   */\n  and\n    /* \"#utility.yul\":3497:3522   */\n  swap2\n  pop\n    /* \"#utility.yul\":3410:3528   */\n  pop\n    /* \"#utility.yul\":3359:3528   */\n  swap3\n  swap2\n  pop\n  pop\n  jump\t// out\n    /* \"#utility.yul\":3533:3828   */\ntag_49:\n    /* \"#utility.yul\":3609:3613   */\n  0x00\n    /* \"#utility.yul\":3755:3784   */\n  tag_100\n    /* \"#utility.yul\":3780:3783   */\n  dup4\n    /* \"#utility.yul\":3774:3778   */\n  dup4\n    /* \"#utility.yul\":3755:3784   */\n  tag_48\n  jump\t// in\ntag_100:\n    /* \"#utility.yul\":3747:3784   */\n  swap2\n  pop\n    /* \"#utility.yul\":3817:3820   */\n  dup3\n    /* \"#utility.yul\":3814:3815   */\n  0x02\n    /* \"#utility.yul\":3810:3821   */\n  mul\n    /* \"#utility.yul\":3804:3808   */\n  dup3\n    /* \"#utility.yul\":3801:3822   */\n  or\n    /* \"#utility.yul\":3793:3822   */\n  swap1\n  pop\n    /* \"#utility.yul\":3533:3828   */\n  swap3\n  swap2\n  pop\n  pop\n  jump\t// out\n    /* \"#utility.yul\":3833:5228   */\ntag_6:\n    /* \"#utility.yul\":3950:3987   */\n  tag_102\n    /* \"#utility.yul\":3983:3986   */\n  dup3\n    /* \"#utility.yul\":3950:3987   */\n  tag_30\n  jump\t// in\ntag_102:\n    /* \"#utility.yul\":4052:4070   */\n  0xffffffffffffffff\n    /* \"#utility.yul\":4044:4050   */\n  dup2\n    /* \"#utility.yul\":4041:4071   */\n  gt\n    /* \"#utility.yul\":4038:4094   */\n  iszero\n  tag_103\n  jumpi\n    /* \"#utility.yul\":4074:4092   */\n  tag_104\n  tag_31\n  jump\t// in\ntag_104:\n    /* \"#utility.yul\":4038:4094   */\ntag_103:\n    /* \"#utility.yul\":4118:4156   */\n  tag_105\n    /* \"#utility.yul\":4150:4154   */\n  dup3\n    /* \"#utility.yul\":4144:4155   */\n  sload\n    /* \"#utility.yul\":4118:4156   */\n  tag_33\n  jump\t// in\ntag_105:\n    /* \"#utility.yul\":4203:4270   */\n  tag_106\n    /* \"#utility.yul\":4263:4269   */\n  dup3\n    /* \"#utility.yul\":4255:4261   */\n  dup3\n    /* \"#utility.yul\":4249:4253   */\n  dup6\n    /* \"#utility.yul\":4203:4270   */\n  tag_46\n  jump\t// in\ntag_106:\n    /* \"#utility.yul\":4297:4298   */\n  0x00\n    /* \"#utility.yul\":4321:4325   */\n  0x20\n    /* \"#utility.yul\":4308:4325   */\n  swap1\n  pop\n    /* \"#utility.yul\":4353:4355   */\n  0x1f\n    /* \"#utility.yul\":4345:4351   */\n  dup4\n    /* \"#utility.yul\":4342:4356   */\n  gt\n    /* \"#utility.yul\":4370:4371   */\n  0x01\n    /* \"#utility.yul\":4365:4983   */\n  dup2\n  eq\n  tag_108\n  jumpi\n    /* \"#utility.yul\":5027:5028   */\n  0x00\n    /* \"#utility.yul\":5044:5050   */\n  dup5\n    /* \"#utility.yul\":5041:5118   */\n  iszero\n  tag_109\n  jumpi\n    /* \"#utility.yul\":5093:5102   */\n  dup3\n    /* \"#utility.yul\":5088:5091   */\n  dup8\n    /* \"#utility.yul\":5084:5103   */\n  add\n    /* \"#utility.yul\":5078:5104   */\n  mload\n    /* \"#utility.yul\":5069:5104   */\n  swap1\n  pop\n    /* \"#utility.yul\":5041:5118   */\ntag_109:\n    /* \"#utility.yul\":5144:5211   */\n  tag_110\n    /* \"#utility.yul\":5204:5210   */\n  dup6\n    /* \"#utility.yul\":5197:5202   */\n  dup3\n    /* \"#utility.yul\":5144:5211   */\n  tag_49\n  jump\t// in\ntag_110:\n    /* \"#utility.yul\":5138:5142   */\n  dup7\n    /* \"#utility.yul\":5131:5212   */\n  sstore\n    /* \"#utility.yul\":5000:5222   */\n  pop\n    /* \"#utility.yul\":4335:5222   */\n  jump(tag_107)\n    /* \"#utility.yul\":4365:4983   */\ntag_108:\n    /* \"#utility.yul\":4417:4421   */\n  0x1f\n    /* \"#utility.yul\":4413:4422   */\n  not\n    /* \"#utility.yul\":4405:4411   */\n  dup5\n    /* \"#utility.yul\":4401:4423   */\n  and\n    /* \"#utility.yul\":4451:4488   */\n  tag_111\n    /* \"#utility.yul\":4483:4487   */\n  dup7\n    /* \"#utility.yul\":4451:4488   */\n  tag_34\n  jump\t// in\ntag_111:\n    /* \"#utility.yul\":4510:4511   */\n  0x00\n    /* \"#utility.yul\":4524:4732   */\ntag_112:\n    /* \"#utility.yul\":4538:4545   */\n  dup3\n    /* \"#utility.yul\":4535:4536   */\n  dup2\n    /* \"#utility.yul\":4532:4546   */\n  lt\n    /* \"#utility.yul\":4524:4732   */\n  iszero\n  tag_114\n  jumpi\n    /* \"#utility.yul\":4617:4626   */\n  dup5\n    /* \"#utility.yul\":4612:4615   */\n  dup10\n    /* \"#utility.yul\":4608:4627   */\n  add\n    /* \"#utility.yul\":4602:4628   */\n  mload\n    /* \"#utility.yul\":4594:4600   */\n  dup3\n    /* \"#utility.yul\":4587:4629   */\n  sstore\n    /* \"#utility.yul\":4668:4669   */\n  0x01\n    /* \"#utility.yul\":4660:4666   */\n  dup3\n    /* \"#utility.yul\":4656:4670   */\n  add\n    /* \"#utility.yul\":4646:4670   */\n  swap2\n  pop\n    /* \"#utility.yul\":4715:4717   */\n  0x20\n    /* \"#utility.yul\":4704:4713   */\n  dup6\n    /* \"#utility.yul\":4700:4718   */\n  add\n    /* \"#utility.yul\":4687:4718   */\n  swap5\n  pop\n    /* \"#utility.yul\":4561:4565   */\n  0x20\n    /* \"#utility.yul\":4558:4559   */\n  dup2\n    /* \"#utility.yul\":4554:4566   */\n  add\n    /* \"#utility.yul\":4549:4566   */\n  swap1\n  pop\n    /* \"#utility.yul\":4524:4732   */\n  jump(tag_112)\ntag_114:\n    /* \"#utility.yul\":4760:4766   */\n  dup7\n    /* \"#utility.yul\":4751:4758   */\n  dup4\n    /* \"#utility.yul\":4748:4767   */\n  lt\n    /* \"#utility.yul\":4745:4924   */\n  iszero\n  tag_115\n  jumpi\n    /* \"#utility.yul\":4818:4827   */\n  dup5\n    /* \"#utility.yul\":4813:4816   */\n  dup10\n    /* \"#utility.yul\":4809:4828   */\n  add\n    /* \"#utility.yul\":4803:4829   */\n  mload\n    /* \"#utility.yul\":4861:4909   */\n  tag_116\n    /* \"#utility.yul\":4903:4907   */\n  0x1f\n    /* \"#utility.yul\":4895:4901   */\n  dup10\n    /* \"#utility.yul\":4891:4908   */\n  and\n    /* \"#utility.yul\":4880:4889   */\n  dup3\n    /* \"#utility.yul\":4861:4909   */\n  tag_48\n  jump\t// in\ntag_116:\n    /* \"#utility.yul\":4853:4859   */\n  dup4\n    /* \"#utility.yul\":4846:4910   */\n  sstore\n    /* \"#utility.yul\":4768:4924   */\n  pop\n    /* \"#utility.yul\":4745:4924   */\ntag_115:\n    /* \"#utility.yul\":4970:4971   */\n  0x01\n    /* \"#utility.yul\":4966:4967   */\n  0x02\n    /* \"#utility.yul\":4958:4964   */\n  dup9\n    /* \"#utility.yul\":4954:4968   */\n  mul\n    /* \"#utility.yul\":4950:4972   */\n  add\n    /* \"#utility.yul\":4944:4948   */\n  dup9\n    /* \"#utility.yul\":4937:4973   */\n  sstore\n    /* \"#utility.yul\":4372:4983   */\n  pop\n  pop\n  pop\n    /* \"#utility.yul\":4335:5222   */\ntag_107:\n  pop\n    /* \"#utility.yul\":3925:5228   */\n  pop\n  pop\n  pop\n    /* \"#utility.yul\":3833:5228   */\n  pop\n  pop\n  jump\t// out\n    /* \"#utility.yul\":5234:5360   */\ntag_50:\n    /* \"#utility.yul\":5271:5278   */\n  0x00\n    /* \"#utility.yul\":5311:5353   */\n  0xffffffffffffffffffffffffffffffffffffffff\n    /* \"#utility.yul\":5304:5309   */\n  dup3\n    /* \"#utility.yul\":5300:5354   */\n  and\n    /* \"#utility.yul\":5289:5354   */\n  swap1\n  pop\n    /* \"#utility.yul\":5234:5360   */\n  swap2\n  swap1\n  pop\n  jump\t// out\n    /* \"#utility.yul\":5366:5462   */\ntag_51:\n    /* \"#utility.yul\":5403:5410   */\n  0x00\n    /* \"#utility.yul\":5432:5456   */\n  tag_119\n    /* \"#utility.yul\":5450:5455   */\n  dup3\n    /* \"#utility.yul\":5432:5456   */\n  tag_50\n  jump\t// in\ntag_119:\n    /* \"#utility.yul\":5421:5456   */\n  swap1\n  pop\n    /* \"#utility.yul\":5366:5462   */\n  swap2\n  swap1\n  pop\n  jump\t// out\n    /* \"#utility.yul\":5468:5586   */\ntag_52:\n    /* \"#utility.yul\":5555:5579   */\n  tag_121\n    /* \"#utility.yul\":5573:5578   */\n  dup2\n    /* \"#utility.yul\":5555:5579   */\n  tag_51\n  jump\t// in\ntag_121:\n    /* \"#utility.yul\":5550:5553   */\n  dup3\n    /* \"#utility.yul\":5543:5580   */\n  mstore\n    /* \"#utility.yul\":5468:5586   */\n  pop\n  pop\n  jump\t// out\n    /* \"#utility.yul\":5592:5814   */\ntag_15:\n    /* \"#utility.yul\":5685:5689   */\n  0x00\n    /* \"#utility.yul\":5723:5725   */\n  0x20\n    /* \"#utility.yul\":5712:5721   */\n  dup3\n    /* \"#utility.yul\":5708:5726   */\n  add\n    /* \"#utility.yul\":5700:5726   */\n  swap1\n  pop\n    /* \"#utility.yul\":5736:5807   */\n  tag_123\n    /* \"#utility.yul\":5804:5805   */\n  0x00\n    /* \"#utility.yul\":5793:5802   */\n  dup4\n    /* \"#utility.yul\":5789:5806   */\n  add\n    /* \"#utility.yul\":5780:5786   */\n  dup5\n    /* \"#utility.yul\":5736:5807   */\n  tag_52\n  jump\t// in\ntag_123:\n    /* \"#utility.yul\":5592:5814   */\n  swap3\n  swap2\n  pop\n  pop\n  jump\t// out\n    /* \"#utility.yul\":5820:6000   */\ntag_53:\n    /* \"#utility.yul\":5868:5945   */\n  0x4e487b7100000000000000000000000000000000000000000000000000000000\n    /* \"#utility.yul\":5865:5866   */\n  0x00\n    /* \"#utility.yul\":5858:5946   */\n  mstore\n    /* \"#utility.yul\":5965:5969   */\n  0x11\n    /* \"#utility.yul\":5962:5963   */\n  0x04\n    /* \"#utility.yul\":5955:5970   */\n  mstore\n    /* \"#utility.yul\":5989:5993   */\n  0x24\n    /* \"#utility.yul\":5986:5987   */\n  0x00\n    /* \"#utility.yul\":5979:5994   */\n  revert\n    /* \"#utility.yul\":6006:6197   */\ntag_21:\n    /* \"#utility.yul\":6046:6049   */\n  0x00\n    /* \"#utility.yul\":6065:6085   */\n  tag_126\n    /* \"#utility.yul\":6083:6084   */\n  dup3\n    /* \"#utility.yul\":6065:6085   */\n  tag_38\n  jump\t// in\ntag_126:\n    /* \"#utility.yul\":6060:6085   */\n  swap2\n  pop\n    /* \"#utility.yul\":6099:6119   */\n  tag_127\n    /* \"#utility.yul\":6117:6118   */\n  dup4\n    /* \"#utility.yul\":6099:6119   */\n  tag_38\n  jump\t// in\ntag_127:\n    /* \"#utility.yul\":6094:6119   */\n  swap3\n  pop\n    /* \"#utility.yul\":6142:6143   */\n  dup3\n    /* \"#utility.yul\":6139:6140   */\n  dup3\n    /* \"#utility.yul\":6135:6144   */\n  add\n    /* \"#utility.yul\":6128:6144   */\n  swap1\n  pop\n    /* \"#utility.yul\":6163:6166   */\n  dup1\n    /* \"#utility.yul\":6160:6161   */\n  dup3\n    /* \"#utility.yul\":6157:6167   */\n  gt\n    /* \"#utility.yul\":6154:6190   */\n  iszero\n  tag_128\n  jumpi\n    /* \"#utility.yul\":6170:6188   */\n  tag_129\n  tag_53\n  jump\t// in\ntag_129:\n    /* \"#utility.yul\":6154:6190   */\ntag_128:\n    /* \"#utility.yul\":6006:6197   */\n  swap3\n  swap2\n  pop\n  pop\n  jump\t// out\n    /* \"#utility.yul\":6203:6321   */\ntag_54:\n    /* \"#utility.yul\":6290:6314   */\n  tag_131\n    /* \"#utility.yul\":6308:6313   */\n  dup2\n    /* \"#utility.yul\":6290:6314   */\n  tag_38\n  jump\t// in\ntag_131:\n    /* \"#utility.yul\":6285:6288   */\n  dup3\n    /* \"#utility.yul\":6278:6315   */\n  mstore\n    /* \"#utility.yul\":6203:6321   */\n  pop\n  pop\n  jump\t// out\n    /* \"#utility.yul\":6327:6769   */\ntag_25:\n    /* \"#utility.yul\":6476:6480   */\n  0x00\n    /* \"#utility.yul\":6514:6516   */\n  0x60\n    /* \"#utility.yul\":6503:6512   */\n  dup3\n    /* \"#utility.yul\":6499:6517   */\n  add\n    /* \"#utility.yul\":6491:6517   */\n  swap1\n  pop\n    /* \"#utility.yul\":6527:6598   */\n  tag_133\n    /* \"#utility.yul\":6595:6596   */\n  0x00\n    /* \"#utility.yul\":6584:6593   */\n  dup4\n    /* \"#utility.yul\":6580:6597   */\n  add\n    /* \"#utility.yul\":6571:6577   */\n  dup7\n    /* \"#utility.yul\":6527:6598   */\n  tag_52\n  jump\t// in\ntag_133:\n    /* \"#utility.yul\":6608:6680   */\n  tag_134\n    /* \"#utility.yul\":6676:6678   */\n  0x20\n    /* \"#utility.yul\":6665:6674   */\n  dup4\n    /* \"#utility.yul\":6661:6679   */\n  add\n    /* \"#utility.yul\":6652:6658   */\n  dup6\n    /* \"#utility.yul\":6608:6680   */\n  tag_54\n  jump\t// in\ntag_134:\n    /* \"#utility.yul\":6690:6762   */\n  tag_135\n    /* \"#utility.yul\":6758:6760   */\n  0x40\n    /* \"#utility.yul\":6747:6756   */\n  dup4\n    /* \"#utility.yul\":6743:6761   */\n  add\n    /* \"#utility.yul\":6734:6740   */\n  dup5\n    /* \"#utility.yul\":6690:6762   */\n  tag_54\n  jump\t// in\ntag_135:\n    /* \"#utility.yul\":6327:6769   */\n  swap5\n  swap4\n  pop\n  pop\n  pop\n  pop\n  jump\t// out\n    /* \"#utility.yul\":6775:6997   */\ntag_29:\n    /* \"#utility.yul\":6868:6872   */\n  0x00\n    /* \"#utility.yul\":6906:6908   */\n  0x20\n    /* \"#utility.yul\":6895:6904   */\n  dup3\n    /* \"#utility.yul\":6891:6909   */\n  add\n    /* \"#utility.yul\":6883:6909   */\n  swap1\n  pop\n    /* \"#utility.yul\":6919:6990   */\n  tag_137\n    /* \"#utility.yul\":6987:6988   */\n  0x00\n    /* \"#utility.yul\":6976:6985   */\n  dup4\n    /* \"#utility.yul\":6972:6989   */\n  add\n    /* \"#utility.yul\":6963:6969   */\n  dup5\n    /* \"#utility.yul\":6919:6990   */\n  tag_54\n  jump\t// in\ntag_137:\n    /* \"#utility.yul\":6775:6997   */\n  swap3\n  swap2\n  pop\n  pop\n  jump\t// out\n    /* \"aitu_diana.sol\":365:2681  contract aitu_diana is ERC20 {... */\ntag_11:\n  dataSize(sub_0)\n  dup1\n  dataOffset(sub_0)\n  0x00\n  codecopy\n  0x00\n  return\nstop\n\nsub_0: assembly {\n        /* \"aitu_diana.sol\":365:2681  contract aitu_diana is ERC20 {... */\n      mstore(0x40, 0x80)\n      callvalue\n      dup1\n      iszero\n      tag_1\n      jumpi\n      0x00\n      dup1\n      revert\n    tag_1:\n      pop\n      jumpi(tag_2, lt(calldatasize, 0x04))\n      shr(0xe0, calldataload(0x00))\n      dup1\n      0x95d89b41\n      gt\n      tag_21\n      jumpi\n      dup1\n      0xbead3f50\n      gt\n      tag_22\n      jumpi\n      dup1\n      0xbead3f50\n      eq\n      tag_16\n      jumpi\n      dup1\n      0xd45e3f4a\n      eq\n      tag_17\n      jumpi\n      dup1\n      0xd7aa8273\n      eq\n      tag_18\n      jumpi\n      dup1\n      0xdd62ed3e\n      eq\n      tag_19\n      jumpi\n      dup1\n      0xf851a440\n      eq\n      tag_20\n      jumpi\n      jump(tag_2)\n    tag_22:\n      dup1\n      0x95d89b41\n      eq\n      tag_12\n      jumpi\n      dup1\n      0x9ace38c2\n      eq\n      tag_13\n      jumpi\n      dup1\n      0xa9059cbb\n      eq\n      tag_14\n      jumpi\n      dup1\n      0xb9a60038\n      eq\n      tag_15\n      jumpi\n      jump(tag_2)\n    tag_21:\n      dup1\n      0x313ce567\n      gt\n      tag_23\n      jumpi\n      dup1\n      0x313ce567\n      eq\n      tag_7\n      jumpi\n      dup1\n      0x40c10f19\n      eq\n      tag_8\n      jumpi\n      dup1\n      0x42966c68\n      eq\n      tag_9\n      jumpi\n      dup1\n      0x52e61b25\n      eq\n      tag_10\n      jumpi\n      dup1\n      0x70a08231\n      eq\n      tag_11\n      jumpi\n      jump(tag_2)\n    tag_23:\n      dup1\n      0x06fdde03\n      eq\n      tag_3\n      jumpi\n      dup1\n      0x095ea7b3\n      eq\n      tag_4\n      jumpi\n      dup1\n      0x18160ddd\n      eq\n      tag_5\n      jumpi\n      dup1\n      0x23b872dd\n      eq\n      tag_6\n      jumpi\n    tag_2:\n      0x00\n      dup1\n      revert\n        /* \"https://github.com/OpenZeppelin/openzeppelin-contracts/blob/e5c63635e3508a8d9d0afed091578cc4bb59a9c7/contracts/token/ERC20/ERC20.sol\":2075:2164  function name() public view virtual returns (string memory) {... */\n    tag_3:\n      tag_24\n      tag_25\n      jump\t// in\n    tag_24:\n      mload(0x40)\n      tag_26\n      swap2\n      swap1\n      tag_27\n      jump\t// in\n    tag_26:\n      mload(0x40)\n      dup1\n      swap2\n      sub\n      swap1\n      return\n        /* \"https://github.com/OpenZeppelin/openzeppelin-contracts/blob/e5c63635e3508a8d9d0afed091578cc4bb59a9c7/contracts/token/ERC20/ERC20.sol\":4294:4480  function approve(address spender, uint256 value) public virtual returns (bool) {... */\n    tag_4:\n      tag_28\n      0x04\n      dup1\n      calldatasize\n      sub\n      dup2\n      add\n      swap1\n      tag_29\n      swap2\n      swap1\n      tag_30\n      jump\t// in\n    tag_29:\n      tag_31\n      jump\t// in\n    tag_28:\n      mload(0x40)\n      tag_32\n      swap2\n      swap1\n      tag_33\n      jump\t// in\n    tag_32:\n      mload(0x40)\n      dup1\n      swap2\n      sub\n      swap1\n      return\n        /* \"https://github.com/OpenZeppelin/openzeppelin-contracts/blob/e5c63635e3508a8d9d0afed091578cc4bb59a9c7/contracts/token/ERC20/ERC20.sol\":3145:3242  function totalSupply() public view virtual returns (uint256) {... */\n    tag_5:\n      tag_34\n      tag_35\n      jump\t// in\n    tag_34:\n      mload(0x40)\n      tag_36\n      swap2\n      swap1\n      tag_37\n      jump\t// in\n    tag_36:\n      mload(0x40)\n      dup1\n      swap2\n      sub\n      swap1\n      return\n        /* \"https://github.com/OpenZeppelin/openzeppelin-contracts/blob/e5c63635e3508a8d9d0afed091578cc4bb59a9c7/contracts/token/ERC20/ERC20.sol\":5040:5284  function transferFrom(address from, address to, uint256 value) public virtual returns (bool) {... */\n    tag_6:\n      tag_38\n      0x04\n      dup1\n      calldatasize\n      sub\n      dup2\n      add\n      swap1\n      tag_39\n      swap2\n      swap1\n      tag_40\n      jump\t// in\n    tag_39:\n      tag_41\n      jump\t// in\n    tag_38:\n      mload(0x40)\n      tag_42\n      swap2\n      swap1\n      tag_33\n      jump\t// in\n    tag_42:\n      mload(0x40)\n      dup1\n      swap2\n      sub\n      swap1\n      return\n        /* \"https://github.com/OpenZeppelin/openzeppelin-contracts/blob/e5c63635e3508a8d9d0afed091578cc4bb59a9c7/contracts/token/ERC20/ERC20.sol\":3003:3085  function decimals() public view virtual returns (uint8) {... */\n    tag_7:\n      tag_43\n      tag_44\n      jump\t// in\n    tag_43:\n      mload(0x40)\n      tag_45\n      swap2\n      swap1\n      tag_46\n      jump\t// in\n    tag_45:\n      mload(0x40)\n      dup1\n      swap2\n      sub\n      swap1\n      return\n        /* \"aitu_diana.sol\":867:1054  function mint(address to, uint amount) external {... */\n    tag_8:\n      tag_47\n      0x04\n      dup1\n      calldatasize\n      sub\n      dup2\n      add\n      swap1\n      tag_48\n      swap2\n      swap1\n      tag_30\n      jump\t// in\n    tag_48:\n      tag_49\n      jump\t// in\n    tag_47:\n      stop\n        /* \"aitu_diana.sol\":1062:1200  function burn(uint amount) external {... */\n    tag_9:\n      tag_50\n      0x04\n      dup1\n      calldatasize\n      sub\n      dup2\n      add\n      swap1\n      tag_51\n      swap2\n      swap1\n      tag_52\n      jump\t// in\n    tag_51:\n      tag_53\n      jump\t// in\n    tag_50:\n      stop\n        /* \"aitu_diana.sol\":2454:2678  function getTransactionReceiver(uint transactionId) public view returns (address) {... */\n    tag_10:\n      tag_54\n      0x04\n      dup1\n      calldatasize\n      sub\n      dup2\n      add\n      swap1\n      tag_55\n      swap2\n      swap1\n      tag_52\n      jump\t// in\n    tag_55:\n      tag_56\n      jump\t// in\n    tag_54:\n      mload(0x40)\n      tag_57\n      swap2\n      swap1\n      tag_58\n      jump\t// in\n    tag_57:\n      mload(0x40)\n      dup1\n      swap2\n      sub\n      swap1\n      return\n        /* \"https://github.com/OpenZeppelin/openzeppelin-contracts/blob/e5c63635e3508a8d9d0afed091578cc4bb59a9c7/contracts/token/ERC20/ERC20.sol\":3300:3416  function balanceOf(address account) public view virtual returns (uint256) {... */\n    tag_11:\n      tag_59\n      0x04\n      dup1\n      calldatasize\n      sub\n      dup2\n      add\n      swap1\n      tag_60\n      swap2\n      swap1\n      tag_61\n      jump\t// in\n    tag_60:\n      tag_62\n      jump\t// in\n    tag_59:\n      mload(0x40)\n      tag_63\n      swap2\n      swap1\n      tag_37\n      jump\t// in\n    tag_63:\n      mload(0x40)\n      dup1\n      swap2\n      sub\n      swap1\n      return\n        /* \"https://github.com/OpenZeppelin/openzeppelin-contracts/blob/e5c63635e3508a8d9d0afed091578cc4bb59a9c7/contracts/token/ERC20/ERC20.sol\":2277:2370  function symbol() public view virtual returns (string memory) {... */\n    tag_12:\n      tag_64\n      tag_65\n      jump\t// in\n    tag_64:\n      mload(0x40)\n      tag_66\n      swap2\n      swap1\n      tag_27\n      jump\t// in\n    tag_66:\n      mload(0x40)\n      dup1\n      swap2\n      sub\n      swap1\n      return\n        /* \"aitu_diana.sol\":657:709  mapping(uint => TransactionInfo) public transactions */\n    tag_13:\n      tag_67\n      0x04\n      dup1\n      calldatasize\n      sub\n      dup2\n      add\n      swap1\n      tag_68\n      swap2\n      swap1\n      tag_52\n      jump\t// in\n    tag_68:\n      tag_69\n      jump\t// in\n    tag_67:\n      mload(0x40)\n      tag_70\n      swap5\n      swap4\n      swap3\n      swap2\n      swap1\n      tag_71\n      jump\t// in\n    tag_70:\n      mload(0x40)\n      dup1\n      swap2\n      sub\n      swap1\n      return\n        /* \"https://github.com/OpenZeppelin/openzeppelin-contracts/blob/e5c63635e3508a8d9d0afed091578cc4bb59a9c7/contracts/token/ERC20/ERC20.sol\":3611:3789  function transfer(address to, uint256 value) public virtual returns (bool) {... */\n    tag_14:\n      tag_72\n      0x04\n      dup1\n      calldatasize\n      sub\n      dup2\n      add\n      swap1\n      tag_73\n      swap2\n      swap1\n      tag_30\n      jump\t// in\n    tag_73:\n      tag_74\n      jump\t// in\n    tag_72:\n      mload(0x40)\n      tag_75\n      swap2\n      swap1\n      tag_33\n      jump\t// in\n    tag_75:\n      mload(0x40)\n      dup1\n      swap2\n      sub\n      swap1\n      return\n        /* \"aitu_diana.sol\":428:457  uint public totalTransactions */\n    tag_15:\n      tag_76\n      tag_77\n      jump\t// in\n    tag_76:\n      mload(0x40)\n      tag_78\n      swap2\n      swap1\n      tag_37\n      jump\t// in\n    tag_78:\n      mload(0x40)\n      dup1\n      swap2\n      sub\n      swap1\n      return\n        /* \"aitu_diana.sol\":2348:2446  function getTransactionSender() public view returns (address) {... */\n    tag_16:\n      tag_79\n      tag_80\n      jump\t// in\n    tag_79:\n      mload(0x40)\n      tag_81\n      swap2\n      swap1\n      tag_58\n      jump\t// in\n    tag_81:\n      mload(0x40)\n      dup1\n      swap2\n      sub\n      swap1\n      return\n        /* \"aitu_diana.sol\":1995:2340  function getLatestTransactionTimestamp() public view returns (... */\n    tag_17:\n      tag_82\n      tag_83\n      jump\t// in\n    tag_82:\n      mload(0x40)\n      tag_84\n      swap7\n      swap6\n      swap5\n      swap4\n      swap3\n      swap2\n      swap1\n      tag_85\n      jump\t// in\n    tag_84:\n      mload(0x40)\n      dup1\n      swap2\n      sub\n      swap1\n      return\n        /* \"aitu_diana.sol\":1543:1987  function getTransactionInfo(uint transactionId) external view returns (... */\n    tag_18:\n      tag_86\n      0x04\n      dup1\n      calldatasize\n      sub\n      dup2\n      add\n      swap1\n      tag_87\n      swap2\n      swap1\n      tag_52\n      jump\t// in\n    tag_87:\n      tag_88\n      jump\t// in\n    tag_86:\n      mload(0x40)\n      tag_89\n      swap5\n      swap4\n      swap3\n      swap2\n      swap1\n      tag_71\n      jump\t// in\n    tag_89:\n      mload(0x40)\n      dup1\n      swap2\n      sub\n      swap1\n      return\n        /* \"https://github.com/OpenZeppelin/openzeppelin-contracts/blob/e5c63635e3508a8d9d0afed091578cc4bb59a9c7/contracts/token/ERC20/ERC20.sol\":3847:3987  function allowance(address owner, address spender) public view virtual returns (uint256) {... */\n    tag_19:\n      tag_90\n      0x04\n      dup1\n      calldatasize\n      sub\n      dup2\n      add\n      swap1\n      tag_91\n      swap2\n      swap1\n      tag_92\n      jump\t// in\n    tag_91:\n      tag_93\n      jump\t// in\n    tag_90:\n      mload(0x40)\n      tag_94\n      swap2\n      swap1\n      tag_37\n      jump\t// in\n    tag_94:\n      mload(0x40)\n      dup1\n      swap2\n      sub\n      swap1\n      return\n        /* \"aitu_diana.sol\":401:421  address public admin */\n    tag_20:\n      tag_95\n      tag_96\n      jump\t// in\n    tag_95:\n      mload(0x40)\n      tag_97\n      swap2\n      swap1\n      tag_58\n      jump\t// in\n    tag_97:\n      mload(0x40)\n      dup1\n      swap2\n      sub\n      swap1\n      return\n        /* \"https://github.com/OpenZeppelin/openzeppelin-contracts/blob/e5c63635e3508a8d9d0afed091578cc4bb59a9c7/contracts/token/ERC20/ERC20.sol\":2075:2164  function name() public view virtual returns (string memory) {... */\n    tag_25:\n        /* \"https://github.com/OpenZeppelin/openzeppelin-contracts/blob/e5c63635e3508a8d9d0afed091578cc4bb59a9c7/contracts/token/ERC20/ERC20.sol\":2120:2133  string memory */\n      0x60\n        /* \"https://github.com/OpenZeppelin/openzeppelin-contracts/blob/e5c63635e3508a8d9d0afed091578cc4bb59a9c7/contracts/token/ERC20/ERC20.sol\":2152:2157  _name */\n      0x03\n        /* \"https://github.com/OpenZeppelin/openzeppelin-contracts/blob/e5c63635e3508a8d9d0afed091578cc4bb59a9c7/contracts/token/ERC20/ERC20.sol\":2145:2157  return _name */\n      dup1\n      sload\n      tag_99\n      swap1\n      tag_100\n      jump\t// in\n    tag_99:\n      dup1\n      0x1f\n      add\n      0x20\n      dup1\n      swap2\n      div\n      mul\n      0x20\n      add\n      mload(0x40)\n      swap1\n      dup2\n      add\n      0x40\n      mstore\n      dup1\n      swap3\n      swap2\n      swap1\n      dup2\n      dup2\n      mstore\n      0x20\n      add\n      dup3\n      dup1\n      sload\n      tag_101\n      swap1\n      tag_100\n      jump\t// in\n    tag_101:\n      dup1\n      iszero\n      tag_102\n      jumpi\n      dup1\n      0x1f\n      lt\n      tag_103\n      jumpi\n      0x0100\n      dup1\n      dup4\n      sload\n      div\n      mul\n      dup4\n      mstore\n      swap2\n      0x20\n      add\n      swap2\n      jump(tag_102)\n    tag_103:\n      dup3\n      add\n      swap2\n      swap1\n      0x00\n      mstore\n      keccak256(0x00, 0x20)\n      swap1\n    tag_104:\n      dup2\n      sload\n      dup2\n      mstore\n      swap1\n      0x01\n      add\n      swap1\n      0x20\n      add\n      dup1\n      dup4\n      gt\n      tag_104\n      jumpi\n      dup3\n      swap1\n      sub\n      0x1f\n      and\n      dup3\n      add\n      swap2\n    tag_102:\n      pop\n      pop\n      pop\n      pop\n      pop\n      swap1\n      pop\n        /* \"https://github.com/OpenZeppelin/openzeppelin-contracts/blob/e5c63635e3508a8d9d0afed091578cc4bb59a9c7/contracts/token/ERC20/ERC20.sol\":2075:2164  function name() public view virtual returns (string memory) {... */\n      swap1\n      jump\t// out\n        /* \"https://github.com/OpenZeppelin/openzeppelin-contracts/blob/e5c63635e3508a8d9d0afed091578cc4bb59a9c7/contracts/token/ERC20/ERC20.sol\":4294:4480  function approve(address spender, uint256 value) public virtual returns (bool) {... */\n    tag_31:\n        /* \"https://github.com/OpenZeppelin/openzeppelin-contracts/blob/e5c63635e3508a8d9d0afed091578cc4bb59a9c7/contracts/token/ERC20/ERC20.sol\":4367:4371  bool */\n      0x00\n        /* \"https://github.com/OpenZeppelin/openzeppelin-contracts/blob/e5c63635e3508a8d9d0afed091578cc4bb59a9c7/contracts/token/ERC20/ERC20.sol\":4383:4396  address owner */\n      dup1\n        /* \"https://github.com/OpenZeppelin/openzeppelin-contracts/blob/e5c63635e3508a8d9d0afed091578cc4bb59a9c7/contracts/token/ERC20/ERC20.sol\":4399:4411  _msgSender() */\n      tag_106\n        /* \"https://github.com/OpenZeppelin/openzeppelin-contracts/blob/e5c63635e3508a8d9d0afed091578cc4bb59a9c7/contracts/token/ERC20/ERC20.sol\":4399:4409  _msgSender */\n      tag_107\n        /* \"https://github.com/OpenZeppelin/openzeppelin-contracts/blob/e5c63635e3508a8d9d0afed091578cc4bb59a9c7/contracts/token/ERC20/ERC20.sol\":4399:4411  _msgSender() */\n      jump\t// in\n    tag_106:\n        /* \"https://github.com/OpenZeppelin/openzeppelin-contracts/blob/e5c63635e3508a8d9d0afed091578cc4bb59a9c7/contracts/token/ERC20/ERC20.sol\":4383:4411  address owner = _msgSender() */\n      swap1\n      pop\n        /* \"https://github.com/OpenZeppelin/openzeppelin-contracts/blob/e5c63635e3508a8d9d0afed091578cc4bb59a9c7/contracts/token/ERC20/ERC20.sol\":4421:4452  _approve(owner, spender, value) */\n      tag_108\n        /* \"https://github.com/OpenZeppelin/openzeppelin-contracts/blob/e5c63635e3508a8d9d0afed091578cc4bb59a9c7/contracts/token/ERC20/ERC20.sol\":4430:4435  owner */\n      dup2\n        /* \"https://github.com/OpenZeppelin/openzeppelin-contracts/blob/e5c63635e3508a8d9d0afed091578cc4bb59a9c7/contracts/token/ERC20/ERC20.sol\":4437:4444  spender */\n      dup6\n        /* \"https://github.com/OpenZeppelin/openzeppelin-contracts/blob/e5c63635e3508a8d9d0afed091578cc4bb59a9c7/contracts/token/ERC20/ERC20.sol\":4446:4451  value */\n      dup6\n        /* \"https://github.com/OpenZeppelin/openzeppelin-contracts/blob/e5c63635e3508a8d9d0afed091578cc4bb59a9c7/contracts/token/ERC20/ERC20.sol\":4421:4429  _approve */\n      tag_109\n        /* \"https://github.com/OpenZeppelin/openzeppelin-contracts/blob/e5c63635e3508a8d9d0afed091578cc4bb59a9c7/contracts/token/ERC20/ERC20.sol\":4421:4452  _approve(owner, spender, value) */\n      jump\t// in\n    tag_108:\n        /* \"https://github.com/OpenZeppelin/openzeppelin-contracts/blob/e5c63635e3508a8d9d0afed091578cc4bb59a9c7/contracts/token/ERC20/ERC20.sol\":4469:4473  true */\n      0x01\n        /* \"https://github.com/OpenZeppelin/openzeppelin-contracts/blob/e5c63635e3508a8d9d0afed091578cc4bb59a9c7/contracts/token/ERC20/ERC20.sol\":4462:4473  return true */\n      swap2\n      pop\n      pop\n        /* \"https://github.com/OpenZeppelin/openzeppelin-contracts/blob/e5c63635e3508a8d9d0afed091578cc4bb59a9c7/contracts/token/ERC20/ERC20.sol\":4294:4480  function approve(address spender, uint256 value) public virtual returns (bool) {... */\n      swap3\n      swap2\n      pop\n      pop\n      jump\t// out\n        /* \"https://github.com/OpenZeppelin/openzeppelin-contracts/blob/e5c63635e3508a8d9d0afed091578cc4bb59a9c7/contracts/token/ERC20/ERC20.sol\":3145:3242  function totalSupply() public view virtual returns (uint256) {... */\n    tag_35:\n        /* \"https://github.com/OpenZeppelin/openzeppelin-contracts/blob/e5c63635e3508a8d9d0afed091578cc4bb59a9c7/contracts/token/ERC20/ERC20.sol\":3197:3204  uint256 */\n      0x00\n        /* \"https://github.com/OpenZeppelin/openzeppelin-contracts/blob/e5c63635e3508a8d9d0afed091578cc4bb59a9c7/contracts/token/ERC20/ERC20.sol\":3223:3235  _totalSupply */\n      sload(0x02)\n        /* \"https://github.com/OpenZeppelin/openzeppelin-contracts/blob/e5c63635e3508a8d9d0afed091578cc4bb59a9c7/contracts/token/ERC20/ERC20.sol\":3216:3235  return _totalSupply */\n      swap1\n      pop\n        /* \"https://github.com/OpenZeppelin/openzeppelin-contracts/blob/e5c63635e3508a8d9d0afed091578cc4bb59a9c7/contracts/token/ERC20/ERC20.sol\":3145:3242  function totalSupply() public view virtual returns (uint256) {... */\n      swap1\n      jump\t// out\n        /* \"https://github.com/OpenZeppelin/openzeppelin-contracts/blob/e5c63635e3508a8d9d0afed091578cc4bb59a9c7/contracts/token/ERC20/ERC20.sol\":5040:5284  function transferFrom(address from, address to, uint256 value) public virtual returns (bool) {... */\n    tag_41:\n        /* \"https://github.com/OpenZeppelin/openzeppelin-contracts/blob/e5c63635e3508a8d9d0afed091578cc4bb59a9c7/contracts/token/ERC20/ERC20.sol\":5127:5131  bool */\n      0x00\n        /* \"https://github.com/OpenZeppelin/openzeppelin-contracts/blob/e5c63635e3508a8d9d0afed091578cc4bb59a9c7/contracts/token/ERC20/ERC20.sol\":5143:5158  address spender */\n      dup1\n        /* \"https://github.com/OpenZeppelin/openzeppelin-contracts/blob/e5c63635e3508a8d9d0afed091578cc4bb59a9c7/contracts/token/ERC20/ERC20.sol\":5161:5173  _msgSender() */\n      tag_112\n        /* \"https://github.com/OpenZeppelin/openzeppelin-contracts/blob/e5c63635e3508a8d9d0afed091578cc4bb59a9c7/contracts/token/ERC20/ERC20.sol\":5161:5171  _msgSender */\n      tag_107\n        /* \"https://github.com/OpenZeppelin/openzeppelin-contracts/blob/e5c63635e3508a8d9d0afed091578cc4bb59a9c7/contracts/token/ERC20/ERC20.sol\":5161:5173  _msgSender() */\n      jump\t// in\n    tag_112:\n        /* \"https://github.com/OpenZeppelin/openzeppelin-contracts/blob/e5c63635e3508a8d9d0afed091578cc4bb59a9c7/contracts/token/ERC20/ERC20.sol\":5143:5173  address spender = _msgSender() */\n      swap1\n      pop\n        /* \"https://github.com/OpenZeppelin/openzeppelin-contracts/blob/e5c63635e3508a8d9d0afed091578cc4bb59a9c7/contracts/token/ERC20/ERC20.sol\":5183:5220  _spendAllowance(from, spender, value) */\n      tag_113\n        /* \"https://github.com/OpenZeppelin/openzeppelin-contracts/blob/e5c63635e3508a8d9d0afed091578cc4bb59a9c7/contracts/token/ERC20/ERC20.sol\":5199:5203  from */\n      dup6\n        /* \"https://github.com/OpenZeppelin/openzeppelin-contracts/blob/e5c63635e3508a8d9d0afed091578cc4bb59a9c7/contracts/token/ERC20/ERC20.sol\":5205:5212  spender */\n      dup3\n        /* \"https://github.com/OpenZeppelin/openzeppelin-contracts/blob/e5c63635e3508a8d9d0afed091578cc4bb59a9c7/contracts/token/ERC20/ERC20.sol\":5214:5219  value */\n      dup6\n        /* \"https://github.com/OpenZeppelin/openzeppelin-contracts/blob/e5c63635e3508a8d9d0afed091578cc4bb59a9c7/contracts/token/ERC20/ERC20.sol\":5183:5198  _spendAllowance */\n      tag_114\n        /* \"https://github.com/OpenZeppelin/openzeppelin-contracts/blob/e5c63635e3508a8d9d0afed091578cc4bb59a9c7/contracts/token/ERC20/ERC20.sol\":5183:5220  _spendAllowance(from, spender, value) */\n      jump\t// in\n    tag_113:\n        /* \"https://github.com/OpenZeppelin/openzeppelin-contracts/blob/e5c63635e3508a8d9d0afed091578cc4bb59a9c7/contracts/token/ERC20/ERC20.sol\":5230:5256  _transfer(from, to, value) */\n      tag_115\n        /* \"https://github.com/OpenZeppelin/openzeppelin-contracts/blob/e5c63635e3508a8d9d0afed091578cc4bb59a9c7/contracts/token/ERC20/ERC20.sol\":5240:5244  from */\n      dup6\n        /* \"https://github.com/OpenZeppelin/openzeppelin-contracts/blob/e5c63635e3508a8d9d0afed091578cc4bb59a9c7/contracts/token/ERC20/ERC20.sol\":5246:5248  to */\n      dup6\n        /* \"https://github.com/OpenZeppelin/openzeppelin-contracts/blob/e5c63635e3508a8d9d0afed091578cc4bb59a9c7/contracts/token/ERC20/ERC20.sol\":5250:5255  value */\n      dup6\n        /* \"https://github.com/OpenZeppelin/openzeppelin-contracts/blob/e5c63635e3508a8d9d0afed091578cc4bb59a9c7/contracts/token/ERC20/ERC20.sol\":5230:5239  _transfer */\n      tag_116\n        /* \"https://github.com/OpenZeppelin/openzeppelin-contracts/blob/e5c63635e3508a8d9d0afed091578cc4bb59a9c7/contracts/token/ERC20/ERC20.sol\":5230:5256  _transfer(from, to, value) */\n      jump\t// in\n    tag_115:\n        /* \"https://github.com/OpenZeppelin/openzeppelin-contracts/blob/e5c63635e3508a8d9d0afed091578cc4bb59a9c7/contracts/token/ERC20/ERC20.sol\":5273:5277  true */\n      0x01\n        /* \"https://github.com/OpenZeppelin/openzeppelin-contracts/blob/e5c63635e3508a8d9d0afed091578cc4bb59a9c7/contracts/token/ERC20/ERC20.sol\":5266:5277  return true */\n      swap2\n      pop\n      pop\n        /* \"https://github.com/OpenZeppelin/openzeppelin-contracts/blob/e5c63635e3508a8d9d0afed091578cc4bb59a9c7/contracts/token/ERC20/ERC20.sol\":5040:5284  function transferFrom(address from, address to, uint256 value) public virtual returns (bool) {... */\n      swap4\n      swap3\n      pop\n      pop\n      pop\n      jump\t// out\n        /* \"https://github.com/OpenZeppelin/openzeppelin-contracts/blob/e5c63635e3508a8d9d0afed091578cc4bb59a9c7/contracts/token/ERC20/ERC20.sol\":3003:3085  function decimals() public view virtual returns (uint8) {... */\n    tag_44:\n        /* \"https://github.com/OpenZeppelin/openzeppelin-contracts/blob/e5c63635e3508a8d9d0afed091578cc4bb59a9c7/contracts/token/ERC20/ERC20.sol\":3052:3057  uint8 */\n      0x00\n        /* \"https://github.com/OpenZeppelin/openzeppelin-contracts/blob/e5c63635e3508a8d9d0afed091578cc4bb59a9c7/contracts/token/ERC20/ERC20.sol\":3076:3078  18 */\n      0x12\n        /* \"https://github.com/OpenZeppelin/openzeppelin-contracts/blob/e5c63635e3508a8d9d0afed091578cc4bb59a9c7/contracts/token/ERC20/ERC20.sol\":3069:3078  return 18 */\n      swap1\n      pop\n        /* \"https://github.com/OpenZeppelin/openzeppelin-contracts/blob/e5c63635e3508a8d9d0afed091578cc4bb59a9c7/contracts/token/ERC20/ERC20.sol\":3003:3085  function decimals() public view virtual returns (uint8) {... */\n      swap1\n      jump\t// out\n        /* \"aitu_diana.sol\":867:1054  function mint(address to, uint amount) external {... */\n    tag_49:\n        /* \"aitu_diana.sol\":948:953  admin */\n      0x05\n      0x00\n      swap1\n      sload\n      swap1\n      0x0100\n      exp\n      swap1\n      div\n      0xffffffffffffffffffffffffffffffffffffffff\n      and\n        /* \"aitu_diana.sol\":934:953  msg.sender == admin */\n      0xffffffffffffffffffffffffffffffffffffffff\n      and\n        /* \"aitu_diana.sol\":934:944  msg.sender */\n      caller\n        /* \"aitu_diana.sol\":934:953  msg.sender == admin */\n      0xffffffffffffffffffffffffffffffffffffffff\n      and\n      eq\n        /* \"aitu_diana.sol\":926:968  require(msg.sender == admin, 'only admin') */\n      tag_119\n      jumpi\n      mload(0x40)\n      0x08c379a000000000000000000000000000000000000000000000000000000000\n      dup2\n      mstore\n      0x04\n      add\n      tag_120\n      swap1\n      tag_121\n      jump\t// in\n    tag_120:\n      mload(0x40)\n      dup1\n      swap2\n      sub\n      swap1\n      revert\n    tag_119:\n        /* \"aitu_diana.sol\":979:996  _mint(to, amount) */\n      tag_122\n        /* \"aitu_diana.sol\":985:987  to */\n      dup3\n        /* \"aitu_diana.sol\":989:995  amount */\n      dup3\n        /* \"aitu_diana.sol\":979:984  _mint */\n      tag_123\n        /* \"aitu_diana.sol\":979:996  _mint(to, amount) */\n      jump\t// in\n    tag_122:\n        /* \"aitu_diana.sol\":1007:1046  _addTransaction(msg.sender, to, amount) */\n      tag_124\n        /* \"aitu_diana.sol\":1023:1033  msg.sender */\n      caller\n        /* \"aitu_diana.sol\":1035:1037  to */\n      dup4\n        /* \"aitu_diana.sol\":1039:1045  amount */\n      dup4\n        /* \"aitu_diana.sol\":1007:1022  _addTransaction */\n      tag_125\n        /* \"aitu_diana.sol\":1007:1046  _addTransaction(msg.sender, to, amount) */\n      jump\t// in\n    tag_124:\n        /* \"aitu_diana.sol\":867:1054  function mint(address to, uint amount) external {... */\n      pop\n      pop\n      jump\t// out\n        /* \"aitu_diana.sol\":1062:1200  function burn(uint amount) external {... */\n    tag_53:\n        /* \"aitu_diana.sol\":1109:1134  _burn(msg.sender, amount) */\n      tag_127\n        /* \"aitu_diana.sol\":1115:1125  msg.sender */\n      caller\n        /* \"aitu_diana.sol\":1127:1133  amount */\n      dup3\n        /* \"aitu_diana.sol\":1109:1114  _burn */\n      tag_128\n        /* \"aitu_diana.sol\":1109:1134  _burn(msg.sender, amount) */\n      jump\t// in\n    tag_127:\n        /* \"aitu_diana.sol\":1145:1192  _addTransaction(msg.sender, address(0), amount) */\n      tag_129\n        /* \"aitu_diana.sol\":1161:1171  msg.sender */\n      caller\n        /* \"aitu_diana.sol\":1181:1182  0 */\n      0x00\n        /* \"aitu_diana.sol\":1185:1191  amount */\n      dup4\n        /* \"aitu_diana.sol\":1145:1160  _addTransaction */\n      tag_125\n        /* \"aitu_diana.sol\":1145:1192  _addTransaction(msg.sender, address(0), amount) */\n      jump\t// in\n    tag_129:\n        /* \"aitu_diana.sol\":1062:1200  function burn(uint amount) external {... */\n      pop\n      jump\t// out\n        /* \"aitu_diana.sol\":2454:2678  function getTransactionReceiver(uint transactionId) public view returns (address) {... */\n    tag_56:\n        /* \"aitu_diana.sol\":2527:2534  address */\n      0x00\n        /* \"aitu_diana.sol\":2571:2588  totalTransactions */\n      sload(0x06)\n        /* \"aitu_diana.sol\":2555:2568  transactionId */\n      dup3\n        /* \"aitu_diana.sol\":2555:2588  transactionId < totalTransactions */\n      lt\n        /* \"aitu_diana.sol\":2547:2615  require(transactionId < totalTransactions, 'Invalid transaction ID') */\n      tag_131\n      jumpi\n      mload(0x40)\n      0x08c379a000000000000000000000000000000000000000000000000000000000\n      dup2\n      mstore\n      0x04\n      add\n      tag_132\n      swap1\n      tag_133\n      jump\t// in\n    tag_132:\n      mload(0x40)\n      dup1\n      swap2\n      sub\n      swap1\n      revert\n    tag_131:\n        /* \"aitu_diana.sol\":2633:2645  transactions */\n      0x07\n        /* \"aitu_diana.sol\":2633:2660  transactions[transactionId] */\n      0x00\n        /* \"aitu_diana.sol\":2646:2659  transactionId */\n      dup4\n        /* \"aitu_diana.sol\":2633:2660  transactions[transactionId] */\n      dup2\n      mstore\n      0x20\n      add\n      swap1\n      dup2\n      mstore\n      0x20\n      add\n      0x00\n      keccak256\n        /* \"aitu_diana.sol\":2633:2670  transactions[transactionId].recipient */\n      0x01\n      add\n      0x00\n      swap1\n      sload\n      swap1\n      0x0100\n      exp\n      swap1\n      div\n      0xffffffffffffffffffffffffffffffffffffffff\n      and\n        /* \"aitu_diana.sol\":2626:2670  return transactions[transactionId].recipient */\n      swap1\n      pop\n        /* \"aitu_diana.sol\":2454:2678  function getTransactionReceiver(uint transactionId) public view returns (address) {... */\n      swap2\n      swap1\n      pop\n      jump\t// out\n        /* \"https://github.com/OpenZeppelin/openzeppelin-contracts/blob/e5c63635e3508a8d9d0afed091578cc4bb59a9c7/contracts/token/ERC20/ERC20.sol\":3300:3416  function balanceOf(address account) public view virtual returns (uint256) {... */\n    tag_62:\n        /* \"https://github.com/OpenZeppelin/openzeppelin-contracts/blob/e5c63635e3508a8d9d0afed091578cc4bb59a9c7/contracts/token/ERC20/ERC20.sol\":3365:3372  uint256 */\n      0x00\n        /* \"https://github.com/OpenZeppelin/openzeppelin-contracts/blob/e5c63635e3508a8d9d0afed091578cc4bb59a9c7/contracts/token/ERC20/ERC20.sol\":3391:3400  _balances */\n      dup1\n        /* \"https://github.com/OpenZeppelin/openzeppelin-contracts/blob/e5c63635e3508a8d9d0afed091578cc4bb59a9c7/contracts/token/ERC20/ERC20.sol\":3391:3409  _balances[account] */\n      0x00\n        /* \"https://github.com/OpenZeppelin/openzeppelin-contracts/blob/e5c63635e3508a8d9d0afed091578cc4bb59a9c7/contracts/token/ERC20/ERC20.sol\":3401:3408  account */\n      dup4\n        /* \"https://github.com/OpenZeppelin/openzeppelin-contracts/blob/e5c63635e3508a8d9d0afed091578cc4bb59a9c7/contracts/token/ERC20/ERC20.sol\":3391:3409  _balances[account] */\n      0xffffffffffffffffffffffffffffffffffffffff\n      and\n      0xffffffffffffffffffffffffffffffffffffffff\n      and\n      dup2\n      mstore\n      0x20\n      add\n      swap1\n      dup2\n      mstore\n      0x20\n      add\n      0x00\n      keccak256\n      sload\n        /* \"https://github.com/OpenZeppelin/openzeppelin-contracts/blob/e5c63635e3508a8d9d0afed091578cc4bb59a9c7/contracts/token/ERC20/ERC20.sol\":3384:3409  return _balances[account] */\n      swap1\n      pop\n        /* \"https://github.com/OpenZeppelin/openzeppelin-contracts/blob/e5c63635e3508a8d9d0afed091578cc4bb59a9c7/contracts/token/ERC20/ERC20.sol\":3300:3416  function balanceOf(address account) public view virtual returns (uint256) {... */\n      swap2\n      swap1\n      pop\n      jump\t// out\n        /* \"https://github.com/OpenZeppelin/openzeppelin-contracts/blob/e5c63635e3508a8d9d0afed091578cc4bb59a9c7/contracts/token/ERC20/ERC20.sol\":2277:2370  function symbol() public view virtual returns (string memory) {... */\n    tag_65:\n        /* \"https://github.com/OpenZeppelin/openzeppelin-contracts/blob/e5c63635e3508a8d9d0afed091578cc4bb59a9c7/contracts/token/ERC20/ERC20.sol\":2324:2337  string memory */\n      0x60\n        /* \"https://github.com/OpenZeppelin/openzeppelin-contracts/blob/e5c63635e3508a8d9d0afed091578cc4bb59a9c7/contracts/token/ERC20/ERC20.sol\":2356:2363  _symbol */\n      0x04\n        /* \"https://github.com/OpenZeppelin/openzeppelin-contracts/blob/e5c63635e3508a8d9d0afed091578cc4bb59a9c7/contracts/token/ERC20/ERC20.sol\":2349:2363  return _symbol */\n      dup1\n      sload\n      tag_136\n      swap1\n      tag_100\n      jump\t// in\n    tag_136:\n      dup1\n      0x1f\n      add\n      0x20\n      dup1\n      swap2\n      div\n      mul\n      0x20\n      add\n      mload(0x40)\n      swap1\n      dup2\n      add\n      0x40\n      mstore\n      dup1\n      swap3\n      swap2\n      swap1\n      dup2\n      dup2\n      mstore\n      0x20\n      add\n      dup3\n      dup1\n      sload\n      tag_137\n      swap1\n      tag_100\n      jump\t// in\n    tag_137:\n      dup1\n      iszero\n      tag_138\n      jumpi\n      dup1\n      0x1f\n      lt\n      tag_139\n      jumpi\n      0x0100\n      dup1\n      dup4\n      sload\n      div\n      mul\n      dup4\n      mstore\n      swap2\n      0x20\n      add\n      swap2\n      jump(tag_138)\n    tag_139:\n      dup3\n      add\n      swap2\n      swap1\n      0x00\n      mstore\n      keccak256(0x00, 0x20)\n      swap1\n    tag_140:\n      dup2\n      sload\n      dup2\n      mstore\n      swap1\n      0x01\n      add\n      swap1\n      0x20\n      add\n      dup1\n      dup4\n      gt\n      tag_140\n      jumpi\n      dup3\n      swap1\n      sub\n      0x1f\n      and\n      dup3\n      add\n      swap2\n    tag_138:\n      pop\n      pop\n      pop\n      pop\n      pop\n      swap1\n      pop\n        /* \"https://github.com/OpenZeppelin/openzeppelin-contracts/blob/e5c63635e3508a8d9d0afed091578cc4bb59a9c7/contracts/token/ERC20/ERC20.sol\":2277:2370  function symbol() public view virtual returns (string memory) {... */\n      swap1\n      jump\t// out\n        /* \"aitu_diana.sol\":657:709  mapping(uint => TransactionInfo) public transactions */\n    tag_69:\n      mstore(0x20, 0x07)\n      dup1\n      0x00\n      mstore\n      keccak256(0x00, 0x40)\n      0x00\n      swap2\n      pop\n      swap1\n      pop\n      dup1\n      0x00\n      add\n      0x00\n      swap1\n      sload\n      swap1\n      0x0100\n      exp\n      swap1\n      div\n      0xffffffffffffffffffffffffffffffffffffffff\n      and\n      swap1\n      dup1\n      0x01\n      add\n      0x00\n      swap1\n      sload\n      swap1\n      0x0100\n      exp\n      swap1\n      div\n      0xffffffffffffffffffffffffffffffffffffffff\n      and\n      swap1\n      dup1\n      0x02\n      add\n      sload\n      swap1\n      dup1\n      0x03\n      add\n      sload\n      swap1\n      pop\n      dup5\n      jump\t// out\n        /* \"https://github.com/OpenZeppelin/openzeppelin-contracts/blob/e5c63635e3508a8d9d0afed091578cc4bb59a9c7/contracts/token/ERC20/ERC20.sol\":3611:3789  function transfer(address to, uint256 value) public virtual returns (bool) {... */\n    tag_74:\n        /* \"https://github.com/OpenZeppelin/openzeppelin-contracts/blob/e5c63635e3508a8d9d0afed091578cc4bb59a9c7/contracts/token/ERC20/ERC20.sol\":3680:3684  bool */\n      0x00\n        /* \"https://github.com/OpenZeppelin/openzeppelin-contracts/blob/e5c63635e3508a8d9d0afed091578cc4bb59a9c7/contracts/token/ERC20/ERC20.sol\":3696:3709  address owner */\n      dup1\n        /* \"https://github.com/OpenZeppelin/openzeppelin-contracts/blob/e5c63635e3508a8d9d0afed091578cc4bb59a9c7/contracts/token/ERC20/ERC20.sol\":3712:3724  _msgSender() */\n      tag_142\n        /* \"https://github.com/OpenZeppelin/openzeppelin-contracts/blob/e5c63635e3508a8d9d0afed091578cc4bb59a9c7/contracts/token/ERC20/ERC20.sol\":3712:3722  _msgSender */\n      tag_107\n        /* \"https://github.com/OpenZeppelin/openzeppelin-contracts/blob/e5c63635e3508a8d9d0afed091578cc4bb59a9c7/contracts/token/ERC20/ERC20.sol\":3712:3724  _msgSender() */\n      jump\t// in\n    tag_142:\n        /* \"https://github.com/OpenZeppelin/openzeppelin-contracts/blob/e5c63635e3508a8d9d0afed091578cc4bb59a9c7/contracts/token/ERC20/ERC20.sol\":3696:3724  address owner = _msgSender() */\n      swap1\n      pop\n        /* \"https://github.com/OpenZeppelin/openzeppelin-contracts/blob/e5c63635e3508a8d9d0afed091578cc4bb59a9c7/contracts/token/ERC20/ERC20.sol\":3734:3761  _transfer(owner, to, value) */\n      tag_143\n        /* \"https://github.com/OpenZeppelin/openzeppelin-contracts/blob/e5c63635e3508a8d9d0afed091578cc4bb59a9c7/contracts/token/ERC20/ERC20.sol\":3744:3749  owner */\n      dup2\n        /* \"https://github.com/OpenZeppelin/openzeppelin-contracts/blob/e5c63635e3508a8d9d0afed091578cc4bb59a9c7/contracts/token/ERC20/ERC20.sol\":3751:3753  to */\n      dup6\n        /* \"https://github.com/OpenZeppelin/openzeppelin-contracts/blob/e5c63635e3508a8d9d0afed091578cc4bb59a9c7/contracts/token/ERC20/ERC20.sol\":3755:3760  value */\n      dup6\n        /* \"https://github.com/OpenZeppelin/openzeppelin-contracts/blob/e5c63635e3508a8d9d0afed091578cc4bb59a9c7/contracts/token/ERC20/ERC20.sol\":3734:3743  _transfer */\n      tag_116\n        /* \"https://github.com/OpenZeppelin/openzeppelin-contracts/blob/e5c63635e3508a8d9d0afed091578cc4bb59a9c7/contracts/token/ERC20/ERC20.sol\":3734:3761  _transfer(owner, to, value) */\n      jump\t// in\n    tag_143:\n        /* \"https://github.com/OpenZeppelin/openzeppelin-contracts/blob/e5c63635e3508a8d9d0afed091578cc4bb59a9c7/contracts/token/ERC20/ERC20.sol\":3778:3782  true */\n      0x01\n        /* \"https://github.com/OpenZeppelin/openzeppelin-contracts/blob/e5c63635e3508a8d9d0afed091578cc4bb59a9c7/contracts/token/ERC20/ERC20.sol\":3771:3782  return true */\n      swap2\n      pop\n      pop\n        /* \"https://github.com/OpenZeppelin/openzeppelin-contracts/blob/e5c63635e3508a8d9d0afed091578cc4bb59a9c7/contracts/token/ERC20/ERC20.sol\":3611:3789  function transfer(address to, uint256 value) public virtual returns (bool) {... */\n      swap3\n      swap2\n      pop\n      pop\n      jump\t// out\n        /* \"aitu_diana.sol\":428:457  uint public totalTransactions */\n    tag_77:\n      sload(0x06)\n      dup2\n      jump\t// out\n        /* \"aitu_diana.sol\":2348:2446  function getTransactionSender() public view returns (address) {... */\n    tag_80:\n        /* \"aitu_diana.sol\":2401:2408  address */\n      0x00\n        /* \"aitu_diana.sol\":2428:2438  msg.sender */\n      caller\n        /* \"aitu_diana.sol\":2421:2438  return msg.sender */\n      swap1\n      pop\n        /* \"aitu_diana.sol\":2348:2446  function getTransactionSender() public view returns (address) {... */\n      swap1\n      jump\t// out\n        /* \"aitu_diana.sol\":1995:2340  function getLatestTransactionTimestamp() public view returns (... */\n    tag_83:\n        /* \"aitu_diana.sol\":2067:2076  uint year */\n      0x00\n        /* \"aitu_diana.sol\":2078:2088  uint month */\n      dup1\n        /* \"aitu_diana.sol\":2090:2098  uint day */\n      0x00\n        /* \"aitu_diana.sol\":2100:2109  uint hour */\n      dup1\n        /* \"aitu_diana.sol\":2111:2122  uint minute */\n      0x00\n        /* \"aitu_diana.sol\":2124:2135  uint second */\n      dup1\n        /* \"aitu_diana.sol\":2154:2171  uint256 timestamp */\n      0x00\n        /* \"aitu_diana.sol\":2174:2189  block.timestamp */\n      timestamp\n        /* \"aitu_diana.sol\":2154:2189  uint256 timestamp = block.timestamp */\n      swap1\n      pop\n        /* \"aitu_diana.sol\":2243:2274  timestamp.timestampToDateTime() */\n      tag_146\n        /* \"aitu_diana.sol\":2243:2252  timestamp */\n      dup2\n        /* \"aitu_diana.sol\":2243:2272  timestamp.timestampToDateTime */\n      tag_147\n        /* \"aitu_diana.sol\":2243:2274  timestamp.timestampToDateTime() */\n      jump\t// in\n    tag_146:\n        /* \"aitu_diana.sol\":2200:2274  (year, month, day, hour, minute, second) = timestamp.timestampToDateTime() */\n      dup1\n      swap8\n      pop\n      dup2\n      swap9\n      pop\n      dup3\n      swap10\n      pop\n      dup4\n      swap11\n      pop\n      dup5\n      swap12\n      pop\n      dup6\n      swap13\n      pop\n      pop\n      pop\n      pop\n      pop\n      pop\n      pop\n        /* \"aitu_diana.sol\":2285:2332  return (year, month, day, hour, minute, second) */\n      pop\n        /* \"aitu_diana.sol\":1995:2340  function getLatestTransactionTimestamp() public view returns (... */\n      swap1\n      swap2\n      swap3\n      swap4\n      swap5\n      swap6\n      jump\t// out\n        /* \"aitu_diana.sol\":1543:1987  function getTransactionInfo(uint transactionId) external view returns (... */\n    tag_88:\n        /* \"aitu_diana.sol\":1624:1638  address sender */\n      0x00\n        /* \"aitu_diana.sol\":1649:1666  address recipient */\n      dup1\n        /* \"aitu_diana.sol\":1677:1688  uint amount */\n      0x00\n        /* \"aitu_diana.sol\":1699:1713  uint timestamp */\n      dup1\n        /* \"aitu_diana.sol\":1756:1773  totalTransactions */\n      sload(0x06)\n        /* \"aitu_diana.sol\":1740:1753  transactionId */\n      dup6\n        /* \"aitu_diana.sol\":1740:1773  transactionId < totalTransactions */\n      lt\n        /* \"aitu_diana.sol\":1732:1800  require(transactionId < totalTransactions, 'Invalid transaction ID') */\n      tag_149\n      jumpi\n      mload(0x40)\n      0x08c379a000000000000000000000000000000000000000000000000000000000\n      dup2\n      mstore\n      0x04\n      add\n      tag_150\n      swap1\n      tag_133\n      jump\t// in\n    tag_150:\n      mload(0x40)\n      dup1\n      swap2\n      sub\n      swap1\n      revert\n    tag_149:\n        /* \"aitu_diana.sol\":1811:1845  TransactionInfo memory transaction */\n      0x00\n        /* \"aitu_diana.sol\":1848:1860  transactions */\n      0x07\n        /* \"aitu_diana.sol\":1848:1875  transactions[transactionId] */\n      0x00\n        /* \"aitu_diana.sol\":1861:1874  transactionId */\n      dup8\n        /* \"aitu_diana.sol\":1848:1875  transactions[transactionId] */\n      dup2\n      mstore\n      0x20\n      add\n      swap1\n      dup2\n      mstore\n      0x20\n      add\n      0x00\n      keccak256\n        /* \"aitu_diana.sol\":1811:1875  TransactionInfo memory transaction = transactions[transactionId] */\n      mload(0x40)\n      dup1\n      0x80\n      add\n      0x40\n      mstore\n      swap1\n      dup2\n      0x00\n      dup3\n      add\n      0x00\n      swap1\n      sload\n      swap1\n      0x0100\n      exp\n      swap1\n      div\n      0xffffffffffffffffffffffffffffffffffffffff\n      and\n      0xffffffffffffffffffffffffffffffffffffffff\n      and\n      0xffffffffffffffffffffffffffffffffffffffff\n      and\n      dup2\n      mstore\n      0x20\n      add\n      0x01\n      dup3\n      add\n      0x00\n      swap1\n      sload\n      swap1\n      0x0100\n      exp\n      swap1\n      div\n      0xffffffffffffffffffffffffffffffffffffffff\n      and\n      0xffffffffffffffffffffffffffffffffffffffff\n      and\n      0xffffffffffffffffffffffffffffffffffffffff\n      and\n      dup2\n      mstore\n      0x20\n      add\n      0x02\n      dup3\n      add\n      sload\n      dup2\n      mstore\n      0x20\n      add\n      0x03\n      dup3\n      add\n      sload\n      dup2\n      mstore\n      pop\n      pop\n      swap1\n      pop\n        /* \"aitu_diana.sol\":1894:1905  transaction */\n      dup1\n        /* \"aitu_diana.sol\":1894:1912  transaction.sender */\n      0x00\n      add\n      mload\n        /* \"aitu_diana.sol\":1914:1925  transaction */\n      dup2\n        /* \"aitu_diana.sol\":1914:1935  transaction.recipient */\n      0x20\n      add\n      mload\n        /* \"aitu_diana.sol\":1937:1948  transaction */\n      dup3\n        /* \"aitu_diana.sol\":1937:1955  transaction.amount */\n      0x40\n      add\n      mload\n        /* \"aitu_diana.sol\":1957:1968  transaction */\n      dup4\n        /* \"aitu_diana.sol\":1957:1978  transaction.timestamp */\n      0x60\n      add\n      mload\n        /* \"aitu_diana.sol\":1886:1979  return (transaction.sender, transaction.recipient, transaction.amount, transaction.timestamp) */\n      swap5\n      pop\n      swap5\n      pop\n      swap5\n      pop\n      swap5\n      pop\n      pop\n        /* \"aitu_diana.sol\":1543:1987  function getTransactionInfo(uint transactionId) external view returns (... */\n      swap2\n      swap4\n      pop\n      swap2\n      swap4\n      jump\t// out\n        /* \"https://github.com/OpenZeppelin/openzeppelin-contracts/blob/e5c63635e3508a8d9d0afed091578cc4bb59a9c7/contracts/token/ERC20/ERC20.sol\":3847:3987  function allowance(address owner, address spender) public view virtual returns (uint256) {... */\n    tag_93:\n        /* \"https://github.com/OpenZeppelin/openzeppelin-contracts/blob/e5c63635e3508a8d9d0afed091578cc4bb59a9c7/contracts/token/ERC20/ERC20.sol\":3927:3934  uint256 */\n      0x00\n        /* \"https://github.com/OpenZeppelin/openzeppelin-contracts/blob/e5c63635e3508a8d9d0afed091578cc4bb59a9c7/contracts/token/ERC20/ERC20.sol\":3953:3964  _allowances */\n      0x01\n        /* \"https://github.com/OpenZeppelin/openzeppelin-contracts/blob/e5c63635e3508a8d9d0afed091578cc4bb59a9c7/contracts/token/ERC20/ERC20.sol\":3953:3971  _allowances[owner] */\n      0x00\n        /* \"https://github.com/OpenZeppelin/openzeppelin-contracts/blob/e5c63635e3508a8d9d0afed091578cc4bb59a9c7/contracts/token/ERC20/ERC20.sol\":3965:3970  owner */\n      dup5\n        /* \"https://github.com/OpenZeppelin/openzeppelin-contracts/blob/e5c63635e3508a8d9d0afed091578cc4bb59a9c7/contracts/token/ERC20/ERC20.sol\":3953:3971  _allowances[owner] */\n      0xffffffffffffffffffffffffffffffffffffffff\n      and\n      0xffffffffffffffffffffffffffffffffffffffff\n      and\n      dup2\n      mstore\n      0x20\n      add\n      swap1\n      dup2\n      mstore\n      0x20\n      add\n      0x00\n      keccak256\n        /* \"https://github.com/OpenZeppelin/openzeppelin-contracts/blob/e5c63635e3508a8d9d0afed091578cc4bb59a9c7/contracts/token/ERC20/ERC20.sol\":3953:3980  _allowances[owner][spender] */\n      0x00\n        /* \"https://github.com/OpenZeppelin/openzeppelin-contracts/blob/e5c63635e3508a8d9d0afed091578cc4bb59a9c7/contracts/token/ERC20/ERC20.sol\":3972:3979  spender */\n      dup4\n        /* \"https://github.com/OpenZeppelin/openzeppelin-contracts/blob/e5c63635e3508a8d9d0afed091578cc4bb59a9c7/contracts/token/ERC20/ERC20.sol\":3953:3980  _allowances[owner][spender] */\n      0xffffffffffffffffffffffffffffffffffffffff\n      and\n      0xffffffffffffffffffffffffffffffffffffffff\n      and\n      dup2\n      mstore\n      0x20\n      add\n      swap1\n      dup2\n      mstore\n      0x20\n      add\n      0x00\n      keccak256\n      sload\n        /* \"https://github.com/OpenZeppelin/openzeppelin-contracts/blob/e5c63635e3508a8d9d0afed091578cc4bb59a9c7/contracts/token/ERC20/ERC20.sol\":3946:3980  return _allowances[owner][spender] */\n      swap1\n      pop\n        /* \"https://github.com/OpenZeppelin/openzeppelin-contracts/blob/e5c63635e3508a8d9d0afed091578cc4bb59a9c7/contracts/token/ERC20/ERC20.sol\":3847:3987  function allowance(address owner, address spender) public view virtual returns (uint256) {... */\n      swap3\n      swap2\n      pop\n      pop\n      jump\t// out\n        /* \"aitu_diana.sol\":401:421  address public admin */\n    tag_96:\n      0x05\n      0x00\n      swap1\n      sload\n      swap1\n      0x0100\n      exp\n      swap1\n      div\n      0xffffffffffffffffffffffffffffffffffffffff\n      and\n      dup2\n      jump\t// out\n        /* \"https://github.com/OpenZeppelin/openzeppelin-contracts/blob/e5c63635e3508a8d9d0afed091578cc4bb59a9c7/contracts/utils/Context.sol\":656:752  function _msgSender() internal view virtual returns (address) {... */\n    tag_107:\n        /* \"https://github.com/OpenZeppelin/openzeppelin-contracts/blob/e5c63635e3508a8d9d0afed091578cc4bb59a9c7/contracts/utils/Context.sol\":709:716  address */\n      0x00\n        /* \"https://github.com/OpenZeppelin/openzeppelin-contracts/blob/e5c63635e3508a8d9d0afed091578cc4bb59a9c7/contracts/utils/Context.sol\":735:745  msg.sender */\n      caller\n        /* \"https://github.com/OpenZeppelin/openzeppelin-contracts/blob/e5c63635e3508a8d9d0afed091578cc4bb59a9c7/contracts/utils/Context.sol\":728:745  return msg.sender */\n      swap1\n      pop\n        /* \"https://github.com/OpenZeppelin/openzeppelin-contracts/blob/e5c63635e3508a8d9d0afed091578cc4bb59a9c7/contracts/utils/Context.sol\":656:752  function _msgSender() internal view virtual returns (address) {... */\n      swap1\n      jump\t// out\n        /* \"https://github.com/OpenZeppelin/openzeppelin-contracts/blob/e5c63635e3508a8d9d0afed091578cc4bb59a9c7/contracts/token/ERC20/ERC20.sol\":8990:9118  function _approve(address owner, address spender, uint256 value) internal {... */\n    tag_109:\n        /* \"https://github.com/OpenZeppelin/openzeppelin-contracts/blob/e5c63635e3508a8d9d0afed091578cc4bb59a9c7/contracts/token/ERC20/ERC20.sol\":9074:9111  _approve(owner, spender, value, true) */\n      tag_154\n        /* \"https://github.com/OpenZeppelin/openzeppelin-contracts/blob/e5c63635e3508a8d9d0afed091578cc4bb59a9c7/contracts/token/ERC20/ERC20.sol\":9083:9088  owner */\n      dup4\n        /* \"https://github.com/OpenZeppelin/openzeppelin-contracts/blob/e5c63635e3508a8d9d0afed091578cc4bb59a9c7/contracts/token/ERC20/ERC20.sol\":9090:9097  spender */\n      dup4\n        /* \"https://github.com/OpenZeppelin/openzeppelin-contracts/blob/e5c63635e3508a8d9d0afed091578cc4bb59a9c7/contracts/token/ERC20/ERC20.sol\":9099:9104  value */\n      dup4\n        /* \"https://github.com/OpenZeppelin/openzeppelin-contracts/blob/e5c63635e3508a8d9d0afed091578cc4bb59a9c7/contracts/token/ERC20/ERC20.sol\":9106:9110  true */\n      0x01\n        /* \"https://github.com/OpenZeppelin/openzeppelin-contracts/blob/e5c63635e3508a8d9d0afed091578cc4bb59a9c7/contracts/token/ERC20/ERC20.sol\":9074:9082  _approve */\n      tag_155\n        /* \"https://github.com/OpenZeppelin/openzeppelin-contracts/blob/e5c63635e3508a8d9d0afed091578cc4bb59a9c7/contracts/token/ERC20/ERC20.sol\":9074:9111  _approve(owner, spender, value, true) */\n      jump\t// in\n    tag_154:\n        /* \"https://github.com/OpenZeppelin/openzeppelin-contracts/blob/e5c63635e3508a8d9d0afed091578cc4bb59a9c7/contracts/token/ERC20/ERC20.sol\":8990:9118  function _approve(address owner, address spender, uint256 value) internal {... */\n      pop\n      pop\n      pop\n      jump\t// out\n        /* \"https://github.com/OpenZeppelin/openzeppelin-contracts/blob/e5c63635e3508a8d9d0afed091578cc4bb59a9c7/contracts/token/ERC20/ERC20.sol\":10664:11141  function _spendAllowance(address owner, address spender, uint256 value) internal virtual {... */\n    tag_114:\n        /* \"https://github.com/OpenZeppelin/openzeppelin-contracts/blob/e5c63635e3508a8d9d0afed091578cc4bb59a9c7/contracts/token/ERC20/ERC20.sol\":10763:10787  uint256 currentAllowance */\n      0x00\n        /* \"https://github.com/OpenZeppelin/openzeppelin-contracts/blob/e5c63635e3508a8d9d0afed091578cc4bb59a9c7/contracts/token/ERC20/ERC20.sol\":10790:10815  allowance(owner, spender) */\n      tag_157\n        /* \"https://github.com/OpenZeppelin/openzeppelin-contracts/blob/e5c63635e3508a8d9d0afed091578cc4bb59a9c7/contracts/token/ERC20/ERC20.sol\":10800:10805  owner */\n      dup5\n        /* \"https://github.com/OpenZeppelin/openzeppelin-contracts/blob/e5c63635e3508a8d9d0afed091578cc4bb59a9c7/contracts/token/ERC20/ERC20.sol\":10807:10814  spender */\n      dup5\n        /* \"https://github.com/OpenZeppelin/openzeppelin-contracts/blob/e5c63635e3508a8d9d0afed091578cc4bb59a9c7/contracts/token/ERC20/ERC20.sol\":10790:10799  allowance */\n      tag_93\n        /* \"https://github.com/OpenZeppelin/openzeppelin-contracts/blob/e5c63635e3508a8d9d0afed091578cc4bb59a9c7/contracts/token/ERC20/ERC20.sol\":10790:10815  allowance(owner, spender) */\n      jump\t// in\n    tag_157:\n        /* \"https://github.com/OpenZeppelin/openzeppelin-contracts/blob/e5c63635e3508a8d9d0afed091578cc4bb59a9c7/contracts/token/ERC20/ERC20.sol\":10763:10815  uint256 currentAllowance = allowance(owner, spender) */\n      swap1\n      pop\n        /* \"https://github.com/OpenZeppelin/openzeppelin-contracts/blob/e5c63635e3508a8d9d0afed091578cc4bb59a9c7/contracts/token/ERC20/ERC20.sol\":10849:10866  type(uint256).max */\n      0xffffffffffffffffffffffffffffffffffffffffffffffffffffffffffffffff\n        /* \"https://github.com/OpenZeppelin/openzeppelin-contracts/blob/e5c63635e3508a8d9d0afed091578cc4bb59a9c7/contracts/token/ERC20/ERC20.sol\":10829:10845  currentAllowance */\n      dup2\n        /* \"https://github.com/OpenZeppelin/openzeppelin-contracts/blob/e5c63635e3508a8d9d0afed091578cc4bb59a9c7/contracts/token/ERC20/ERC20.sol\":10829:10866  currentAllowance != type(uint256).max */\n      eq\n        /* \"https://github.com/OpenZeppelin/openzeppelin-contracts/blob/e5c63635e3508a8d9d0afed091578cc4bb59a9c7/contracts/token/ERC20/ERC20.sol\":10825:11135  if (currentAllowance != type(uint256).max) {... */\n      tag_158\n      jumpi\n        /* \"https://github.com/OpenZeppelin/openzeppelin-contracts/blob/e5c63635e3508a8d9d0afed091578cc4bb59a9c7/contracts/token/ERC20/ERC20.sol\":10905:10910  value */\n      dup2\n        /* \"https://github.com/OpenZeppelin/openzeppelin-contracts/blob/e5c63635e3508a8d9d0afed091578cc4bb59a9c7/contracts/token/ERC20/ERC20.sol\":10886:10902  currentAllowance */\n      dup2\n        /* \"https://github.com/OpenZeppelin/openzeppelin-contracts/blob/e5c63635e3508a8d9d0afed091578cc4bb59a9c7/contracts/token/ERC20/ERC20.sol\":10886:10910  currentAllowance < value */\n      lt\n        /* \"https://github.com/OpenZeppelin/openzeppelin-contracts/blob/e5c63635e3508a8d9d0afed091578cc4bb59a9c7/contracts/token/ERC20/ERC20.sol\":10882:11012  if (currentAllowance < value) {... */\n      iszero\n      tag_159\n      jumpi\n        /* \"https://github.com/OpenZeppelin/openzeppelin-contracts/blob/e5c63635e3508a8d9d0afed091578cc4bb59a9c7/contracts/token/ERC20/ERC20.sol\":10964:10971  spender */\n      dup3\n        /* \"https://github.com/OpenZeppelin/openzeppelin-contracts/blob/e5c63635e3508a8d9d0afed091578cc4bb59a9c7/contracts/token/ERC20/ERC20.sol\":10973:10989  currentAllowance */\n      dup2\n        /* \"https://github.com/OpenZeppelin/openzeppelin-contracts/blob/e5c63635e3508a8d9d0afed091578cc4bb59a9c7/contracts/token/ERC20/ERC20.sol\":10991:10996  value */\n      dup4\n        /* \"https://github.com/OpenZeppelin/openzeppelin-contracts/blob/e5c63635e3508a8d9d0afed091578cc4bb59a9c7/contracts/token/ERC20/ERC20.sol\":10937:10997  ERC20InsufficientAllowance(spender, currentAllowance, value) */\n      mload(0x40)\n      0xfb8f41b200000000000000000000000000000000000000000000000000000000\n      dup2\n      mstore\n      0x04\n      add\n      tag_160\n      swap4\n      swap3\n      swap2\n      swap1\n      tag_161\n      jump\t// in\n    tag_160:\n      mload(0x40)\n      dup1\n      swap2\n      sub\n      swap1\n      revert\n        /* \"https://github.com/OpenZeppelin/openzeppelin-contracts/blob/e5c63635e3508a8d9d0afed091578cc4bb59a9c7/contracts/token/ERC20/ERC20.sol\":10882:11012  if (currentAllowance < value) {... */\n    tag_159:\n        /* \"https://github.com/OpenZeppelin/openzeppelin-contracts/blob/e5c63635e3508a8d9d0afed091578cc4bb59a9c7/contracts/token/ERC20/ERC20.sol\":11053:11110  _approve(owner, spender, currentAllowance - value, false) */\n      tag_162\n        /* \"https://github.com/OpenZeppelin/openzeppelin-contracts/blob/e5c63635e3508a8d9d0afed091578cc4bb59a9c7/contracts/token/ERC20/ERC20.sol\":11062:11067  owner */\n      dup5\n        /* \"https://github.com/OpenZeppelin/openzeppelin-contracts/blob/e5c63635e3508a8d9d0afed091578cc4bb59a9c7/contracts/token/ERC20/ERC20.sol\":11069:11076  spender */\n      dup5\n        /* \"https://github.com/OpenZeppelin/openzeppelin-contracts/blob/e5c63635e3508a8d9d0afed091578cc4bb59a9c7/contracts/token/ERC20/ERC20.sol\":11097:11102  value */\n      dup5\n        /* \"https://github.com/OpenZeppelin/openzeppelin-contracts/blob/e5c63635e3508a8d9d0afed091578cc4bb59a9c7/contracts/token/ERC20/ERC20.sol\":11078:11094  currentAllowance */\n      dup5\n        /* \"https://github.com/OpenZeppelin/openzeppelin-contracts/blob/e5c63635e3508a8d9d0afed091578cc4bb59a9c7/contracts/token/ERC20/ERC20.sol\":11078:11102  currentAllowance - value */\n      sub\n        /* \"https://github.com/OpenZeppelin/openzeppelin-contracts/blob/e5c63635e3508a8d9d0afed091578cc4bb59a9c7/contracts/token/ERC20/ERC20.sol\":11104:11109  false */\n      0x00\n        /* \"https://github.com/OpenZeppelin/openzeppelin-contracts/blob/e5c63635e3508a8d9d0afed091578cc4bb59a9c7/contracts/token/ERC20/ERC20.sol\":11053:11061  _approve */\n      tag_155\n        /* \"https://github.com/OpenZeppelin/openzeppelin-contracts/blob/e5c63635e3508a8d9d0afed091578cc4bb59a9c7/contracts/token/ERC20/ERC20.sol\":11053:11110  _approve(owner, spender, currentAllowance - value, false) */\n      jump\t// in\n    tag_162:\n        /* \"https://github.com/OpenZeppelin/openzeppelin-contracts/blob/e5c63635e3508a8d9d0afed091578cc4bb59a9c7/contracts/token/ERC20/ERC20.sol\":10825:11135  if (currentAllowance != type(uint256).max) {... */\n    tag_158:\n        /* \"https://github.com/OpenZeppelin/openzeppelin-contracts/blob/e5c63635e3508a8d9d0afed091578cc4bb59a9c7/contracts/token/ERC20/ERC20.sol\":10753:11141  {... */\n      pop\n        /* \"https://github.com/OpenZeppelin/openzeppelin-contracts/blob/e5c63635e3508a8d9d0afed091578cc4bb59a9c7/contracts/token/ERC20/ERC20.sol\":10664:11141  function _spendAllowance(address owner, address spender, uint256 value) internal virtual {... */\n      pop\n      pop\n      pop\n      jump\t// out\n        /* \"https://github.com/OpenZeppelin/openzeppelin-contracts/blob/e5c63635e3508a8d9d0afed091578cc4bb59a9c7/contracts/token/ERC20/ERC20.sol\":5657:5957  function _transfer(address from, address to, uint256 value) internal {... */\n    tag_116:\n        /* \"https://github.com/OpenZeppelin/openzeppelin-contracts/blob/e5c63635e3508a8d9d0afed091578cc4bb59a9c7/contracts/token/ERC20/ERC20.sol\":5756:5757  0 */\n      0x00\n        /* \"https://github.com/OpenZeppelin/openzeppelin-contracts/blob/e5c63635e3508a8d9d0afed091578cc4bb59a9c7/contracts/token/ERC20/ERC20.sol\":5740:5758  from == address(0) */\n      0xffffffffffffffffffffffffffffffffffffffff\n      and\n        /* \"https://github.com/OpenZeppelin/openzeppelin-contracts/blob/e5c63635e3508a8d9d0afed091578cc4bb59a9c7/contracts/token/ERC20/ERC20.sol\":5740:5744  from */\n      dup4\n        /* \"https://github.com/OpenZeppelin/openzeppelin-contracts/blob/e5c63635e3508a8d9d0afed091578cc4bb59a9c7/contracts/token/ERC20/ERC20.sol\":5740:5758  from == address(0) */\n      0xffffffffffffffffffffffffffffffffffffffff\n      and\n      sub\n        /* \"https://github.com/OpenZeppelin/openzeppelin-contracts/blob/e5c63635e3508a8d9d0afed091578cc4bb59a9c7/contracts/token/ERC20/ERC20.sol\":5736:5822  if (from == address(0)) {... */\n      tag_164\n      jumpi\n        /* \"https://github.com/OpenZeppelin/openzeppelin-contracts/blob/e5c63635e3508a8d9d0afed091578cc4bb59a9c7/contracts/token/ERC20/ERC20.sol\":5808:5809  0 */\n      0x00\n        /* \"https://github.com/OpenZeppelin/openzeppelin-contracts/blob/e5c63635e3508a8d9d0afed091578cc4bb59a9c7/contracts/token/ERC20/ERC20.sol\":5781:5811  ERC20InvalidSender(address(0)) */\n      mload(0x40)\n      0x96c6fd1e00000000000000000000000000000000000000000000000000000000\n      dup2\n      mstore\n      0x04\n      add\n      tag_165\n      swap2\n      swap1\n      tag_58\n      jump\t// in\n    tag_165:\n      mload(0x40)\n      dup1\n      swap2\n      sub\n      swap1\n      revert\n        /* \"https://github.com/OpenZeppelin/openzeppelin-contracts/blob/e5c63635e3508a8d9d0afed091578cc4bb59a9c7/contracts/token/ERC20/ERC20.sol\":5736:5822  if (from == address(0)) {... */\n    tag_164:\n        /* \"https://github.com/OpenZeppelin/openzeppelin-contracts/blob/e5c63635e3508a8d9d0afed091578cc4bb59a9c7/contracts/token/ERC20/ERC20.sol\":5849:5850  0 */\n      0x00\n        /* \"https://github.com/OpenZeppelin/openzeppelin-contracts/blob/e5c63635e3508a8d9d0afed091578cc4bb59a9c7/contracts/token/ERC20/ERC20.sol\":5835:5851  to == address(0) */\n      0xffffffffffffffffffffffffffffffffffffffff\n      and\n        /* \"https://github.com/OpenZeppelin/openzeppelin-contracts/blob/e5c63635e3508a8d9d0afed091578cc4bb59a9c7/contracts/token/ERC20/ERC20.sol\":5835:5837  to */\n      dup3\n        /* \"https://github.com/OpenZeppelin/openzeppelin-contracts/blob/e5c63635e3508a8d9d0afed091578cc4bb59a9c7/contracts/token/ERC20/ERC20.sol\":5835:5851  to == address(0) */\n      0xffffffffffffffffffffffffffffffffffffffff\n      and\n      sub\n        /* \"https://github.com/OpenZeppelin/openzeppelin-contracts/blob/e5c63635e3508a8d9d0afed091578cc4bb59a9c7/contracts/token/ERC20/ERC20.sol\":5831:5917  if (to == address(0)) {... */\n      tag_166\n      jumpi\n        /* \"https://github.com/OpenZeppelin/openzeppelin-contracts/blob/e5c63635e3508a8d9d0afed091578cc4bb59a9c7/contracts/token/ERC20/ERC20.sol\":5903:5904  0 */\n      0x00\n        /* \"https://github.com/OpenZeppelin/openzeppelin-contracts/blob/e5c63635e3508a8d9d0afed091578cc4bb59a9c7/contracts/token/ERC20/ERC20.sol\":5874:5906  ERC20InvalidReceiver(address(0)) */\n      mload(0x40)\n      0xec442f0500000000000000000000000000000000000000000000000000000000\n      dup2\n      mstore\n      0x04\n      add\n      tag_167\n      swap2\n      swap1\n      tag_58\n      jump\t// in\n    tag_167:\n      mload(0x40)\n      dup1\n      swap2\n      sub\n      swap1\n      revert\n        /* \"https://github.com/OpenZeppelin/openzeppelin-contracts/blob/e5c63635e3508a8d9d0afed091578cc4bb59a9c7/contracts/token/ERC20/ERC20.sol\":5831:5917  if (to == address(0)) {... */\n    tag_166:\n        /* \"https://github.com/OpenZeppelin/openzeppelin-contracts/blob/e5c63635e3508a8d9d0afed091578cc4bb59a9c7/contracts/token/ERC20/ERC20.sol\":5926:5950  _update(from, to, value) */\n      tag_168\n        /* \"https://github.com/OpenZeppelin/openzeppelin-contracts/blob/e5c63635e3508a8d9d0afed091578cc4bb59a9c7/contracts/token/ERC20/ERC20.sol\":5934:5938  from */\n      dup4\n        /* \"https://github.com/OpenZeppelin/openzeppelin-contracts/blob/e5c63635e3508a8d9d0afed091578cc4bb59a9c7/contracts/token/ERC20/ERC20.sol\":5940:5942  to */\n      dup4\n        /* \"https://github.com/OpenZeppelin/openzeppelin-contracts/blob/e5c63635e3508a8d9d0afed091578cc4bb59a9c7/contracts/token/ERC20/ERC20.sol\":5944:5949  value */\n      dup4\n        /* \"https://github.com/OpenZeppelin/openzeppelin-contracts/blob/e5c63635e3508a8d9d0afed091578cc4bb59a9c7/contracts/token/ERC20/ERC20.sol\":5926:5933  _update */\n      tag_169\n        /* \"https://github.com/OpenZeppelin/openzeppelin-contracts/blob/e5c63635e3508a8d9d0afed091578cc4bb59a9c7/contracts/token/ERC20/ERC20.sol\":5926:5950  _update(from, to, value) */\n      jump\t// in\n    tag_168:\n        /* \"https://github.com/OpenZeppelin/openzeppelin-contracts/blob/e5c63635e3508a8d9d0afed091578cc4bb59a9c7/contracts/token/ERC20/ERC20.sol\":5657:5957  function _transfer(address from, address to, uint256 value) internal {... */\n      pop\n      pop\n      pop\n      jump\t// out\n        /* \"https://github.com/OpenZeppelin/openzeppelin-contracts/blob/e5c63635e3508a8d9d0afed091578cc4bb59a9c7/contracts/token/ERC20/ERC20.sol\":7722:7930  function _mint(address account, uint256 value) internal {... */\n    tag_123:\n        /* \"https://github.com/OpenZeppelin/openzeppelin-contracts/blob/e5c63635e3508a8d9d0afed091578cc4bb59a9c7/contracts/token/ERC20/ERC20.sol\":7811:7812  0 */\n      0x00\n        /* \"https://github.com/OpenZeppelin/openzeppelin-contracts/blob/e5c63635e3508a8d9d0afed091578cc4bb59a9c7/contracts/token/ERC20/ERC20.sol\":7792:7813  account == address(0) */\n      0xffffffffffffffffffffffffffffffffffffffff\n      and\n        /* \"https://github.com/OpenZeppelin/openzeppelin-contracts/blob/e5c63635e3508a8d9d0afed091578cc4bb59a9c7/contracts/token/ERC20/ERC20.sol\":7792:7799  account */\n      dup3\n        /* \"https://github.com/OpenZeppelin/openzeppelin-contracts/blob/e5c63635e3508a8d9d0afed091578cc4bb59a9c7/contracts/token/ERC20/ERC20.sol\":7792:7813  account == address(0) */\n      0xffffffffffffffffffffffffffffffffffffffff\n      and\n      sub\n        /* \"https://github.com/OpenZeppelin/openzeppelin-contracts/blob/e5c63635e3508a8d9d0afed091578cc4bb59a9c7/contracts/token/ERC20/ERC20.sol\":7788:7879  if (account == address(0)) {... */\n      tag_171\n      jumpi\n        /* \"https://github.com/OpenZeppelin/openzeppelin-contracts/blob/e5c63635e3508a8d9d0afed091578cc4bb59a9c7/contracts/token/ERC20/ERC20.sol\":7865:7866  0 */\n      0x00\n        /* \"https://github.com/OpenZeppelin/openzeppelin-contracts/blob/e5c63635e3508a8d9d0afed091578cc4bb59a9c7/contracts/token/ERC20/ERC20.sol\":7836:7868  ERC20InvalidReceiver(address(0)) */\n      mload(0x40)\n      0xec442f0500000000000000000000000000000000000000000000000000000000\n      dup2\n      mstore\n      0x04\n      add\n      tag_172\n      swap2\n      swap1\n      tag_58\n      jump\t// in\n    tag_172:\n      mload(0x40)\n      dup1\n      swap2\n      sub\n      swap1\n      revert\n        /* \"https://github.com/OpenZeppelin/openzeppelin-contracts/blob/e5c63635e3508a8d9d0afed091578cc4bb59a9c7/contracts/token/ERC20/ERC20.sol\":7788:7879  if (account == address(0)) {... */\n    tag_171:\n        /* \"https://github.com/OpenZeppelin/openzeppelin-contracts/blob/e5c63635e3508a8d9d0afed091578cc4bb59a9c7/contracts/token/ERC20/ERC20.sol\":7888:7923  _update(address(0), account, value) */\n      tag_173\n        /* \"https://github.com/OpenZeppelin/openzeppelin-contracts/blob/e5c63635e3508a8d9d0afed091578cc4bb59a9c7/contracts/token/ERC20/ERC20.sol\":7904:7905  0 */\n      0x00\n        /* \"https://github.com/OpenZeppelin/openzeppelin-contracts/blob/e5c63635e3508a8d9d0afed091578cc4bb59a9c7/contracts/token/ERC20/ERC20.sol\":7908:7915  account */\n      dup4\n        /* \"https://github.com/OpenZeppelin/openzeppelin-contracts/blob/e5c63635e3508a8d9d0afed091578cc4bb59a9c7/contracts/token/ERC20/ERC20.sol\":7917:7922  value */\n      dup4\n        /* \"https://github.com/OpenZeppelin/openzeppelin-contracts/blob/e5c63635e3508a8d9d0afed091578cc4bb59a9c7/contracts/token/ERC20/ERC20.sol\":7888:7895  _update */\n      tag_169\n        /* \"https://github.com/OpenZeppelin/openzeppelin-contracts/blob/e5c63635e3508a8d9d0afed091578cc4bb59a9c7/contracts/token/ERC20/ERC20.sol\":7888:7923  _update(address(0), account, value) */\n      jump\t// in\n    tag_173:\n        /* \"https://github.com/OpenZeppelin/openzeppelin-contracts/blob/e5c63635e3508a8d9d0afed091578cc4bb59a9c7/contracts/token/ERC20/ERC20.sol\":7722:7930  function _mint(address account, uint256 value) internal {... */\n      pop\n      pop\n      jump\t// out\n        /* \"aitu_diana.sol\":1208:1535  function _addTransaction(address sender, address recipient, uint amount) internal {... */\n    tag_125:\n        /* \"aitu_diana.sol\":1335:1497  TransactionInfo({... */\n      mload(0x40)\n      dup1\n      0x80\n      add\n      0x40\n      mstore\n      dup1\n        /* \"aitu_diana.sol\":1374:1380  sender */\n      dup5\n        /* \"aitu_diana.sol\":1335:1497  TransactionInfo({... */\n      0xffffffffffffffffffffffffffffffffffffffff\n      and\n      dup2\n      mstore\n      0x20\n      add\n        /* \"aitu_diana.sol\":1406:1415  recipient */\n      dup4\n        /* \"aitu_diana.sol\":1335:1497  TransactionInfo({... */\n      0xffffffffffffffffffffffffffffffffffffffff\n      and\n      dup2\n      mstore\n      0x20\n      add\n        /* \"aitu_diana.sol\":1438:1444  amount */\n      dup3\n        /* \"aitu_diana.sol\":1335:1497  TransactionInfo({... */\n      dup2\n      mstore\n      0x20\n      add\n        /* \"aitu_diana.sol\":1470:1485  block.timestamp */\n      timestamp\n        /* \"aitu_diana.sol\":1335:1497  TransactionInfo({... */\n      dup2\n      mstore\n      pop\n        /* \"aitu_diana.sol\":1301:1313  transactions */\n      0x07\n        /* \"aitu_diana.sol\":1301:1332  transactions[totalTransactions] */\n      0x00\n        /* \"aitu_diana.sol\":1314:1331  totalTransactions */\n      sload(0x06)\n        /* \"aitu_diana.sol\":1301:1332  transactions[totalTransactions] */\n      dup2\n      mstore\n      0x20\n      add\n      swap1\n      dup2\n      mstore\n      0x20\n      add\n      0x00\n      keccak256\n        /* \"aitu_diana.sol\":1301:1497  transactions[totalTransactions] = TransactionInfo({... */\n      0x00\n      dup3\n      add\n      mload\n      dup2\n      0x00\n      add\n      exp(0x0100, 0x00)\n      dup2\n      sload\n      dup2\n      0xffffffffffffffffffffffffffffffffffffffff\n      mul\n      not\n      and\n      swap1\n      dup4\n      0xffffffffffffffffffffffffffffffffffffffff\n      and\n      mul\n      or\n      swap1\n      sstore\n      pop\n      0x20\n      dup3\n      add\n      mload\n      dup2\n      0x01\n      add\n      exp(0x0100, 0x00)\n      dup2\n      sload\n      dup2\n      0xffffffffffffffffffffffffffffffffffffffff\n      mul\n      not\n      and\n      swap1\n      dup4\n      0xffffffffffffffffffffffffffffffffffffffff\n      and\n      mul\n      or\n      swap1\n      sstore\n      pop\n      0x40\n      dup3\n      add\n      mload\n      dup2\n      0x02\n      add\n      sstore\n      0x60\n      dup3\n      add\n      mload\n      dup2\n      0x03\n      add\n      sstore\n      swap1\n      pop\n      pop\n        /* \"aitu_diana.sol\":1508:1525  totalTransactions */\n      0x06\n      0x00\n        /* \"aitu_diana.sol\":1508:1527  totalTransactions++ */\n      dup2\n      sload\n      dup1\n      swap3\n      swap2\n      swap1\n      tag_175\n      swap1\n      tag_176\n      jump\t// in\n    tag_175:\n      swap2\n      swap1\n      pop\n      sstore\n      pop\n        /* \"aitu_diana.sol\":1208:1535  function _addTransaction(address sender, address recipient, uint amount) internal {... */\n      pop\n      pop\n      pop\n      jump\t// out\n        /* \"https://github.com/OpenZeppelin/openzeppelin-contracts/blob/e5c63635e3508a8d9d0afed091578cc4bb59a9c7/contracts/token/ERC20/ERC20.sol\":8248:8454  function _burn(address account, uint256 value) internal {... */\n    tag_128:\n        /* \"https://github.com/OpenZeppelin/openzeppelin-contracts/blob/e5c63635e3508a8d9d0afed091578cc4bb59a9c7/contracts/token/ERC20/ERC20.sol\":8337:8338  0 */\n      0x00\n        /* \"https://github.com/OpenZeppelin/openzeppelin-contracts/blob/e5c63635e3508a8d9d0afed091578cc4bb59a9c7/contracts/token/ERC20/ERC20.sol\":8318:8339  account == address(0) */\n      0xffffffffffffffffffffffffffffffffffffffff\n      and\n        /* \"https://github.com/OpenZeppelin/openzeppelin-contracts/blob/e5c63635e3508a8d9d0afed091578cc4bb59a9c7/contracts/token/ERC20/ERC20.sol\":8318:8325  account */\n      dup3\n        /* \"https://github.com/OpenZeppelin/openzeppelin-contracts/blob/e5c63635e3508a8d9d0afed091578cc4bb59a9c7/contracts/token/ERC20/ERC20.sol\":8318:8339  account == address(0) */\n      0xffffffffffffffffffffffffffffffffffffffff\n      and\n      sub\n        /* \"https://github.com/OpenZeppelin/openzeppelin-contracts/blob/e5c63635e3508a8d9d0afed091578cc4bb59a9c7/contracts/token/ERC20/ERC20.sol\":8314:8403  if (account == address(0)) {... */\n      tag_178\n      jumpi\n        /* \"https://github.com/OpenZeppelin/openzeppelin-contracts/blob/e5c63635e3508a8d9d0afed091578cc4bb59a9c7/contracts/token/ERC20/ERC20.sol\":8389:8390  0 */\n      0x00\n        /* \"https://github.com/OpenZeppelin/openzeppelin-contracts/blob/e5c63635e3508a8d9d0afed091578cc4bb59a9c7/contracts/token/ERC20/ERC20.sol\":8362:8392  ERC20InvalidSender(address(0)) */\n      mload(0x40)\n      0x96c6fd1e00000000000000000000000000000000000000000000000000000000\n      dup2\n      mstore\n      0x04\n      add\n      tag_179\n      swap2\n      swap1\n      tag_58\n      jump\t// in\n    tag_179:\n      mload(0x40)\n      dup1\n      swap2\n      sub\n      swap1\n      revert\n        /* \"https://github.com/OpenZeppelin/openzeppelin-contracts/blob/e5c63635e3508a8d9d0afed091578cc4bb59a9c7/contracts/token/ERC20/ERC20.sol\":8314:8403  if (account == address(0)) {... */\n    tag_178:\n        /* \"https://github.com/OpenZeppelin/openzeppelin-contracts/blob/e5c63635e3508a8d9d0afed091578cc4bb59a9c7/contracts/token/ERC20/ERC20.sol\":8412:8447  _update(account, address(0), value) */\n      tag_180\n        /* \"https://github.com/OpenZeppelin/openzeppelin-contracts/blob/e5c63635e3508a8d9d0afed091578cc4bb59a9c7/contracts/token/ERC20/ERC20.sol\":8420:8427  account */\n      dup3\n        /* \"https://github.com/OpenZeppelin/openzeppelin-contracts/blob/e5c63635e3508a8d9d0afed091578cc4bb59a9c7/contracts/token/ERC20/ERC20.sol\":8437:8438  0 */\n      0x00\n        /* \"https://github.com/OpenZeppelin/openzeppelin-contracts/blob/e5c63635e3508a8d9d0afed091578cc4bb59a9c7/contracts/token/ERC20/ERC20.sol\":8441:8446  value */\n      dup4\n        /* \"https://github.com/OpenZeppelin/openzeppelin-contracts/blob/e5c63635e3508a8d9d0afed091578cc4bb59a9c7/contracts/token/ERC20/ERC20.sol\":8412:8419  _update */\n      tag_169\n        /* \"https://github.com/OpenZeppelin/openzeppelin-contracts/blob/e5c63635e3508a8d9d0afed091578cc4bb59a9c7/contracts/token/ERC20/ERC20.sol\":8412:8447  _update(account, address(0), value) */\n      jump\t// in\n    tag_180:\n        /* \"https://github.com/OpenZeppelin/openzeppelin-contracts/blob/e5c63635e3508a8d9d0afed091578cc4bb59a9c7/contracts/token/ERC20/ERC20.sol\":8248:8454  function _burn(address account, uint256 value) internal {... */\n      pop\n      pop\n      jump\t// out\n        /* \"https://github.com/bokkypoobah/BokkyPooBahsDateTimeLibrary/blob/1dc26f977c57a6ba3ed6d7c53cafdb191e7e59ae/contracts/BokkyPooBahsDateTimeLibrary.sol\":4573:5006  function timestampToDateTime(uint timestamp) internal pure returns (uint year, uint month, uint day, uint hour, uint minute, uint second) {... */\n    tag_147:\n        /* \"https://github.com/bokkypoobah/BokkyPooBahsDateTimeLibrary/blob/1dc26f977c57a6ba3ed6d7c53cafdb191e7e59ae/contracts/BokkyPooBahsDateTimeLibrary.sol\":4641:4650  uint year */\n      0x00\n        /* \"https://github.com/bokkypoobah/BokkyPooBahsDateTimeLibrary/blob/1dc26f977c57a6ba3ed6d7c53cafdb191e7e59ae/contracts/BokkyPooBahsDateTimeLibrary.sol\":4652:4662  uint month */\n      dup1\n        /* \"https://github.com/bokkypoobah/BokkyPooBahsDateTimeLibrary/blob/1dc26f977c57a6ba3ed6d7c53cafdb191e7e59ae/contracts/BokkyPooBahsDateTimeLibrary.sol\":4664:4672  uint day */\n      0x00\n        /* \"https://github.com/bokkypoobah/BokkyPooBahsDateTimeLibrary/blob/1dc26f977c57a6ba3ed6d7c53cafdb191e7e59ae/contracts/BokkyPooBahsDateTimeLibrary.sol\":4674:4683  uint hour */\n      dup1\n        /* \"https://github.com/bokkypoobah/BokkyPooBahsDateTimeLibrary/blob/1dc26f977c57a6ba3ed6d7c53cafdb191e7e59ae/contracts/BokkyPooBahsDateTimeLibrary.sol\":4685:4696  uint minute */\n      0x00\n        /* \"https://github.com/bokkypoobah/BokkyPooBahsDateTimeLibrary/blob/1dc26f977c57a6ba3ed6d7c53cafdb191e7e59ae/contracts/BokkyPooBahsDateTimeLibrary.sol\":4698:4709  uint second */\n      dup1\n        /* \"https://github.com/bokkypoobah/BokkyPooBahsDateTimeLibrary/blob/1dc26f977c57a6ba3ed6d7c53cafdb191e7e59ae/contracts/BokkyPooBahsDateTimeLibrary.sol\":4742:4782  _daysToDate(timestamp / SECONDS_PER_DAY) */\n      tag_182\n        /* \"https://github.com/bokkypoobah/BokkyPooBahsDateTimeLibrary/blob/1dc26f977c57a6ba3ed6d7c53cafdb191e7e59ae/contracts/BokkyPooBahsDateTimeLibrary.sol\":1026:1038  24 * 60 * 60 */\n      0x015180\n        /* \"https://github.com/bokkypoobah/BokkyPooBahsDateTimeLibrary/blob/1dc26f977c57a6ba3ed6d7c53cafdb191e7e59ae/contracts/BokkyPooBahsDateTimeLibrary.sol\":4754:4763  timestamp */\n      dup9\n        /* \"https://github.com/bokkypoobah/BokkyPooBahsDateTimeLibrary/blob/1dc26f977c57a6ba3ed6d7c53cafdb191e7e59ae/contracts/BokkyPooBahsDateTimeLibrary.sol\":4754:4781  timestamp / SECONDS_PER_DAY */\n      tag_183\n      swap2\n      swap1\n      tag_184\n      jump\t// in\n    tag_183:\n        /* \"https://github.com/bokkypoobah/BokkyPooBahsDateTimeLibrary/blob/1dc26f977c57a6ba3ed6d7c53cafdb191e7e59ae/contracts/BokkyPooBahsDateTimeLibrary.sol\":4742:4753  _daysToDate */\n      tag_185\n        /* \"https://github.com/bokkypoobah/BokkyPooBahsDateTimeLibrary/blob/1dc26f977c57a6ba3ed6d7c53cafdb191e7e59ae/contracts/BokkyPooBahsDateTimeLibrary.sol\":4742:4782  _daysToDate(timestamp / SECONDS_PER_DAY) */\n      jump\t// in\n    tag_182:\n        /* \"https://github.com/bokkypoobah/BokkyPooBahsDateTimeLibrary/blob/1dc26f977c57a6ba3ed6d7c53cafdb191e7e59ae/contracts/BokkyPooBahsDateTimeLibrary.sol\":4721:4782  (year, month, day) = _daysToDate(timestamp / SECONDS_PER_DAY) */\n      dup1\n      swap7\n      pop\n      dup2\n      swap8\n      pop\n      dup3\n      swap9\n      pop\n      pop\n      pop\n      pop\n        /* \"https://github.com/bokkypoobah/BokkyPooBahsDateTimeLibrary/blob/1dc26f977c57a6ba3ed6d7c53cafdb191e7e59ae/contracts/BokkyPooBahsDateTimeLibrary.sol\":4792:4801  uint secs */\n      0x00\n        /* \"https://github.com/bokkypoobah/BokkyPooBahsDateTimeLibrary/blob/1dc26f977c57a6ba3ed6d7c53cafdb191e7e59ae/contracts/BokkyPooBahsDateTimeLibrary.sol\":1026:1038  24 * 60 * 60 */\n      0x015180\n        /* \"https://github.com/bokkypoobah/BokkyPooBahsDateTimeLibrary/blob/1dc26f977c57a6ba3ed6d7c53cafdb191e7e59ae/contracts/BokkyPooBahsDateTimeLibrary.sol\":4804:4813  timestamp */\n      dup9\n        /* \"https://github.com/bokkypoobah/BokkyPooBahsDateTimeLibrary/blob/1dc26f977c57a6ba3ed6d7c53cafdb191e7e59ae/contracts/BokkyPooBahsDateTimeLibrary.sol\":4804:4831  timestamp % SECONDS_PER_DAY */\n      tag_186\n      swap2\n      swap1\n      tag_187\n      jump\t// in\n    tag_186:\n        /* \"https://github.com/bokkypoobah/BokkyPooBahsDateTimeLibrary/blob/1dc26f977c57a6ba3ed6d7c53cafdb191e7e59ae/contracts/BokkyPooBahsDateTimeLibrary.sol\":4792:4831  uint secs = timestamp % SECONDS_PER_DAY */\n      swap1\n      pop\n        /* \"https://github.com/bokkypoobah/BokkyPooBahsDateTimeLibrary/blob/1dc26f977c57a6ba3ed6d7c53cafdb191e7e59ae/contracts/BokkyPooBahsDateTimeLibrary.sol\":1077:1084  60 * 60 */\n      0x0e10\n        /* \"https://github.com/bokkypoobah/BokkyPooBahsDateTimeLibrary/blob/1dc26f977c57a6ba3ed6d7c53cafdb191e7e59ae/contracts/BokkyPooBahsDateTimeLibrary.sol\":4848:4852  secs */\n      dup2\n        /* \"https://github.com/bokkypoobah/BokkyPooBahsDateTimeLibrary/blob/1dc26f977c57a6ba3ed6d7c53cafdb191e7e59ae/contracts/BokkyPooBahsDateTimeLibrary.sol\":4848:4871  secs / SECONDS_PER_HOUR */\n      tag_188\n      swap2\n      swap1\n      tag_184\n      jump\t// in\n    tag_188:\n        /* \"https://github.com/bokkypoobah/BokkyPooBahsDateTimeLibrary/blob/1dc26f977c57a6ba3ed6d7c53cafdb191e7e59ae/contracts/BokkyPooBahsDateTimeLibrary.sol\":4841:4871  hour = secs / SECONDS_PER_HOUR */\n      swap4\n      pop\n        /* \"https://github.com/bokkypoobah/BokkyPooBahsDateTimeLibrary/blob/1dc26f977c57a6ba3ed6d7c53cafdb191e7e59ae/contracts/BokkyPooBahsDateTimeLibrary.sol\":1077:1084  60 * 60 */\n      0x0e10\n        /* \"https://github.com/bokkypoobah/BokkyPooBahsDateTimeLibrary/blob/1dc26f977c57a6ba3ed6d7c53cafdb191e7e59ae/contracts/BokkyPooBahsDateTimeLibrary.sol\":4888:4892  secs */\n      dup2\n        /* \"https://github.com/bokkypoobah/BokkyPooBahsDateTimeLibrary/blob/1dc26f977c57a6ba3ed6d7c53cafdb191e7e59ae/contracts/BokkyPooBahsDateTimeLibrary.sol\":4888:4911  secs % SECONDS_PER_HOUR */\n      tag_189\n      swap2\n      swap1\n      tag_187\n      jump\t// in\n    tag_189:\n        /* \"https://github.com/bokkypoobah/BokkyPooBahsDateTimeLibrary/blob/1dc26f977c57a6ba3ed6d7c53cafdb191e7e59ae/contracts/BokkyPooBahsDateTimeLibrary.sol\":4881:4911  secs = secs % SECONDS_PER_HOUR */\n      swap1\n      pop\n        /* \"https://github.com/bokkypoobah/BokkyPooBahsDateTimeLibrary/blob/1dc26f977c57a6ba3ed6d7c53cafdb191e7e59ae/contracts/BokkyPooBahsDateTimeLibrary.sol\":1125:1127  60 */\n      0x3c\n        /* \"https://github.com/bokkypoobah/BokkyPooBahsDateTimeLibrary/blob/1dc26f977c57a6ba3ed6d7c53cafdb191e7e59ae/contracts/BokkyPooBahsDateTimeLibrary.sol\":4930:4934  secs */\n      dup2\n        /* \"https://github.com/bokkypoobah/BokkyPooBahsDateTimeLibrary/blob/1dc26f977c57a6ba3ed6d7c53cafdb191e7e59ae/contracts/BokkyPooBahsDateTimeLibrary.sol\":4930:4955  secs / SECONDS_PER_MINUTE */\n      tag_190\n      swap2\n      swap1\n      tag_184\n      jump\t// in\n    tag_190:\n        /* \"https://github.com/bokkypoobah/BokkyPooBahsDateTimeLibrary/blob/1dc26f977c57a6ba3ed6d7c53cafdb191e7e59ae/contracts/BokkyPooBahsDateTimeLibrary.sol\":4921:4955  minute = secs / SECONDS_PER_MINUTE */\n      swap3\n      pop\n        /* \"https://github.com/bokkypoobah/BokkyPooBahsDateTimeLibrary/blob/1dc26f977c57a6ba3ed6d7c53cafdb191e7e59ae/contracts/BokkyPooBahsDateTimeLibrary.sol\":1125:1127  60 */\n      0x3c\n        /* \"https://github.com/bokkypoobah/BokkyPooBahsDateTimeLibrary/blob/1dc26f977c57a6ba3ed6d7c53cafdb191e7e59ae/contracts/BokkyPooBahsDateTimeLibrary.sol\":4974:4978  secs */\n      dup2\n        /* \"https://github.com/bokkypoobah/BokkyPooBahsDateTimeLibrary/blob/1dc26f977c57a6ba3ed6d7c53cafdb191e7e59ae/contracts/BokkyPooBahsDateTimeLibrary.sol\":4974:4999  secs % SECONDS_PER_MINUTE */\n      tag_191\n      swap2\n      swap1\n      tag_187\n      jump\t// in\n    tag_191:\n        /* \"https://github.com/bokkypoobah/BokkyPooBahsDateTimeLibrary/blob/1dc26f977c57a6ba3ed6d7c53cafdb191e7e59ae/contracts/BokkyPooBahsDateTimeLibrary.sol\":4965:4999  second = secs % SECONDS_PER_MINUTE */\n      swap2\n      pop\n        /* \"https://github.com/bokkypoobah/BokkyPooBahsDateTimeLibrary/blob/1dc26f977c57a6ba3ed6d7c53cafdb191e7e59ae/contracts/BokkyPooBahsDateTimeLibrary.sol\":4711:5006  {... */\n      pop\n        /* \"https://github.com/bokkypoobah/BokkyPooBahsDateTimeLibrary/blob/1dc26f977c57a6ba3ed6d7c53cafdb191e7e59ae/contracts/BokkyPooBahsDateTimeLibrary.sol\":4573:5006  function timestampToDateTime(uint timestamp) internal pure returns (uint year, uint month, uint day, uint hour, uint minute, uint second) {... */\n      swap2\n      swap4\n      swap6\n      pop\n      swap2\n      swap4\n      swap6\n      jump\t// out\n        /* \"https://github.com/OpenZeppelin/openzeppelin-contracts/blob/e5c63635e3508a8d9d0afed091578cc4bb59a9c7/contracts/token/ERC20/ERC20.sol\":9950:10382  function _approve(address owner, address spender, uint256 value, bool emitEvent) internal virtual {... */\n    tag_155:\n        /* \"https://github.com/OpenZeppelin/openzeppelin-contracts/blob/e5c63635e3508a8d9d0afed091578cc4bb59a9c7/contracts/token/ERC20/ERC20.sol\":10079:10080  0 */\n      0x00\n        /* \"https://github.com/OpenZeppelin/openzeppelin-contracts/blob/e5c63635e3508a8d9d0afed091578cc4bb59a9c7/contracts/token/ERC20/ERC20.sol\":10062:10081  owner == address(0) */\n      0xffffffffffffffffffffffffffffffffffffffff\n      and\n        /* \"https://github.com/OpenZeppelin/openzeppelin-contracts/blob/e5c63635e3508a8d9d0afed091578cc4bb59a9c7/contracts/token/ERC20/ERC20.sol\":10062:10067  owner */\n      dup5\n        /* \"https://github.com/OpenZeppelin/openzeppelin-contracts/blob/e5c63635e3508a8d9d0afed091578cc4bb59a9c7/contracts/token/ERC20/ERC20.sol\":10062:10081  owner == address(0) */\n      0xffffffffffffffffffffffffffffffffffffffff\n      and\n      sub\n        /* \"https://github.com/OpenZeppelin/openzeppelin-contracts/blob/e5c63635e3508a8d9d0afed091578cc4bb59a9c7/contracts/token/ERC20/ERC20.sol\":10058:10147  if (owner == address(0)) {... */\n      tag_193\n      jumpi\n        /* \"https://github.com/OpenZeppelin/openzeppelin-contracts/blob/e5c63635e3508a8d9d0afed091578cc4bb59a9c7/contracts/token/ERC20/ERC20.sol\":10133:10134  0 */\n      0x00\n        /* \"https://github.com/OpenZeppelin/openzeppelin-contracts/blob/e5c63635e3508a8d9d0afed091578cc4bb59a9c7/contracts/token/ERC20/ERC20.sol\":10104:10136  ERC20InvalidApprover(address(0)) */\n      mload(0x40)\n      0xe602df0500000000000000000000000000000000000000000000000000000000\n      dup2\n      mstore\n      0x04\n      add\n      tag_194\n      swap2\n      swap1\n      tag_58\n      jump\t// in\n    tag_194:\n      mload(0x40)\n      dup1\n      swap2\n      sub\n      swap1\n      revert\n        /* \"https://github.com/OpenZeppelin/openzeppelin-contracts/blob/e5c63635e3508a8d9d0afed091578cc4bb59a9c7/contracts/token/ERC20/ERC20.sol\":10058:10147  if (owner == address(0)) {... */\n    tag_193:\n        /* \"https://github.com/OpenZeppelin/openzeppelin-contracts/blob/e5c63635e3508a8d9d0afed091578cc4bb59a9c7/contracts/token/ERC20/ERC20.sol\":10179:10180  0 */\n      0x00\n        /* \"https://github.com/OpenZeppelin/openzeppelin-contracts/blob/e5c63635e3508a8d9d0afed091578cc4bb59a9c7/contracts/token/ERC20/ERC20.sol\":10160:10181  spender == address(0) */\n      0xffffffffffffffffffffffffffffffffffffffff\n      and\n        /* \"https://github.com/OpenZeppelin/openzeppelin-contracts/blob/e5c63635e3508a8d9d0afed091578cc4bb59a9c7/contracts/token/ERC20/ERC20.sol\":10160:10167  spender */\n      dup4\n        /* \"https://github.com/OpenZeppelin/openzeppelin-contracts/blob/e5c63635e3508a8d9d0afed091578cc4bb59a9c7/contracts/token/ERC20/ERC20.sol\":10160:10181  spender == address(0) */\n      0xffffffffffffffffffffffffffffffffffffffff\n      and\n      sub\n        /* \"https://github.com/OpenZeppelin/openzeppelin-contracts/blob/e5c63635e3508a8d9d0afed091578cc4bb59a9c7/contracts/token/ERC20/ERC20.sol\":10156:10246  if (spender == address(0)) {... */\n      tag_195\n      jumpi\n        /* \"https://github.com/OpenZeppelin/openzeppelin-contracts/blob/e5c63635e3508a8d9d0afed091578cc4bb59a9c7/contracts/token/ERC20/ERC20.sol\":10232:10233  0 */\n      0x00\n        /* \"https://github.com/OpenZeppelin/openzeppelin-contracts/blob/e5c63635e3508a8d9d0afed091578cc4bb59a9c7/contracts/token/ERC20/ERC20.sol\":10204:10235  ERC20InvalidSpender(address(0)) */\n      mload(0x40)\n      0x94280d6200000000000000000000000000000000000000000000000000000000\n      dup2\n      mstore\n      0x04\n      add\n      tag_196\n      swap2\n      swap1\n      tag_58\n      jump\t// in\n    tag_196:\n      mload(0x40)\n      dup1\n      swap2\n      sub\n      swap1\n      revert\n        /* \"https://github.com/OpenZeppelin/openzeppelin-contracts/blob/e5c63635e3508a8d9d0afed091578cc4bb59a9c7/contracts/token/ERC20/ERC20.sol\":10156:10246  if (spender == address(0)) {... */\n    tag_195:\n        /* \"https://github.com/OpenZeppelin/openzeppelin-contracts/blob/e5c63635e3508a8d9d0afed091578cc4bb59a9c7/contracts/token/ERC20/ERC20.sol\":10285:10290  value */\n      dup2\n        /* \"https://github.com/OpenZeppelin/openzeppelin-contracts/blob/e5c63635e3508a8d9d0afed091578cc4bb59a9c7/contracts/token/ERC20/ERC20.sol\":10255:10266  _allowances */\n      0x01\n        /* \"https://github.com/OpenZeppelin/openzeppelin-contracts/blob/e5c63635e3508a8d9d0afed091578cc4bb59a9c7/contracts/token/ERC20/ERC20.sol\":10255:10273  _allowances[owner] */\n      0x00\n        /* \"https://github.com/OpenZeppelin/openzeppelin-contracts/blob/e5c63635e3508a8d9d0afed091578cc4bb59a9c7/contracts/token/ERC20/ERC20.sol\":10267:10272  owner */\n      dup7\n        /* \"https://github.com/OpenZeppelin/openzeppelin-contracts/blob/e5c63635e3508a8d9d0afed091578cc4bb59a9c7/contracts/token/ERC20/ERC20.sol\":10255:10273  _allowances[owner] */\n      0xffffffffffffffffffffffffffffffffffffffff\n      and\n      0xffffffffffffffffffffffffffffffffffffffff\n      and\n      dup2\n      mstore\n      0x20\n      add\n      swap1\n      dup2\n      mstore\n      0x20\n      add\n      0x00\n      keccak256\n        /* \"https://github.com/OpenZeppelin/openzeppelin-contracts/blob/e5c63635e3508a8d9d0afed091578cc4bb59a9c7/contracts/token/ERC20/ERC20.sol\":10255:10282  _allowances[owner][spender] */\n      0x00\n        /* \"https://github.com/OpenZeppelin/openzeppelin-contracts/blob/e5c63635e3508a8d9d0afed091578cc4bb59a9c7/contracts/token/ERC20/ERC20.sol\":10274:10281  spender */\n      dup6\n        /* \"https://github.com/OpenZeppelin/openzeppelin-contracts/blob/e5c63635e3508a8d9d0afed091578cc4bb59a9c7/contracts/token/ERC20/ERC20.sol\":10255:10282  _allowances[owner][spender] */\n      0xffffffffffffffffffffffffffffffffffffffff\n      and\n      0xffffffffffffffffffffffffffffffffffffffff\n      and\n      dup2\n      mstore\n      0x20\n      add\n      swap1\n      dup2\n      mstore\n      0x20\n      add\n      0x00\n      keccak256\n        /* \"https://github.com/OpenZeppelin/openzeppelin-contracts/blob/e5c63635e3508a8d9d0afed091578cc4bb59a9c7/contracts/token/ERC20/ERC20.sol\":10255:10290  _allowances[owner][spender] = value */\n      dup2\n      swap1\n      sstore\n      pop\n        /* \"https://github.com/OpenZeppelin/openzeppelin-contracts/blob/e5c63635e3508a8d9d0afed091578cc4bb59a9c7/contracts/token/ERC20/ERC20.sol\":10304:10313  emitEvent */\n      dup1\n        /* \"https://github.com/OpenZeppelin/openzeppelin-contracts/blob/e5c63635e3508a8d9d0afed091578cc4bb59a9c7/contracts/token/ERC20/ERC20.sol\":10300:10376  if (emitEvent) {... */\n      iszero\n      tag_197\n      jumpi\n        /* \"https://github.com/OpenZeppelin/openzeppelin-contracts/blob/e5c63635e3508a8d9d0afed091578cc4bb59a9c7/contracts/token/ERC20/ERC20.sol\":10350:10357  spender */\n      dup3\n        /* \"https://github.com/OpenZeppelin/openzeppelin-contracts/blob/e5c63635e3508a8d9d0afed091578cc4bb59a9c7/contracts/token/ERC20/ERC20.sol\":10334:10365  Approval(owner, spender, value) */\n      0xffffffffffffffffffffffffffffffffffffffff\n      and\n        /* \"https://github.com/OpenZeppelin/openzeppelin-contracts/blob/e5c63635e3508a8d9d0afed091578cc4bb59a9c7/contracts/token/ERC20/ERC20.sol\":10343:10348  owner */\n      dup5\n        /* \"https://github.com/OpenZeppelin/openzeppelin-contracts/blob/e5c63635e3508a8d9d0afed091578cc4bb59a9c7/contracts/token/ERC20/ERC20.sol\":10334:10365  Approval(owner, spender, value) */\n      0xffffffffffffffffffffffffffffffffffffffff\n      and\n      0x8c5be1e5ebec7d5bd14f71427d1e84f3dd0314c0f7b2291e5b200ac8c7c3b925\n        /* \"https://github.com/OpenZeppelin/openzeppelin-contracts/blob/e5c63635e3508a8d9d0afed091578cc4bb59a9c7/contracts/token/ERC20/ERC20.sol\":10359:10364  value */\n      dup5\n        /* \"https://github.com/OpenZeppelin/openzeppelin-contracts/blob/e5c63635e3508a8d9d0afed091578cc4bb59a9c7/contracts/token/ERC20/ERC20.sol\":10334:10365  Approval(owner, spender, value) */\n      mload(0x40)\n      tag_198\n      swap2\n      swap1\n      tag_37\n      jump\t// in\n    tag_198:\n      mload(0x40)\n      dup1\n      swap2\n      sub\n      swap1\n      log3\n        /* \"https://github.com/OpenZeppelin/openzeppelin-contracts/blob/e5c63635e3508a8d9d0afed091578cc4bb59a9c7/contracts/token/ERC20/ERC20.sol\":10300:10376  if (emitEvent) {... */\n    tag_197:\n        /* \"https://github.com/OpenZeppelin/openzeppelin-contracts/blob/e5c63635e3508a8d9d0afed091578cc4bb59a9c7/contracts/token/ERC20/ERC20.sol\":9950:10382  function _approve(address owner, address spender, uint256 value, bool emitEvent) internal virtual {... */\n      pop\n      pop\n      pop\n      pop\n      jump\t// out\n        /* \"https://github.com/OpenZeppelin/openzeppelin-contracts/blob/e5c63635e3508a8d9d0afed091578cc4bb59a9c7/contracts/token/ERC20/ERC20.sol\":6272:7379  function _update(address from, address to, uint256 value) internal virtual {... */\n    tag_169:\n        /* \"https://github.com/OpenZeppelin/openzeppelin-contracts/blob/e5c63635e3508a8d9d0afed091578cc4bb59a9c7/contracts/token/ERC20/ERC20.sol\":6377:6378  0 */\n      0x00\n        /* \"https://github.com/OpenZeppelin/openzeppelin-contracts/blob/e5c63635e3508a8d9d0afed091578cc4bb59a9c7/contracts/token/ERC20/ERC20.sol\":6361:6379  from == address(0) */\n      0xffffffffffffffffffffffffffffffffffffffff\n      and\n        /* \"https://github.com/OpenZeppelin/openzeppelin-contracts/blob/e5c63635e3508a8d9d0afed091578cc4bb59a9c7/contracts/token/ERC20/ERC20.sol\":6361:6365  from */\n      dup4\n        /* \"https://github.com/OpenZeppelin/openzeppelin-contracts/blob/e5c63635e3508a8d9d0afed091578cc4bb59a9c7/contracts/token/ERC20/ERC20.sol\":6361:6379  from == address(0) */\n      0xffffffffffffffffffffffffffffffffffffffff\n      and\n      sub\n        /* \"https://github.com/OpenZeppelin/openzeppelin-contracts/blob/e5c63635e3508a8d9d0afed091578cc4bb59a9c7/contracts/token/ERC20/ERC20.sol\":6357:6897  if (from == address(0)) {... */\n      tag_200\n      jumpi\n        /* \"https://github.com/OpenZeppelin/openzeppelin-contracts/blob/e5c63635e3508a8d9d0afed091578cc4bb59a9c7/contracts/token/ERC20/ERC20.sol\":6513:6518  value */\n      dup1\n        /* \"https://github.com/OpenZeppelin/openzeppelin-contracts/blob/e5c63635e3508a8d9d0afed091578cc4bb59a9c7/contracts/token/ERC20/ERC20.sol\":6497:6509  _totalSupply */\n      0x02\n      0x00\n        /* \"https://github.com/OpenZeppelin/openzeppelin-contracts/blob/e5c63635e3508a8d9d0afed091578cc4bb59a9c7/contracts/token/ERC20/ERC20.sol\":6497:6518  _totalSupply += value */\n      dup3\n      dup3\n      sload\n      tag_201\n      swap2\n      swap1\n      tag_202\n      jump\t// in\n    tag_201:\n      swap3\n      pop\n      pop\n      dup2\n      swap1\n      sstore\n      pop\n        /* \"https://github.com/OpenZeppelin/openzeppelin-contracts/blob/e5c63635e3508a8d9d0afed091578cc4bb59a9c7/contracts/token/ERC20/ERC20.sol\":6357:6897  if (from == address(0)) {... */\n      jump(tag_203)\n    tag_200:\n        /* \"https://github.com/OpenZeppelin/openzeppelin-contracts/blob/e5c63635e3508a8d9d0afed091578cc4bb59a9c7/contracts/token/ERC20/ERC20.sol\":6549:6568  uint256 fromBalance */\n      0x00\n        /* \"https://github.com/OpenZeppelin/openzeppelin-contracts/blob/e5c63635e3508a8d9d0afed091578cc4bb59a9c7/contracts/token/ERC20/ERC20.sol\":6571:6580  _balances */\n      dup1\n        /* \"https://github.com/OpenZeppelin/openzeppelin-contracts/blob/e5c63635e3508a8d9d0afed091578cc4bb59a9c7/contracts/token/ERC20/ERC20.sol\":6571:6586  _balances[from] */\n      0x00\n        /* \"https://github.com/OpenZeppelin/openzeppelin-contracts/blob/e5c63635e3508a8d9d0afed091578cc4bb59a9c7/contracts/token/ERC20/ERC20.sol\":6581:6585  from */\n      dup6\n        /* \"https://github.com/OpenZeppelin/openzeppelin-contracts/blob/e5c63635e3508a8d9d0afed091578cc4bb59a9c7/contracts/token/ERC20/ERC20.sol\":6571:6586  _balances[from] */\n      0xffffffffffffffffffffffffffffffffffffffff\n      and\n      0xffffffffffffffffffffffffffffffffffffffff\n      and\n      dup2\n      mstore\n      0x20\n      add\n      swap1\n      dup2\n      mstore\n      0x20\n      add\n      0x00\n      keccak256\n      sload\n        /* \"https://github.com/OpenZeppelin/openzeppelin-contracts/blob/e5c63635e3508a8d9d0afed091578cc4bb59a9c7/contracts/token/ERC20/ERC20.sol\":6549:6586  uint256 fromBalance = _balances[from] */\n      swap1\n      pop\n        /* \"https://github.com/OpenZeppelin/openzeppelin-contracts/blob/e5c63635e3508a8d9d0afed091578cc4bb59a9c7/contracts/token/ERC20/ERC20.sol\":6618:6623  value */\n      dup2\n        /* \"https://github.com/OpenZeppelin/openzeppelin-contracts/blob/e5c63635e3508a8d9d0afed091578cc4bb59a9c7/contracts/token/ERC20/ERC20.sol\":6604:6615  fromBalance */\n      dup2\n        /* \"https://github.com/OpenZeppelin/openzeppelin-contracts/blob/e5c63635e3508a8d9d0afed091578cc4bb59a9c7/contracts/token/ERC20/ERC20.sol\":6604:6623  fromBalance < value */\n      lt\n        /* \"https://github.com/OpenZeppelin/openzeppelin-contracts/blob/e5c63635e3508a8d9d0afed091578cc4bb59a9c7/contracts/token/ERC20/ERC20.sol\":6600:6715  if (fromBalance < value) {... */\n      iszero\n      tag_204\n      jumpi\n        /* \"https://github.com/OpenZeppelin/openzeppelin-contracts/blob/e5c63635e3508a8d9d0afed091578cc4bb59a9c7/contracts/token/ERC20/ERC20.sol\":6675:6679  from */\n      dup4\n        /* \"https://github.com/OpenZeppelin/openzeppelin-contracts/blob/e5c63635e3508a8d9d0afed091578cc4bb59a9c7/contracts/token/ERC20/ERC20.sol\":6681:6692  fromBalance */\n      dup2\n        /* \"https://github.com/OpenZeppelin/openzeppelin-contracts/blob/e5c63635e3508a8d9d0afed091578cc4bb59a9c7/contracts/token/ERC20/ERC20.sol\":6694:6699  value */\n      dup4\n        /* \"https://github.com/OpenZeppelin/openzeppelin-contracts/blob/e5c63635e3508a8d9d0afed091578cc4bb59a9c7/contracts/token/ERC20/ERC20.sol\":6650:6700  ERC20InsufficientBalance(from, fromBalance, value) */\n      mload(0x40)\n      0xe450d38c00000000000000000000000000000000000000000000000000000000\n      dup2\n      mstore\n      0x04\n      add\n      tag_205\n      swap4\n      swap3\n      swap2\n      swap1\n      tag_161\n      jump\t// in\n    tag_205:\n      mload(0x40)\n      dup1\n      swap2\n      sub\n      swap1\n      revert\n        /* \"https://github.com/OpenZeppelin/openzeppelin-contracts/blob/e5c63635e3508a8d9d0afed091578cc4bb59a9c7/contracts/token/ERC20/ERC20.sol\":6600:6715  if (fromBalance < value) {... */\n    tag_204:\n        /* \"https://github.com/OpenZeppelin/openzeppelin-contracts/blob/e5c63635e3508a8d9d0afed091578cc4bb59a9c7/contracts/token/ERC20/ERC20.sol\":6867:6872  value */\n      dup2\n        /* \"https://github.com/OpenZeppelin/openzeppelin-contracts/blob/e5c63635e3508a8d9d0afed091578cc4bb59a9c7/contracts/token/ERC20/ERC20.sol\":6853:6864  fromBalance */\n      dup2\n        /* \"https://github.com/OpenZeppelin/openzeppelin-contracts/blob/e5c63635e3508a8d9d0afed091578cc4bb59a9c7/contracts/token/ERC20/ERC20.sol\":6853:6872  fromBalance - value */\n      sub\n        /* \"https://github.com/OpenZeppelin/openzeppelin-contracts/blob/e5c63635e3508a8d9d0afed091578cc4bb59a9c7/contracts/token/ERC20/ERC20.sol\":6835:6844  _balances */\n      0x00\n        /* \"https://github.com/OpenZeppelin/openzeppelin-contracts/blob/e5c63635e3508a8d9d0afed091578cc4bb59a9c7/contracts/token/ERC20/ERC20.sol\":6835:6850  _balances[from] */\n      dup1\n        /* \"https://github.com/OpenZeppelin/openzeppelin-contracts/blob/e5c63635e3508a8d9d0afed091578cc4bb59a9c7/contracts/token/ERC20/ERC20.sol\":6845:6849  from */\n      dup7\n        /* \"https://github.com/OpenZeppelin/openzeppelin-contracts/blob/e5c63635e3508a8d9d0afed091578cc4bb59a9c7/contracts/token/ERC20/ERC20.sol\":6835:6850  _balances[from] */\n      0xffffffffffffffffffffffffffffffffffffffff\n      and\n      0xffffffffffffffffffffffffffffffffffffffff\n      and\n      dup2\n      mstore\n      0x20\n      add\n      swap1\n      dup2\n      mstore\n      0x20\n      add\n      0x00\n      keccak256\n        /* \"https://github.com/OpenZeppelin/openzeppelin-contracts/blob/e5c63635e3508a8d9d0afed091578cc4bb59a9c7/contracts/token/ERC20/ERC20.sol\":6835:6872  _balances[from] = fromBalance - value */\n      dup2\n      swap1\n      sstore\n      pop\n        /* \"https://github.com/OpenZeppelin/openzeppelin-contracts/blob/e5c63635e3508a8d9d0afed091578cc4bb59a9c7/contracts/token/ERC20/ERC20.sol\":6535:6897  {... */\n      pop\n        /* \"https://github.com/OpenZeppelin/openzeppelin-contracts/blob/e5c63635e3508a8d9d0afed091578cc4bb59a9c7/contracts/token/ERC20/ERC20.sol\":6357:6897  if (from == address(0)) {... */\n    tag_203:\n        /* \"https://github.com/OpenZeppelin/openzeppelin-contracts/blob/e5c63635e3508a8d9d0afed091578cc4bb59a9c7/contracts/token/ERC20/ERC20.sol\":6925:6926  0 */\n      0x00\n        /* \"https://github.com/OpenZeppelin/openzeppelin-contracts/blob/e5c63635e3508a8d9d0afed091578cc4bb59a9c7/contracts/token/ERC20/ERC20.sol\":6911:6927  to == address(0) */\n      0xffffffffffffffffffffffffffffffffffffffff\n      and\n        /* \"https://github.com/OpenZeppelin/openzeppelin-contracts/blob/e5c63635e3508a8d9d0afed091578cc4bb59a9c7/contracts/token/ERC20/ERC20.sol\":6911:6913  to */\n      dup3\n        /* \"https://github.com/OpenZeppelin/openzeppelin-contracts/blob/e5c63635e3508a8d9d0afed091578cc4bb59a9c7/contracts/token/ERC20/ERC20.sol\":6911:6927  to == address(0) */\n      0xffffffffffffffffffffffffffffffffffffffff\n      and\n      sub\n        /* \"https://github.com/OpenZeppelin/openzeppelin-contracts/blob/e5c63635e3508a8d9d0afed091578cc4bb59a9c7/contracts/token/ERC20/ERC20.sol\":6907:7332  if (to == address(0)) {... */\n      tag_206\n      jumpi\n        /* \"https://github.com/OpenZeppelin/openzeppelin-contracts/blob/e5c63635e3508a8d9d0afed091578cc4bb59a9c7/contracts/token/ERC20/ERC20.sol\":7090:7095  value */\n      dup1\n        /* \"https://github.com/OpenZeppelin/openzeppelin-contracts/blob/e5c63635e3508a8d9d0afed091578cc4bb59a9c7/contracts/token/ERC20/ERC20.sol\":7074:7086  _totalSupply */\n      0x02\n      0x00\n        /* \"https://github.com/OpenZeppelin/openzeppelin-contracts/blob/e5c63635e3508a8d9d0afed091578cc4bb59a9c7/contracts/token/ERC20/ERC20.sol\":7074:7095  _totalSupply -= value */\n      dup3\n      dup3\n      sload\n      sub\n      swap3\n      pop\n      pop\n      dup2\n      swap1\n      sstore\n      pop\n        /* \"https://github.com/OpenZeppelin/openzeppelin-contracts/blob/e5c63635e3508a8d9d0afed091578cc4bb59a9c7/contracts/token/ERC20/ERC20.sol\":6907:7332  if (to == address(0)) {... */\n      jump(tag_207)\n    tag_206:\n        /* \"https://github.com/OpenZeppelin/openzeppelin-contracts/blob/e5c63635e3508a8d9d0afed091578cc4bb59a9c7/contracts/token/ERC20/ERC20.sol\":7302:7307  value */\n      dup1\n        /* \"https://github.com/OpenZeppelin/openzeppelin-contracts/blob/e5c63635e3508a8d9d0afed091578cc4bb59a9c7/contracts/token/ERC20/ERC20.sol\":7285:7294  _balances */\n      0x00\n        /* \"https://github.com/OpenZeppelin/openzeppelin-contracts/blob/e5c63635e3508a8d9d0afed091578cc4bb59a9c7/contracts/token/ERC20/ERC20.sol\":7285:7298  _balances[to] */\n      dup1\n        /* \"https://github.com/OpenZeppelin/openzeppelin-contracts/blob/e5c63635e3508a8d9d0afed091578cc4bb59a9c7/contracts/token/ERC20/ERC20.sol\":7295:7297  to */\n      dup5\n        /* \"https://github.com/OpenZeppelin/openzeppelin-contracts/blob/e5c63635e3508a8d9d0afed091578cc4bb59a9c7/contracts/token/ERC20/ERC20.sol\":7285:7298  _balances[to] */\n      0xffffffffffffffffffffffffffffffffffffffff\n      and\n      0xffffffffffffffffffffffffffffffffffffffff\n      and\n      dup2\n      mstore\n      0x20\n      add\n      swap1\n      dup2\n      mstore\n      0x20\n      add\n      0x00\n      keccak256\n      0x00\n        /* \"https://github.com/OpenZeppelin/openzeppelin-contracts/blob/e5c63635e3508a8d9d0afed091578cc4bb59a9c7/contracts/token/ERC20/ERC20.sol\":7285:7307  _balances[to] += value */\n      dup3\n      dup3\n      sload\n      add\n      swap3\n      pop\n      pop\n      dup2\n      swap1\n      sstore\n      pop\n        /* \"https://github.com/OpenZeppelin/openzeppelin-contracts/blob/e5c63635e3508a8d9d0afed091578cc4bb59a9c7/contracts/token/ERC20/ERC20.sol\":6907:7332  if (to == address(0)) {... */\n    tag_207:\n        /* \"https://github.com/OpenZeppelin/openzeppelin-contracts/blob/e5c63635e3508a8d9d0afed091578cc4bb59a9c7/contracts/token/ERC20/ERC20.sol\":7362:7364  to */\n      dup2\n        /* \"https://github.com/OpenZeppelin/openzeppelin-contracts/blob/e5c63635e3508a8d9d0afed091578cc4bb59a9c7/contracts/token/ERC20/ERC20.sol\":7347:7372  Transfer(from, to, value) */\n      0xffffffffffffffffffffffffffffffffffffffff\n      and\n        /* \"https://github.com/OpenZeppelin/openzeppelin-contracts/blob/e5c63635e3508a8d9d0afed091578cc4bb59a9c7/contracts/token/ERC20/ERC20.sol\":7356:7360  from */\n      dup4\n        /* \"https://github.com/OpenZeppelin/openzeppelin-contracts/blob/e5c63635e3508a8d9d0afed091578cc4bb59a9c7/contracts/token/ERC20/ERC20.sol\":7347:7372  Transfer(from, to, value) */\n      0xffffffffffffffffffffffffffffffffffffffff\n      and\n      0xddf252ad1be2c89b69c2b068fc378daa952ba7f163c4a11628f55a4df523b3ef\n        /* \"https://github.com/OpenZeppelin/openzeppelin-contracts/blob/e5c63635e3508a8d9d0afed091578cc4bb59a9c7/contracts/token/ERC20/ERC20.sol\":7366:7371  value */\n      dup4\n        /* \"https://github.com/OpenZeppelin/openzeppelin-contracts/blob/e5c63635e3508a8d9d0afed091578cc4bb59a9c7/contracts/token/ERC20/ERC20.sol\":7347:7372  Transfer(from, to, value) */\n      mload(0x40)\n      tag_208\n      swap2\n      swap1\n      tag_37\n      jump\t// in\n    tag_208:\n      mload(0x40)\n      dup1\n      swap2\n      sub\n      swap1\n      log3\n        /* \"https://github.com/OpenZeppelin/openzeppelin-contracts/blob/e5c63635e3508a8d9d0afed091578cc4bb59a9c7/contracts/token/ERC20/ERC20.sol\":6272:7379  function _update(address from, address to, uint256 value) internal virtual {... */\n      pop\n      pop\n      pop\n      jump\t// out\n        /* \"https://github.com/bokkypoobah/BokkyPooBahsDateTimeLibrary/blob/1dc26f977c57a6ba3ed6d7c53cafdb191e7e59ae/contracts/BokkyPooBahsDateTimeLibrary.sol\":3312:3917  function _daysToDate(uint _days) internal pure returns (uint year, uint month, uint day) {... */\n    tag_185:\n        /* \"https://github.com/bokkypoobah/BokkyPooBahsDateTimeLibrary/blob/1dc26f977c57a6ba3ed6d7c53cafdb191e7e59ae/contracts/BokkyPooBahsDateTimeLibrary.sol\":3368:3377  uint year */\n      0x00\n        /* \"https://github.com/bokkypoobah/BokkyPooBahsDateTimeLibrary/blob/1dc26f977c57a6ba3ed6d7c53cafdb191e7e59ae/contracts/BokkyPooBahsDateTimeLibrary.sol\":3379:3389  uint month */\n      dup1\n        /* \"https://github.com/bokkypoobah/BokkyPooBahsDateTimeLibrary/blob/1dc26f977c57a6ba3ed6d7c53cafdb191e7e59ae/contracts/BokkyPooBahsDateTimeLibrary.sol\":3391:3399  uint day */\n      0x00\n        /* \"https://github.com/bokkypoobah/BokkyPooBahsDateTimeLibrary/blob/1dc26f977c57a6ba3ed6d7c53cafdb191e7e59ae/contracts/BokkyPooBahsDateTimeLibrary.sol\":3411:3421  int __days */\n      dup1\n        /* \"https://github.com/bokkypoobah/BokkyPooBahsDateTimeLibrary/blob/1dc26f977c57a6ba3ed6d7c53cafdb191e7e59ae/contracts/BokkyPooBahsDateTimeLibrary.sol\":3428:3433  _days */\n      dup5\n        /* \"https://github.com/bokkypoobah/BokkyPooBahsDateTimeLibrary/blob/1dc26f977c57a6ba3ed6d7c53cafdb191e7e59ae/contracts/BokkyPooBahsDateTimeLibrary.sol\":3411:3434  int __days = int(_days) */\n      swap1\n      pop\n        /* \"https://github.com/bokkypoobah/BokkyPooBahsDateTimeLibrary/blob/1dc26f977c57a6ba3ed6d7c53cafdb191e7e59ae/contracts/BokkyPooBahsDateTimeLibrary.sol\":3445:3450  int L */\n      0x00\n        /* \"https://github.com/bokkypoobah/BokkyPooBahsDateTimeLibrary/blob/1dc26f977c57a6ba3ed6d7c53cafdb191e7e59ae/contracts/BokkyPooBahsDateTimeLibrary.sol\":1163:1170  2440588 */\n      0x253d8c\n        /* \"https://github.com/bokkypoobah/BokkyPooBahsDateTimeLibrary/blob/1dc26f977c57a6ba3ed6d7c53cafdb191e7e59ae/contracts/BokkyPooBahsDateTimeLibrary.sol\":3462:3467  68569 */\n      0x010bd9\n        /* \"https://github.com/bokkypoobah/BokkyPooBahsDateTimeLibrary/blob/1dc26f977c57a6ba3ed6d7c53cafdb191e7e59ae/contracts/BokkyPooBahsDateTimeLibrary.sol\":3453:3459  __days */\n      dup4\n        /* \"https://github.com/bokkypoobah/BokkyPooBahsDateTimeLibrary/blob/1dc26f977c57a6ba3ed6d7c53cafdb191e7e59ae/contracts/BokkyPooBahsDateTimeLibrary.sol\":3453:3467  __days + 68569 */\n      tag_210\n      swap2\n      swap1\n      tag_211\n      jump\t// in\n    tag_210:\n        /* \"https://github.com/bokkypoobah/BokkyPooBahsDateTimeLibrary/blob/1dc26f977c57a6ba3ed6d7c53cafdb191e7e59ae/contracts/BokkyPooBahsDateTimeLibrary.sol\":3453:3484  __days + 68569 + OFFSET19700101 */\n      tag_212\n      swap2\n      swap1\n      tag_211\n      jump\t// in\n    tag_212:\n        /* \"https://github.com/bokkypoobah/BokkyPooBahsDateTimeLibrary/blob/1dc26f977c57a6ba3ed6d7c53cafdb191e7e59ae/contracts/BokkyPooBahsDateTimeLibrary.sol\":3445:3484  int L = __days + 68569 + OFFSET19700101 */\n      swap1\n      pop\n        /* \"https://github.com/bokkypoobah/BokkyPooBahsDateTimeLibrary/blob/1dc26f977c57a6ba3ed6d7c53cafdb191e7e59ae/contracts/BokkyPooBahsDateTimeLibrary.sol\":3494:3499  int N */\n      0x00\n        /* \"https://github.com/bokkypoobah/BokkyPooBahsDateTimeLibrary/blob/1dc26f977c57a6ba3ed6d7c53cafdb191e7e59ae/contracts/BokkyPooBahsDateTimeLibrary.sol\":3510:3516  146097 */\n      0x023ab1\n        /* \"https://github.com/bokkypoobah/BokkyPooBahsDateTimeLibrary/blob/1dc26f977c57a6ba3ed6d7c53cafdb191e7e59ae/contracts/BokkyPooBahsDateTimeLibrary.sol\":3506:3507  L */\n      dup3\n        /* \"https://github.com/bokkypoobah/BokkyPooBahsDateTimeLibrary/blob/1dc26f977c57a6ba3ed6d7c53cafdb191e7e59ae/contracts/BokkyPooBahsDateTimeLibrary.sol\":3502:3503  4 */\n      0x04\n        /* \"https://github.com/bokkypoobah/BokkyPooBahsDateTimeLibrary/blob/1dc26f977c57a6ba3ed6d7c53cafdb191e7e59ae/contracts/BokkyPooBahsDateTimeLibrary.sol\":3502:3507  4 * L */\n      tag_213\n      swap2\n      swap1\n      tag_214\n      jump\t// in\n    tag_213:\n        /* \"https://github.com/bokkypoobah/BokkyPooBahsDateTimeLibrary/blob/1dc26f977c57a6ba3ed6d7c53cafdb191e7e59ae/contracts/BokkyPooBahsDateTimeLibrary.sol\":3502:3516  4 * L / 146097 */\n      tag_215\n      swap2\n      swap1\n      tag_216\n      jump\t// in\n    tag_215:\n        /* \"https://github.com/bokkypoobah/BokkyPooBahsDateTimeLibrary/blob/1dc26f977c57a6ba3ed6d7c53cafdb191e7e59ae/contracts/BokkyPooBahsDateTimeLibrary.sol\":3494:3516  int N = 4 * L / 146097 */\n      swap1\n      pop\n        /* \"https://github.com/bokkypoobah/BokkyPooBahsDateTimeLibrary/blob/1dc26f977c57a6ba3ed6d7c53cafdb191e7e59ae/contracts/BokkyPooBahsDateTimeLibrary.sol\":3553:3554  4 */\n      0x04\n        /* \"https://github.com/bokkypoobah/BokkyPooBahsDateTimeLibrary/blob/1dc26f977c57a6ba3ed6d7c53cafdb191e7e59ae/contracts/BokkyPooBahsDateTimeLibrary.sol\":3548:3549  3 */\n      0x03\n        /* \"https://github.com/bokkypoobah/BokkyPooBahsDateTimeLibrary/blob/1dc26f977c57a6ba3ed6d7c53cafdb191e7e59ae/contracts/BokkyPooBahsDateTimeLibrary.sol\":3544:3545  N */\n      dup3\n        /* \"https://github.com/bokkypoobah/BokkyPooBahsDateTimeLibrary/blob/1dc26f977c57a6ba3ed6d7c53cafdb191e7e59ae/contracts/BokkyPooBahsDateTimeLibrary.sol\":3535:3541  146097 */\n      0x023ab1\n        /* \"https://github.com/bokkypoobah/BokkyPooBahsDateTimeLibrary/blob/1dc26f977c57a6ba3ed6d7c53cafdb191e7e59ae/contracts/BokkyPooBahsDateTimeLibrary.sol\":3535:3545  146097 * N */\n      tag_217\n      swap2\n      swap1\n      tag_214\n      jump\t// in\n    tag_217:\n        /* \"https://github.com/bokkypoobah/BokkyPooBahsDateTimeLibrary/blob/1dc26f977c57a6ba3ed6d7c53cafdb191e7e59ae/contracts/BokkyPooBahsDateTimeLibrary.sol\":3535:3549  146097 * N + 3 */\n      tag_218\n      swap2\n      swap1\n      tag_211\n      jump\t// in\n    tag_218:\n        /* \"https://github.com/bokkypoobah/BokkyPooBahsDateTimeLibrary/blob/1dc26f977c57a6ba3ed6d7c53cafdb191e7e59ae/contracts/BokkyPooBahsDateTimeLibrary.sol\":3534:3554  (146097 * N + 3) / 4 */\n      tag_219\n      swap2\n      swap1\n      tag_216\n      jump\t// in\n    tag_219:\n        /* \"https://github.com/bokkypoobah/BokkyPooBahsDateTimeLibrary/blob/1dc26f977c57a6ba3ed6d7c53cafdb191e7e59ae/contracts/BokkyPooBahsDateTimeLibrary.sol\":3530:3531  L */\n      dup3\n        /* \"https://github.com/bokkypoobah/BokkyPooBahsDateTimeLibrary/blob/1dc26f977c57a6ba3ed6d7c53cafdb191e7e59ae/contracts/BokkyPooBahsDateTimeLibrary.sol\":3530:3554  L - (146097 * N + 3) / 4 */\n      tag_220\n      swap2\n      swap1\n      tag_221\n      jump\t// in\n    tag_220:\n        /* \"https://github.com/bokkypoobah/BokkyPooBahsDateTimeLibrary/blob/1dc26f977c57a6ba3ed6d7c53cafdb191e7e59ae/contracts/BokkyPooBahsDateTimeLibrary.sol\":3526:3554  L = L - (146097 * N + 3) / 4 */\n      swap2\n      pop\n        /* \"https://github.com/bokkypoobah/BokkyPooBahsDateTimeLibrary/blob/1dc26f977c57a6ba3ed6d7c53cafdb191e7e59ae/contracts/BokkyPooBahsDateTimeLibrary.sol\":3564:3573  int _year */\n      0x00\n        /* \"https://github.com/bokkypoobah/BokkyPooBahsDateTimeLibrary/blob/1dc26f977c57a6ba3ed6d7c53cafdb191e7e59ae/contracts/BokkyPooBahsDateTimeLibrary.sol\":3593:3600  1461001 */\n      0x164b09\n        /* \"https://github.com/bokkypoobah/BokkyPooBahsDateTimeLibrary/blob/1dc26f977c57a6ba3ed6d7c53cafdb191e7e59ae/contracts/BokkyPooBahsDateTimeLibrary.sol\":3588:3589  1 */\n      0x01\n        /* \"https://github.com/bokkypoobah/BokkyPooBahsDateTimeLibrary/blob/1dc26f977c57a6ba3ed6d7c53cafdb191e7e59ae/contracts/BokkyPooBahsDateTimeLibrary.sol\":3584:3585  L */\n      dup5\n        /* \"https://github.com/bokkypoobah/BokkyPooBahsDateTimeLibrary/blob/1dc26f977c57a6ba3ed6d7c53cafdb191e7e59ae/contracts/BokkyPooBahsDateTimeLibrary.sol\":3584:3589  L + 1 */\n      tag_222\n      swap2\n      swap1\n      tag_211\n      jump\t// in\n    tag_222:\n        /* \"https://github.com/bokkypoobah/BokkyPooBahsDateTimeLibrary/blob/1dc26f977c57a6ba3ed6d7c53cafdb191e7e59ae/contracts/BokkyPooBahsDateTimeLibrary.sol\":3576:3580  4000 */\n      0x0fa0\n        /* \"https://github.com/bokkypoobah/BokkyPooBahsDateTimeLibrary/blob/1dc26f977c57a6ba3ed6d7c53cafdb191e7e59ae/contracts/BokkyPooBahsDateTimeLibrary.sol\":3576:3590  4000 * (L + 1) */\n      tag_223\n      swap2\n      swap1\n      tag_214\n      jump\t// in\n    tag_223:\n        /* \"https://github.com/bokkypoobah/BokkyPooBahsDateTimeLibrary/blob/1dc26f977c57a6ba3ed6d7c53cafdb191e7e59ae/contracts/BokkyPooBahsDateTimeLibrary.sol\":3576:3600  4000 * (L + 1) / 1461001 */\n      tag_224\n      swap2\n      swap1\n      tag_216\n      jump\t// in\n    tag_224:\n        /* \"https://github.com/bokkypoobah/BokkyPooBahsDateTimeLibrary/blob/1dc26f977c57a6ba3ed6d7c53cafdb191e7e59ae/contracts/BokkyPooBahsDateTimeLibrary.sol\":3564:3600  int _year = 4000 * (L + 1) / 1461001 */\n      swap1\n      pop\n        /* \"https://github.com/bokkypoobah/BokkyPooBahsDateTimeLibrary/blob/1dc26f977c57a6ba3ed6d7c53cafdb191e7e59ae/contracts/BokkyPooBahsDateTimeLibrary.sol\":3637:3639  31 */\n      0x1f\n        /* \"https://github.com/bokkypoobah/BokkyPooBahsDateTimeLibrary/blob/1dc26f977c57a6ba3ed6d7c53cafdb191e7e59ae/contracts/BokkyPooBahsDateTimeLibrary.sol\":3633:3634  4 */\n      0x04\n        /* \"https://github.com/bokkypoobah/BokkyPooBahsDateTimeLibrary/blob/1dc26f977c57a6ba3ed6d7c53cafdb191e7e59ae/contracts/BokkyPooBahsDateTimeLibrary.sol\":3625:3630  _year */\n      dup3\n        /* \"https://github.com/bokkypoobah/BokkyPooBahsDateTimeLibrary/blob/1dc26f977c57a6ba3ed6d7c53cafdb191e7e59ae/contracts/BokkyPooBahsDateTimeLibrary.sol\":3618:3622  1461 */\n      0x05b5\n        /* \"https://github.com/bokkypoobah/BokkyPooBahsDateTimeLibrary/blob/1dc26f977c57a6ba3ed6d7c53cafdb191e7e59ae/contracts/BokkyPooBahsDateTimeLibrary.sol\":3618:3630  1461 * _year */\n      tag_225\n      swap2\n      swap1\n      tag_214\n      jump\t// in\n    tag_225:\n        /* \"https://github.com/bokkypoobah/BokkyPooBahsDateTimeLibrary/blob/1dc26f977c57a6ba3ed6d7c53cafdb191e7e59ae/contracts/BokkyPooBahsDateTimeLibrary.sol\":3618:3634  1461 * _year / 4 */\n      tag_226\n      swap2\n      swap1\n      tag_216\n      jump\t// in\n    tag_226:\n        /* \"https://github.com/bokkypoobah/BokkyPooBahsDateTimeLibrary/blob/1dc26f977c57a6ba3ed6d7c53cafdb191e7e59ae/contracts/BokkyPooBahsDateTimeLibrary.sol\":3614:3615  L */\n      dup5\n        /* \"https://github.com/bokkypoobah/BokkyPooBahsDateTimeLibrary/blob/1dc26f977c57a6ba3ed6d7c53cafdb191e7e59ae/contracts/BokkyPooBahsDateTimeLibrary.sol\":3614:3634  L - 1461 * _year / 4 */\n      tag_227\n      swap2\n      swap1\n      tag_221\n      jump\t// in\n    tag_227:\n        /* \"https://github.com/bokkypoobah/BokkyPooBahsDateTimeLibrary/blob/1dc26f977c57a6ba3ed6d7c53cafdb191e7e59ae/contracts/BokkyPooBahsDateTimeLibrary.sol\":3614:3639  L - 1461 * _year / 4 + 31 */\n      tag_228\n      swap2\n      swap1\n      tag_211\n      jump\t// in\n    tag_228:\n        /* \"https://github.com/bokkypoobah/BokkyPooBahsDateTimeLibrary/blob/1dc26f977c57a6ba3ed6d7c53cafdb191e7e59ae/contracts/BokkyPooBahsDateTimeLibrary.sol\":3610:3639  L = L - 1461 * _year / 4 + 31 */\n      swap3\n      pop\n        /* \"https://github.com/bokkypoobah/BokkyPooBahsDateTimeLibrary/blob/1dc26f977c57a6ba3ed6d7c53cafdb191e7e59ae/contracts/BokkyPooBahsDateTimeLibrary.sol\":3649:3659  int _month */\n      0x00\n        /* \"https://github.com/bokkypoobah/BokkyPooBahsDateTimeLibrary/blob/1dc26f977c57a6ba3ed6d7c53cafdb191e7e59ae/contracts/BokkyPooBahsDateTimeLibrary.sol\":3671:3675  2447 */\n      0x098f\n        /* \"https://github.com/bokkypoobah/BokkyPooBahsDateTimeLibrary/blob/1dc26f977c57a6ba3ed6d7c53cafdb191e7e59ae/contracts/BokkyPooBahsDateTimeLibrary.sol\":3667:3668  L */\n      dup5\n        /* \"https://github.com/bokkypoobah/BokkyPooBahsDateTimeLibrary/blob/1dc26f977c57a6ba3ed6d7c53cafdb191e7e59ae/contracts/BokkyPooBahsDateTimeLibrary.sol\":3662:3664  80 */\n      0x50\n        /* \"https://github.com/bokkypoobah/BokkyPooBahsDateTimeLibrary/blob/1dc26f977c57a6ba3ed6d7c53cafdb191e7e59ae/contracts/BokkyPooBahsDateTimeLibrary.sol\":3662:3668  80 * L */\n      tag_229\n      swap2\n      swap1\n      tag_214\n      jump\t// in\n    tag_229:\n        /* \"https://github.com/bokkypoobah/BokkyPooBahsDateTimeLibrary/blob/1dc26f977c57a6ba3ed6d7c53cafdb191e7e59ae/contracts/BokkyPooBahsDateTimeLibrary.sol\":3662:3675  80 * L / 2447 */\n      tag_230\n      swap2\n      swap1\n      tag_216\n      jump\t// in\n    tag_230:\n        /* \"https://github.com/bokkypoobah/BokkyPooBahsDateTimeLibrary/blob/1dc26f977c57a6ba3ed6d7c53cafdb191e7e59ae/contracts/BokkyPooBahsDateTimeLibrary.sol\":3649:3675  int _month = 80 * L / 2447 */\n      swap1\n      pop\n        /* \"https://github.com/bokkypoobah/BokkyPooBahsDateTimeLibrary/blob/1dc26f977c57a6ba3ed6d7c53cafdb191e7e59ae/contracts/BokkyPooBahsDateTimeLibrary.sol\":3685:3693  int _day */\n      0x00\n        /* \"https://github.com/bokkypoobah/BokkyPooBahsDateTimeLibrary/blob/1dc26f977c57a6ba3ed6d7c53cafdb191e7e59ae/contracts/BokkyPooBahsDateTimeLibrary.sol\":3716:3718  80 */\n      0x50\n        /* \"https://github.com/bokkypoobah/BokkyPooBahsDateTimeLibrary/blob/1dc26f977c57a6ba3ed6d7c53cafdb191e7e59ae/contracts/BokkyPooBahsDateTimeLibrary.sol\":3707:3713  _month */\n      dup3\n        /* \"https://github.com/bokkypoobah/BokkyPooBahsDateTimeLibrary/blob/1dc26f977c57a6ba3ed6d7c53cafdb191e7e59ae/contracts/BokkyPooBahsDateTimeLibrary.sol\":3700:3704  2447 */\n      0x098f\n        /* \"https://github.com/bokkypoobah/BokkyPooBahsDateTimeLibrary/blob/1dc26f977c57a6ba3ed6d7c53cafdb191e7e59ae/contracts/BokkyPooBahsDateTimeLibrary.sol\":3700:3713  2447 * _month */\n      tag_231\n      swap2\n      swap1\n      tag_214\n      jump\t// in\n    tag_231:\n        /* \"https://github.com/bokkypoobah/BokkyPooBahsDateTimeLibrary/blob/1dc26f977c57a6ba3ed6d7c53cafdb191e7e59ae/contracts/BokkyPooBahsDateTimeLibrary.sol\":3700:3718  2447 * _month / 80 */\n      tag_232\n      swap2\n      swap1\n      tag_216\n      jump\t// in\n    tag_232:\n        /* \"https://github.com/bokkypoobah/BokkyPooBahsDateTimeLibrary/blob/1dc26f977c57a6ba3ed6d7c53cafdb191e7e59ae/contracts/BokkyPooBahsDateTimeLibrary.sol\":3696:3697  L */\n      dup6\n        /* \"https://github.com/bokkypoobah/BokkyPooBahsDateTimeLibrary/blob/1dc26f977c57a6ba3ed6d7c53cafdb191e7e59ae/contracts/BokkyPooBahsDateTimeLibrary.sol\":3696:3718  L - 2447 * _month / 80 */\n      tag_233\n      swap2\n      swap1\n      tag_221\n      jump\t// in\n    tag_233:\n        /* \"https://github.com/bokkypoobah/BokkyPooBahsDateTimeLibrary/blob/1dc26f977c57a6ba3ed6d7c53cafdb191e7e59ae/contracts/BokkyPooBahsDateTimeLibrary.sol\":3685:3718  int _day = L - 2447 * _month / 80 */\n      swap1\n      pop\n        /* \"https://github.com/bokkypoobah/BokkyPooBahsDateTimeLibrary/blob/1dc26f977c57a6ba3ed6d7c53cafdb191e7e59ae/contracts/BokkyPooBahsDateTimeLibrary.sol\":3741:3743  11 */\n      0x0b\n        /* \"https://github.com/bokkypoobah/BokkyPooBahsDateTimeLibrary/blob/1dc26f977c57a6ba3ed6d7c53cafdb191e7e59ae/contracts/BokkyPooBahsDateTimeLibrary.sol\":3732:3738  _month */\n      dup3\n        /* \"https://github.com/bokkypoobah/BokkyPooBahsDateTimeLibrary/blob/1dc26f977c57a6ba3ed6d7c53cafdb191e7e59ae/contracts/BokkyPooBahsDateTimeLibrary.sol\":3732:3743  _month / 11 */\n      tag_234\n      swap2\n      swap1\n      tag_216\n      jump\t// in\n    tag_234:\n        /* \"https://github.com/bokkypoobah/BokkyPooBahsDateTimeLibrary/blob/1dc26f977c57a6ba3ed6d7c53cafdb191e7e59ae/contracts/BokkyPooBahsDateTimeLibrary.sol\":3728:3743  L = _month / 11 */\n      swap5\n      pop\n        /* \"https://github.com/bokkypoobah/BokkyPooBahsDateTimeLibrary/blob/1dc26f977c57a6ba3ed6d7c53cafdb191e7e59ae/contracts/BokkyPooBahsDateTimeLibrary.sol\":3780:3781  L */\n      dup5\n        /* \"https://github.com/bokkypoobah/BokkyPooBahsDateTimeLibrary/blob/1dc26f977c57a6ba3ed6d7c53cafdb191e7e59ae/contracts/BokkyPooBahsDateTimeLibrary.sol\":3775:3777  12 */\n      0x0c\n        /* \"https://github.com/bokkypoobah/BokkyPooBahsDateTimeLibrary/blob/1dc26f977c57a6ba3ed6d7c53cafdb191e7e59ae/contracts/BokkyPooBahsDateTimeLibrary.sol\":3775:3781  12 * L */\n      tag_235\n      swap2\n      swap1\n      tag_214\n      jump\t// in\n    tag_235:\n        /* \"https://github.com/bokkypoobah/BokkyPooBahsDateTimeLibrary/blob/1dc26f977c57a6ba3ed6d7c53cafdb191e7e59ae/contracts/BokkyPooBahsDateTimeLibrary.sol\":3771:3772  2 */\n      0x02\n        /* \"https://github.com/bokkypoobah/BokkyPooBahsDateTimeLibrary/blob/1dc26f977c57a6ba3ed6d7c53cafdb191e7e59ae/contracts/BokkyPooBahsDateTimeLibrary.sol\":3762:3768  _month */\n      dup4\n        /* \"https://github.com/bokkypoobah/BokkyPooBahsDateTimeLibrary/blob/1dc26f977c57a6ba3ed6d7c53cafdb191e7e59ae/contracts/BokkyPooBahsDateTimeLibrary.sol\":3762:3772  _month + 2 */\n      tag_236\n      swap2\n      swap1\n      tag_211\n      jump\t// in\n    tag_236:\n        /* \"https://github.com/bokkypoobah/BokkyPooBahsDateTimeLibrary/blob/1dc26f977c57a6ba3ed6d7c53cafdb191e7e59ae/contracts/BokkyPooBahsDateTimeLibrary.sol\":3762:3781  _month + 2 - 12 * L */\n      tag_237\n      swap2\n      swap1\n      tag_221\n      jump\t// in\n    tag_237:\n        /* \"https://github.com/bokkypoobah/BokkyPooBahsDateTimeLibrary/blob/1dc26f977c57a6ba3ed6d7c53cafdb191e7e59ae/contracts/BokkyPooBahsDateTimeLibrary.sol\":3753:3781  _month = _month + 2 - 12 * L */\n      swap2\n      pop\n        /* \"https://github.com/bokkypoobah/BokkyPooBahsDateTimeLibrary/blob/1dc26f977c57a6ba3ed6d7c53cafdb191e7e59ae/contracts/BokkyPooBahsDateTimeLibrary.sol\":3824:3825  L */\n      dup5\n        /* \"https://github.com/bokkypoobah/BokkyPooBahsDateTimeLibrary/blob/1dc26f977c57a6ba3ed6d7c53cafdb191e7e59ae/contracts/BokkyPooBahsDateTimeLibrary.sol\":3816:3821  _year */\n      dup4\n        /* \"https://github.com/bokkypoobah/BokkyPooBahsDateTimeLibrary/blob/1dc26f977c57a6ba3ed6d7c53cafdb191e7e59ae/contracts/BokkyPooBahsDateTimeLibrary.sol\":3810:3812  49 */\n      0x31\n        /* \"https://github.com/bokkypoobah/BokkyPooBahsDateTimeLibrary/blob/1dc26f977c57a6ba3ed6d7c53cafdb191e7e59ae/contracts/BokkyPooBahsDateTimeLibrary.sol\":3806:3807  N */\n      dup7\n        /* \"https://github.com/bokkypoobah/BokkyPooBahsDateTimeLibrary/blob/1dc26f977c57a6ba3ed6d7c53cafdb191e7e59ae/contracts/BokkyPooBahsDateTimeLibrary.sol\":3806:3812  N - 49 */\n      tag_238\n      swap2\n      swap1\n      tag_221\n      jump\t// in\n    tag_238:\n        /* \"https://github.com/bokkypoobah/BokkyPooBahsDateTimeLibrary/blob/1dc26f977c57a6ba3ed6d7c53cafdb191e7e59ae/contracts/BokkyPooBahsDateTimeLibrary.sol\":3799:3802  100 */\n      0x64\n        /* \"https://github.com/bokkypoobah/BokkyPooBahsDateTimeLibrary/blob/1dc26f977c57a6ba3ed6d7c53cafdb191e7e59ae/contracts/BokkyPooBahsDateTimeLibrary.sol\":3799:3813  100 * (N - 49) */\n      tag_239\n      swap2\n      swap1\n      tag_214\n      jump\t// in\n    tag_239:\n        /* \"https://github.com/bokkypoobah/BokkyPooBahsDateTimeLibrary/blob/1dc26f977c57a6ba3ed6d7c53cafdb191e7e59ae/contracts/BokkyPooBahsDateTimeLibrary.sol\":3799:3821  100 * (N - 49) + _year */\n      tag_240\n      swap2\n      swap1\n      tag_211\n      jump\t// in\n    tag_240:\n        /* \"https://github.com/bokkypoobah/BokkyPooBahsDateTimeLibrary/blob/1dc26f977c57a6ba3ed6d7c53cafdb191e7e59ae/contracts/BokkyPooBahsDateTimeLibrary.sol\":3799:3825  100 * (N - 49) + _year + L */\n      tag_241\n      swap2\n      swap1\n      tag_211\n      jump\t// in\n    tag_241:\n        /* \"https://github.com/bokkypoobah/BokkyPooBahsDateTimeLibrary/blob/1dc26f977c57a6ba3ed6d7c53cafdb191e7e59ae/contracts/BokkyPooBahsDateTimeLibrary.sol\":3791:3825  _year = 100 * (N - 49) + _year + L */\n      swap3\n      pop\n        /* \"https://github.com/bokkypoobah/BokkyPooBahsDateTimeLibrary/blob/1dc26f977c57a6ba3ed6d7c53cafdb191e7e59ae/contracts/BokkyPooBahsDateTimeLibrary.sol\":3848:3853  _year */\n      dup3\n        /* \"https://github.com/bokkypoobah/BokkyPooBahsDateTimeLibrary/blob/1dc26f977c57a6ba3ed6d7c53cafdb191e7e59ae/contracts/BokkyPooBahsDateTimeLibrary.sol\":3836:3854  year = uint(_year) */\n      swap9\n      pop\n        /* \"https://github.com/bokkypoobah/BokkyPooBahsDateTimeLibrary/blob/1dc26f977c57a6ba3ed6d7c53cafdb191e7e59ae/contracts/BokkyPooBahsDateTimeLibrary.sol\":3877:3883  _month */\n      dup2\n        /* \"https://github.com/bokkypoobah/BokkyPooBahsDateTimeLibrary/blob/1dc26f977c57a6ba3ed6d7c53cafdb191e7e59ae/contracts/BokkyPooBahsDateTimeLibrary.sol\":3864:3884  month = uint(_month) */\n      swap8\n      pop\n        /* \"https://github.com/bokkypoobah/BokkyPooBahsDateTimeLibrary/blob/1dc26f977c57a6ba3ed6d7c53cafdb191e7e59ae/contracts/BokkyPooBahsDateTimeLibrary.sol\":3905:3909  _day */\n      dup1\n        /* \"https://github.com/bokkypoobah/BokkyPooBahsDateTimeLibrary/blob/1dc26f977c57a6ba3ed6d7c53cafdb191e7e59ae/contracts/BokkyPooBahsDateTimeLibrary.sol\":3894:3910  day = uint(_day) */\n      swap7\n      pop\n        /* \"https://github.com/bokkypoobah/BokkyPooBahsDateTimeLibrary/blob/1dc26f977c57a6ba3ed6d7c53cafdb191e7e59ae/contracts/BokkyPooBahsDateTimeLibrary.sol\":3401:3917  {... */\n      pop\n      pop\n      pop\n      pop\n      pop\n      pop\n        /* \"https://github.com/bokkypoobah/BokkyPooBahsDateTimeLibrary/blob/1dc26f977c57a6ba3ed6d7c53cafdb191e7e59ae/contracts/BokkyPooBahsDateTimeLibrary.sol\":3312:3917  function _daysToDate(uint _days) internal pure returns (uint year, uint month, uint day) {... */\n      swap2\n      swap4\n      swap1\n      swap3\n      pop\n      jump\t// out\n        /* \"#utility.yul\":7:106   */\n    tag_242:\n        /* \"#utility.yul\":59:65   */\n      0x00\n        /* \"#utility.yul\":93:98   */\n      dup2\n        /* \"#utility.yul\":87:99   */\n      mload\n        /* \"#utility.yul\":77:99   */\n      swap1\n      pop\n        /* \"#utility.yul\":7:106   */\n      swap2\n      swap1\n      pop\n      jump\t// out\n        /* \"#utility.yul\":112:281   */\n    tag_243:\n        /* \"#utility.yul\":196:207   */\n      0x00\n        /* \"#utility.yul\":230:236   */\n      dup3\n        /* \"#utility.yul\":225:228   */\n      dup3\n        /* \"#utility.yul\":218:237   */\n      mstore\n        /* \"#utility.yul\":270:274   */\n      0x20\n        /* \"#utility.yul\":265:268   */\n      dup3\n        /* \"#utility.yul\":261:275   */\n      add\n        /* \"#utility.yul\":246:275   */\n      swap1\n      pop\n        /* \"#utility.yul\":112:281   */\n      swap3\n      swap2\n      pop\n      pop\n      jump\t// out\n        /* \"#utility.yul\":287:533   */\n    tag_244:\n        /* \"#utility.yul\":368:369   */\n      0x00\n        /* \"#utility.yul\":378:491   */\n    tag_275:\n        /* \"#utility.yul\":392:398   */\n      dup4\n        /* \"#utility.yul\":389:390   */\n      dup2\n        /* \"#utility.yul\":386:399   */\n      lt\n        /* \"#utility.yul\":378:491   */\n      iszero\n      tag_277\n      jumpi\n        /* \"#utility.yul\":477:478   */\n      dup1\n        /* \"#utility.yul\":472:475   */\n      dup3\n        /* \"#utility.yul\":468:479   */\n      add\n        /* \"#utility.yul\":462:480   */\n      mload\n        /* \"#utility.yul\":458:459   */\n      dup2\n        /* \"#utility.yul\":453:456   */\n      dup5\n        /* \"#utility.yul\":449:460   */\n      add\n        /* \"#utility.yul\":442:481   */\n      mstore\n        /* \"#utility.yul\":414:416   */\n      0x20\n        /* \"#utility.yul\":411:412   */\n      dup2\n        /* \"#utility.yul\":407:417   */\n      add\n        /* \"#utility.yul\":402:417   */\n      swap1\n      pop\n        /* \"#utility.yul\":378:491   */\n      jump(tag_275)\n    tag_277:\n        /* \"#utility.yul\":525:526   */\n      0x00\n        /* \"#utility.yul\":516:522   */\n      dup5\n        /* \"#utility.yul\":511:514   */\n      dup5\n        /* \"#utility.yul\":507:523   */\n      add\n        /* \"#utility.yul\":500:527   */\n      mstore\n        /* \"#utility.yul\":349:533   */\n      pop\n        /* \"#utility.yul\":287:533   */\n      pop\n      pop\n      pop\n      jump\t// out\n        /* \"#utility.yul\":539:641   */\n    tag_245:\n        /* \"#utility.yul\":580:586   */\n      0x00\n        /* \"#utility.yul\":631:633   */\n      0x1f\n        /* \"#utility.yul\":627:634   */\n      not\n        /* \"#utility.yul\":622:624   */\n      0x1f\n        /* \"#utility.yul\":615:620   */\n      dup4\n        /* \"#utility.yul\":611:625   */\n      add\n        /* \"#utility.yul\":607:635   */\n      and\n        /* \"#utility.yul\":597:635   */\n      swap1\n      pop\n        /* \"#utility.yul\":539:641   */\n      swap2\n      swap1\n      pop\n      jump\t// out\n        /* \"#utility.yul\":647:1024   */\n    tag_246:\n        /* \"#utility.yul\":735:738   */\n      0x00\n        /* \"#utility.yul\":763:802   */\n      tag_280\n        /* \"#utility.yul\":796:801   */\n      dup3\n        /* \"#utility.yul\":763:802   */\n      tag_242\n      jump\t// in\n    tag_280:\n        /* \"#utility.yul\":818:889   */\n      tag_281\n        /* \"#utility.yul\":882:888   */\n      dup2\n        /* \"#utility.yul\":877:880   */\n      dup6\n        /* \"#utility.yul\":818:889   */\n      tag_243\n      jump\t// in\n    tag_281:\n        /* \"#utility.yul\":811:889   */\n      swap4\n      pop\n        /* \"#utility.yul\":898:963   */\n      tag_282\n        /* \"#utility.yul\":956:962   */\n      dup2\n        /* \"#utility.yul\":951:954   */\n      dup6\n        /* \"#utility.yul\":944:948   */\n      0x20\n        /* \"#utility.yul\":937:942   */\n      dup7\n        /* \"#utility.yul\":933:949   */\n      add\n        /* \"#utility.yul\":898:963   */\n      tag_244\n      jump\t// in\n    tag_282:\n        /* \"#utility.yul\":988:1017   */\n      tag_283\n        /* \"#utility.yul\":1010:1016   */\n      dup2\n        /* \"#utility.yul\":988:1017   */\n      tag_245\n      jump\t// in\n    tag_283:\n        /* \"#utility.yul\":983:986   */\n      dup5\n        /* \"#utility.yul\":979:1018   */\n      add\n        /* \"#utility.yul\":972:1018   */\n      swap2\n      pop\n        /* \"#utility.yul\":739:1024   */\n      pop\n        /* \"#utility.yul\":647:1024   */\n      swap3\n      swap2\n      pop\n      pop\n      jump\t// out\n        /* \"#utility.yul\":1030:1343   */\n    tag_27:\n        /* \"#utility.yul\":1143:1147   */\n      0x00\n        /* \"#utility.yul\":1181:1183   */\n      0x20\n        /* \"#utility.yul\":1170:1179   */\n      dup3\n        /* \"#utility.yul\":1166:1184   */\n      add\n        /* \"#utility.yul\":1158:1184   */\n      swap1\n      pop\n        /* \"#utility.yul\":1230:1239   */\n      dup2\n        /* \"#utility.yul\":1224:1228   */\n      dup2\n        /* \"#utility.yul\":1220:1240   */\n      sub\n        /* \"#utility.yul\":1216:1217   */\n      0x00\n        /* \"#utility.yul\":1205:1214   */\n      dup4\n        /* \"#utility.yul\":1201:1218   */\n      add\n        /* \"#utility.yul\":1194:1241   */\n      mstore\n        /* \"#utility.yul\":1258:1336   */\n      tag_285\n        /* \"#utility.yul\":1331:1335   */\n      dup2\n        /* \"#utility.yul\":1322:1328   */\n      dup5\n        /* \"#utility.yul\":1258:1336   */\n      tag_246\n      jump\t// in\n    tag_285:\n        /* \"#utility.yul\":1250:1336   */\n      swap1\n      pop\n        /* \"#utility.yul\":1030:1343   */\n      swap3\n      swap2\n      pop\n      pop\n      jump\t// out\n        /* \"#utility.yul\":1430:1547   */\n    tag_248:\n        /* \"#utility.yul\":1539:1540   */\n      0x00\n        /* \"#utility.yul\":1536:1537   */\n      dup1\n        /* \"#utility.yul\":1529:1541   */\n      revert\n        /* \"#utility.yul\":1676:1802   */\n    tag_250:\n        /* \"#utility.yul\":1713:1720   */\n      0x00\n        /* \"#utility.yul\":1753:1795   */\n      0xffffffffffffffffffffffffffffffffffffffff\n        /* \"#utility.yul\":1746:1751   */\n      dup3\n        /* \"#utility.yul\":1742:1796   */\n      and\n        /* \"#utility.yul\":1731:1796   */\n      swap1\n      pop\n        /* \"#utility.yul\":1676:1802   */\n      swap2\n      swap1\n      pop\n      jump\t// out\n        /* \"#utility.yul\":1808:1904   */\n    tag_251:\n        /* \"#utility.yul\":1845:1852   */\n      0x00\n        /* \"#utility.yul\":1874:1898   */\n      tag_291\n        /* \"#utility.yul\":1892:1897   */\n      dup3\n        /* \"#utility.yul\":1874:1898   */\n      tag_250\n      jump\t// in\n    tag_291:\n        /* \"#utility.yul\":1863:1898   */\n      swap1\n      pop\n        /* \"#utility.yul\":1808:1904   */\n      swap2\n      swap1\n      pop\n      jump\t// out\n        /* \"#utility.yul\":1910:2032   */\n    tag_252:\n        /* \"#utility.yul\":1983:2007   */\n      tag_293\n        /* \"#utility.yul\":2001:2006   */\n      dup2\n        /* \"#utility.yul\":1983:2007   */\n      tag_251\n      jump\t// in\n    tag_293:\n        /* \"#utility.yul\":1976:1981   */\n      dup2\n        /* \"#utility.yul\":1973:2008   */\n      eq\n        /* \"#utility.yul\":1963:2026   */\n      tag_294\n      jumpi\n        /* \"#utility.yul\":2022:2023   */\n      0x00\n        /* \"#utility.yul\":2019:2020   */\n      dup1\n        /* \"#utility.yul\":2012:2024   */\n      revert\n        /* \"#utility.yul\":1963:2026   */\n    tag_294:\n        /* \"#utility.yul\":1910:2032   */\n      pop\n      jump\t// out\n        /* \"#utility.yul\":2038:2177   */\n    tag_253:\n        /* \"#utility.yul\":2084:2089   */\n      0x00\n        /* \"#utility.yul\":2122:2128   */\n      dup2\n        /* \"#utility.yul\":2109:2129   */\n      calldataload\n        /* \"#utility.yul\":2100:2129   */\n      swap1\n      pop\n        /* \"#utility.yul\":2138:2171   */\n      tag_296\n        /* \"#utility.yul\":2165:2170   */\n      dup2\n        /* \"#utility.yul\":2138:2171   */\n      tag_252\n      jump\t// in\n    tag_296:\n        /* \"#utility.yul\":2038:2177   */\n      swap3\n      swap2\n      pop\n      pop\n      jump\t// out\n        /* \"#utility.yul\":2183:2260   */\n    tag_254:\n        /* \"#utility.yul\":2220:2227   */\n      0x00\n        /* \"#utility.yul\":2249:2254   */\n      dup2\n        /* \"#utility.yul\":2238:2254   */\n      swap1\n      pop\n        /* \"#utility.yul\":2183:2260   */\n      swap2\n      swap1\n      pop\n      jump\t// out\n        /* \"#utility.yul\":2266:2388   */\n    tag_255:\n        /* \"#utility.yul\":2339:2363   */\n      tag_299\n        /* \"#utility.yul\":2357:2362   */\n      dup2\n        /* \"#utility.yul\":2339:2363   */\n      tag_254\n      jump\t// in\n    tag_299:\n        /* \"#utility.yul\":2332:2337   */\n      dup2\n        /* \"#utility.yul\":2329:2364   */\n      eq\n        /* \"#utility.yul\":2319:2382   */\n      tag_300\n      jumpi\n        /* \"#utility.yul\":2378:2379   */\n      0x00\n        /* \"#utility.yul\":2375:2376   */\n      dup1\n        /* \"#utility.yul\":2368:2380   */\n      revert\n        /* \"#utility.yul\":2319:2382   */\n    tag_300:\n        /* \"#utility.yul\":2266:2388   */\n      pop\n      jump\t// out\n        /* \"#utility.yul\":2394:2533   */\n    tag_256:\n        /* \"#utility.yul\":2440:2445   */\n      0x00\n        /* \"#utility.yul\":2478:2484   */\n      dup2\n        /* \"#utility.yul\":2465:2485   */\n      calldataload\n        /* \"#utility.yul\":2456:2485   */\n      swap1\n      pop\n        /* \"#utility.yul\":2494:2527   */\n      tag_302\n        /* \"#utility.yul\":2521:2526   */\n      dup2\n        /* \"#utility.yul\":2494:2527   */\n      tag_255\n      jump\t// in\n    tag_302:\n        /* \"#utility.yul\":2394:2533   */\n      swap3\n      swap2\n      pop\n      pop\n      jump\t// out\n        /* \"#utility.yul\":2539:3013   */\n    tag_30:\n        /* \"#utility.yul\":2607:2613   */\n      0x00\n        /* \"#utility.yul\":2615:2621   */\n      dup1\n        /* \"#utility.yul\":2664:2666   */\n      0x40\n        /* \"#utility.yul\":2652:2661   */\n      dup4\n        /* \"#utility.yul\":2643:2650   */\n      dup6\n        /* \"#utility.yul\":2639:2662   */\n      sub\n        /* \"#utility.yul\":2635:2667   */\n      slt\n        /* \"#utility.yul\":2632:2751   */\n      iszero\n      tag_304\n      jumpi\n        /* \"#utility.yul\":2670:2749   */\n      tag_305\n      tag_248\n      jump\t// in\n    tag_305:\n        /* \"#utility.yul\":2632:2751   */\n    tag_304:\n        /* \"#utility.yul\":2790:2791   */\n      0x00\n        /* \"#utility.yul\":2815:2868   */\n      tag_306\n        /* \"#utility.yul\":2860:2867   */\n      dup6\n        /* \"#utility.yul\":2851:2857   */\n      dup3\n        /* \"#utility.yul\":2840:2849   */\n      dup7\n        /* \"#utility.yul\":2836:2858   */\n      add\n        /* \"#utility.yul\":2815:2868   */\n      tag_253\n      jump\t// in\n    tag_306:\n        /* \"#utility.yul\":2805:2868   */\n      swap3\n      pop\n        /* \"#utility.yul\":2761:2878   */\n      pop\n        /* \"#utility.yul\":2917:2919   */\n      0x20\n        /* \"#utility.yul\":2943:2996   */\n      tag_307\n        /* \"#utility.yul\":2988:2995   */\n      dup6\n        /* \"#utility.yul\":2979:2985   */\n      dup3\n        /* \"#utility.yul\":2968:2977   */\n      dup7\n        /* \"#utility.yul\":2964:2986   */\n      add\n        /* \"#utility.yul\":2943:2996   */\n      tag_256\n      jump\t// in\n    tag_307:\n        /* \"#utility.yul\":2933:2996   */\n      swap2\n      pop\n        /* \"#utility.yul\":2888:3006   */\n      pop\n        /* \"#utility.yul\":2539:3013   */\n      swap3\n      pop\n      swap3\n      swap1\n      pop\n      jump\t// out\n        /* \"#utility.yul\":3019:3109   */\n    tag_257:\n        /* \"#utility.yul\":3053:3060   */\n      0x00\n        /* \"#utility.yul\":3096:3101   */\n      dup2\n        /* \"#utility.yul\":3089:3102   */\n      iszero\n        /* \"#utility.yul\":3082:3103   */\n      iszero\n        /* \"#utility.yul\":3071:3103   */\n      swap1\n      pop\n        /* \"#utility.yul\":3019:3109   */\n      swap2\n      swap1\n      pop\n      jump\t// out\n        /* \"#utility.yul\":3115:3224   */\n    tag_258:\n        /* \"#utility.yul\":3196:3217   */\n      tag_310\n        /* \"#utility.yul\":3211:3216   */\n      dup2\n        /* \"#utility.yul\":3196:3217   */\n      tag_257\n      jump\t// in\n    tag_310:\n        /* \"#utility.yul\":3191:3194   */\n      dup3\n        /* \"#utility.yul\":3184:3218   */\n      mstore\n        /* \"#utility.yul\":3115:3224   */\n      pop\n      pop\n      jump\t// out\n        /* \"#utility.yul\":3230:3440   */\n    tag_33:\n        /* \"#utility.yul\":3317:3321   */\n      0x00\n        /* \"#utility.yul\":3355:3357   */\n      0x20\n        /* \"#utility.yul\":3344:3353   */\n      dup3\n        /* \"#utility.yul\":3340:3358   */\n      add\n        /* \"#utility.yul\":3332:3358   */\n      swap1\n      pop\n        /* \"#utility.yul\":3368:3433   */\n      tag_312\n        /* \"#utility.yul\":3430:3431   */\n      0x00\n        /* \"#utility.yul\":3419:3428   */\n      dup4\n        /* \"#utility.yul\":3415:3432   */\n      add\n        /* \"#utility.yul\":3406:3412   */\n      dup5\n        /* \"#utility.yul\":3368:3433   */\n      tag_258\n      jump\t// in\n    tag_312:\n        /* \"#utility.yul\":3230:3440   */\n      swap3\n      swap2\n      pop\n      pop\n      jump\t// out\n        /* \"#utility.yul\":3446:3564   */\n    tag_259:\n        /* \"#utility.yul\":3533:3557   */\n      tag_314\n        /* \"#utility.yul\":3551:3556   */\n      dup2\n        /* \"#utility.yul\":3533:3557   */\n      tag_254\n      jump\t// in\n    tag_314:\n        /* \"#utility.yul\":3528:3531   */\n      dup3\n        /* \"#utility.yul\":3521:3558   */\n      mstore\n        /* \"#utility.yul\":3446:3564   */\n      pop\n      pop\n      jump\t// out\n        /* \"#utility.yul\":3570:3792   */\n    tag_37:\n        /* \"#utility.yul\":3663:3667   */\n      0x00\n        /* \"#utility.yul\":3701:3703   */\n      0x20\n        /* \"#utility.yul\":3690:3699   */\n      dup3\n        /* \"#utility.yul\":3686:3704   */\n      add\n        /* \"#utility.yul\":3678:3704   */\n      swap1\n      pop\n        /* \"#utility.yul\":3714:3785   */\n      tag_316\n        /* \"#utility.yul\":3782:3783   */\n      0x00\n        /* \"#utility.yul\":3771:3780   */\n      dup4\n        /* \"#utility.yul\":3767:3784   */\n      add\n        /* \"#utility.yul\":3758:3764   */\n      dup5\n        /* \"#utility.yul\":3714:3785   */\n      tag_259\n      jump\t// in\n    tag_316:\n        /* \"#utility.yul\":3570:3792   */\n      swap3\n      swap2\n      pop\n      pop\n      jump\t// out\n        /* \"#utility.yul\":3798:4417   */\n    tag_40:\n        /* \"#utility.yul\":3875:3881   */\n      0x00\n        /* \"#utility.yul\":3883:3889   */\n      dup1\n        /* \"#utility.yul\":3891:3897   */\n      0x00\n        /* \"#utility.yul\":3940:3942   */\n      0x60\n        /* \"#utility.yul\":3928:3937   */\n      dup5\n        /* \"#utility.yul\":3919:3926   */\n      dup7\n        /* \"#utility.yul\":3915:3938   */\n      sub\n        /* \"#utility.yul\":3911:3943   */\n      slt\n        /* \"#utility.yul\":3908:4027   */\n      iszero\n      tag_318\n      jumpi\n        /* \"#utility.yul\":3946:4025   */\n      tag_319\n      tag_248\n      jump\t// in\n    tag_319:\n        /* \"#utility.yul\":3908:4027   */\n    tag_318:\n        /* \"#utility.yul\":4066:4067   */\n      0x00\n        /* \"#utility.yul\":4091:4144   */\n      tag_320\n        /* \"#utility.yul\":4136:4143   */\n      dup7\n        /* \"#utility.yul\":4127:4133   */\n      dup3\n        /* \"#utility.yul\":4116:4125   */\n      dup8\n        /* \"#utility.yul\":4112:4134   */\n      add\n        /* \"#utility.yul\":4091:4144   */\n      tag_253\n      jump\t// in\n    tag_320:\n        /* \"#utility.yul\":4081:4144   */\n      swap4\n      pop\n        /* \"#utility.yul\":4037:4154   */\n      pop\n        /* \"#utility.yul\":4193:4195   */\n      0x20\n        /* \"#utility.yul\":4219:4272   */\n      tag_321\n        /* \"#utility.yul\":4264:4271   */\n      dup7\n        /* \"#utility.yul\":4255:4261   */\n      dup3\n        /* \"#utility.yul\":4244:4253   */\n      dup8\n        /* \"#utility.yul\":4240:4262   */\n      add\n        /* \"#utility.yul\":4219:4272   */\n      tag_253\n      jump\t// in\n    tag_321:\n        /* \"#utility.yul\":4209:4272   */\n      swap3\n      pop\n        /* \"#utility.yul\":4164:4282   */\n      pop\n        /* \"#utility.yul\":4321:4323   */\n      0x40\n        /* \"#utility.yul\":4347:4400   */\n      tag_322\n        /* \"#utility.yul\":4392:4399   */\n      dup7\n        /* \"#utility.yul\":4383:4389   */\n      dup3\n        /* \"#utility.yul\":4372:4381   */\n      dup8\n        /* \"#utility.yul\":4368:4390   */\n      add\n        /* \"#utility.yul\":4347:4400   */\n      tag_256\n      jump\t// in\n    tag_322:\n        /* \"#utility.yul\":4337:4400   */\n      swap2\n      pop\n        /* \"#utility.yul\":4292:4410   */\n      pop\n        /* \"#utility.yul\":3798:4417   */\n      swap3\n      pop\n      swap3\n      pop\n      swap3\n      jump\t// out\n        /* \"#utility.yul\":4423:4509   */\n    tag_260:\n        /* \"#utility.yul\":4458:4465   */\n      0x00\n        /* \"#utility.yul\":4498:4502   */\n      0xff\n        /* \"#utility.yul\":4491:4496   */\n      dup3\n        /* \"#utility.yul\":4487:4503   */\n      and\n        /* \"#utility.yul\":4476:4503   */\n      swap1\n      pop\n        /* \"#utility.yul\":4423:4509   */\n      swap2\n      swap1\n      pop\n      jump\t// out\n        /* \"#utility.yul\":4515:4627   */\n    tag_261:\n        /* \"#utility.yul\":4598:4620   */\n      tag_325\n        /* \"#utility.yul\":4614:4619   */\n      dup2\n        /* \"#utility.yul\":4598:4620   */\n      tag_260\n      jump\t// in\n    tag_325:\n        /* \"#utility.yul\":4593:4596   */\n      dup3\n        /* \"#utility.yul\":4586:4621   */\n      mstore\n        /* \"#utility.yul\":4515:4627   */\n      pop\n      pop\n      jump\t// out\n        /* \"#utility.yul\":4633:4847   */\n    tag_46:\n        /* \"#utility.yul\":4722:4726   */\n      0x00\n        /* \"#utility.yul\":4760:4762   */\n      0x20\n        /* \"#utility.yul\":4749:4758   */\n      dup3\n        /* \"#utility.yul\":4745:4763   */\n      add\n        /* \"#utility.yul\":4737:4763   */\n      swap1\n      pop\n        /* \"#utility.yul\":4773:4840   */\n      tag_327\n        /* \"#utility.yul\":4837:4838   */\n      0x00\n        /* \"#utility.yul\":4826:4835   */\n      dup4\n        /* \"#utility.yul\":4822:4839   */\n      add\n        /* \"#utility.yul\":4813:4819   */\n      dup5\n        /* \"#utility.yul\":4773:4840   */\n      tag_261\n      jump\t// in\n    tag_327:\n        /* \"#utility.yul\":4633:4847   */\n      swap3\n      swap2\n      pop\n      pop\n      jump\t// out\n        /* \"#utility.yul\":4853:5182   */\n    tag_52:\n        /* \"#utility.yul\":4912:4918   */\n      0x00\n        /* \"#utility.yul\":4961:4963   */\n      0x20\n        /* \"#utility.yul\":4949:4958   */\n      dup3\n        /* \"#utility.yul\":4940:4947   */\n      dup5\n        /* \"#utility.yul\":4936:4959   */\n      sub\n        /* \"#utility.yul\":4932:4964   */\n      slt\n        /* \"#utility.yul\":4929:5048   */\n      iszero\n      tag_329\n      jumpi\n        /* \"#utility.yul\":4967:5046   */\n      tag_330\n      tag_248\n      jump\t// in\n    tag_330:\n        /* \"#utility.yul\":4929:5048   */\n    tag_329:\n        /* \"#utility.yul\":5087:5088   */\n      0x00\n        /* \"#utility.yul\":5112:5165   */\n      tag_331\n        /* \"#utility.yul\":5157:5164   */\n      dup5\n        /* \"#utility.yul\":5148:5154   */\n      dup3\n        /* \"#utility.yul\":5137:5146   */\n      dup6\n        /* \"#utility.yul\":5133:5155   */\n      add\n        /* \"#utility.yul\":5112:5165   */\n      tag_256\n      jump\t// in\n    tag_331:\n        /* \"#utility.yul\":5102:5165   */\n      swap2\n      pop\n        /* \"#utility.yul\":5058:5175   */\n      pop\n        /* \"#utility.yul\":4853:5182   */\n      swap3\n      swap2\n      pop\n      pop\n      jump\t// out\n        /* \"#utility.yul\":5188:5306   */\n    tag_262:\n        /* \"#utility.yul\":5275:5299   */\n      tag_333\n        /* \"#utility.yul\":5293:5298   */\n      dup2\n        /* \"#utility.yul\":5275:5299   */\n      tag_251\n      jump\t// in\n    tag_333:\n        /* \"#utility.yul\":5270:5273   */\n      dup3\n        /* \"#utility.yul\":5263:5300   */\n      mstore\n        /* \"#utility.yul\":5188:5306   */\n      pop\n      pop\n      jump\t// out\n        /* \"#utility.yul\":5312:5534   */\n    tag_58:\n        /* \"#utility.yul\":5405:5409   */\n      0x00\n        /* \"#utility.yul\":5443:5445   */\n      0x20\n        /* \"#utility.yul\":5432:5441   */\n      dup3\n        /* \"#utility.yul\":5428:5446   */\n      add\n        /* \"#utility.yul\":5420:5446   */\n      swap1\n      pop\n        /* \"#utility.yul\":5456:5527   */\n      tag_335\n        /* \"#utility.yul\":5524:5525   */\n      0x00\n        /* \"#utility.yul\":5513:5522   */\n      dup4\n        /* \"#utility.yul\":5509:5526   */\n      add\n        /* \"#utility.yul\":5500:5506   */\n      dup5\n        /* \"#utility.yul\":5456:5527   */\n      tag_262\n      jump\t// in\n    tag_335:\n        /* \"#utility.yul\":5312:5534   */\n      swap3\n      swap2\n      pop\n      pop\n      jump\t// out\n        /* \"#utility.yul\":5540:5869   */\n    tag_61:\n        /* \"#utility.yul\":5599:5605   */\n      0x00\n        /* \"#utility.yul\":5648:5650   */\n      0x20\n        /* \"#utility.yul\":5636:5645   */\n      dup3\n        /* \"#utility.yul\":5627:5634   */\n      dup5\n        /* \"#utility.yul\":5623:5646   */\n      sub\n        /* \"#utility.yul\":5619:5651   */\n      slt\n        /* \"#utility.yul\":5616:5735   */\n      iszero\n      tag_337\n      jumpi\n        /* \"#utility.yul\":5654:5733   */\n      tag_338\n      tag_248\n      jump\t// in\n    tag_338:\n        /* \"#utility.yul\":5616:5735   */\n    tag_337:\n        /* \"#utility.yul\":5774:5775   */\n      0x00\n        /* \"#utility.yul\":5799:5852   */\n      tag_339\n        /* \"#utility.yul\":5844:5851   */\n      dup5\n        /* \"#utility.yul\":5835:5841   */\n      dup3\n        /* \"#utility.yul\":5824:5833   */\n      dup6\n        /* \"#utility.yul\":5820:5842   */\n      add\n        /* \"#utility.yul\":5799:5852   */\n      tag_253\n      jump\t// in\n    tag_339:\n        /* \"#utility.yul\":5789:5852   */\n      swap2\n      pop\n        /* \"#utility.yul\":5745:5862   */\n      pop\n        /* \"#utility.yul\":5540:5869   */\n      swap3\n      swap2\n      pop\n      pop\n      jump\t// out\n        /* \"#utility.yul\":5875:6428   */\n    tag_71:\n        /* \"#utility.yul\":6052:6056   */\n      0x00\n        /* \"#utility.yul\":6090:6093   */\n      0x80\n        /* \"#utility.yul\":6079:6088   */\n      dup3\n        /* \"#utility.yul\":6075:6094   */\n      add\n        /* \"#utility.yul\":6067:6094   */\n      swap1\n      pop\n        /* \"#utility.yul\":6104:6175   */\n      tag_341\n        /* \"#utility.yul\":6172:6173   */\n      0x00\n        /* \"#utility.yul\":6161:6170   */\n      dup4\n        /* \"#utility.yul\":6157:6174   */\n      add\n        /* \"#utility.yul\":6148:6154   */\n      dup8\n        /* \"#utility.yul\":6104:6175   */\n      tag_262\n      jump\t// in\n    tag_341:\n        /* \"#utility.yul\":6185:6257   */\n      tag_342\n        /* \"#utility.yul\":6253:6255   */\n      0x20\n        /* \"#utility.yul\":6242:6251   */\n      dup4\n        /* \"#utility.yul\":6238:6256   */\n      add\n        /* \"#utility.yul\":6229:6235   */\n      dup7\n        /* \"#utility.yul\":6185:6257   */\n      tag_262\n      jump\t// in\n    tag_342:\n        /* \"#utility.yul\":6267:6339   */\n      tag_343\n        /* \"#utility.yul\":6335:6337   */\n      0x40\n        /* \"#utility.yul\":6324:6333   */\n      dup4\n        /* \"#utility.yul\":6320:6338   */\n      add\n        /* \"#utility.yul\":6311:6317   */\n      dup6\n        /* \"#utility.yul\":6267:6339   */\n      tag_259\n      jump\t// in\n    tag_343:\n        /* \"#utility.yul\":6349:6421   */\n      tag_344\n        /* \"#utility.yul\":6417:6419   */\n      0x60\n        /* \"#utility.yul\":6406:6415   */\n      dup4\n        /* \"#utility.yul\":6402:6420   */\n      add\n        /* \"#utility.yul\":6393:6399   */\n      dup5\n        /* \"#utility.yul\":6349:6421   */\n      tag_259\n      jump\t// in\n    tag_344:\n        /* \"#utility.yul\":5875:6428   */\n      swap6\n      swap5\n      pop\n      pop\n      pop\n      pop\n      pop\n      jump\t// out\n        /* \"#utility.yul\":6434:7209   */\n    tag_85:\n        /* \"#utility.yul\":6667:6671   */\n      0x00\n        /* \"#utility.yul\":6705:6708   */\n      0xc0\n        /* \"#utility.yul\":6694:6703   */\n      dup3\n        /* \"#utility.yul\":6690:6709   */\n      add\n        /* \"#utility.yul\":6682:6709   */\n      swap1\n      pop\n        /* \"#utility.yul\":6719:6790   */\n      tag_346\n        /* \"#utility.yul\":6787:6788   */\n      0x00\n        /* \"#utility.yul\":6776:6785   */\n      dup4\n        /* \"#utility.yul\":6772:6789   */\n      add\n        /* \"#utility.yul\":6763:6769   */\n      dup10\n        /* \"#utility.yul\":6719:6790   */\n      tag_259\n      jump\t// in\n    tag_346:\n        /* \"#utility.yul\":6800:6872   */\n      tag_347\n        /* \"#utility.yul\":6868:6870   */\n      0x20\n        /* \"#utility.yul\":6857:6866   */\n      dup4\n        /* \"#utility.yul\":6853:6871   */\n      add\n        /* \"#utility.yul\":6844:6850   */\n      dup9\n        /* \"#utility.yul\":6800:6872   */\n      tag_259\n      jump\t// in\n    tag_347:\n        /* \"#utility.yul\":6882:6954   */\n      tag_348\n        /* \"#utility.yul\":6950:6952   */\n      0x40\n        /* \"#utility.yul\":6939:6948   */\n      dup4\n        /* \"#utility.yul\":6935:6953   */\n      add\n        /* \"#utility.yul\":6926:6932   */\n      dup8\n        /* \"#utility.yul\":6882:6954   */\n      tag_259\n      jump\t// in\n    tag_348:\n        /* \"#utility.yul\":6964:7036   */\n      tag_349\n        /* \"#utility.yul\":7032:7034   */\n      0x60\n        /* \"#utility.yul\":7021:7030   */\n      dup4\n        /* \"#utility.yul\":7017:7035   */\n      add\n        /* \"#utility.yul\":7008:7014   */\n      dup7\n        /* \"#utility.yul\":6964:7036   */\n      tag_259\n      jump\t// in\n    tag_349:\n        /* \"#utility.yul\":7046:7119   */\n      tag_350\n        /* \"#utility.yul\":7114:7117   */\n      0x80\n        /* \"#utility.yul\":7103:7112   */\n      dup4\n        /* \"#utility.yul\":7099:7118   */\n      add\n        /* \"#utility.yul\":7090:7096   */\n      dup6\n        /* \"#utility.yul\":7046:7119   */\n      tag_259\n      jump\t// in\n    tag_350:\n        /* \"#utility.yul\":7129:7202   */\n      tag_351\n        /* \"#utility.yul\":7197:7200   */\n      0xa0\n        /* \"#utility.yul\":7186:7195   */\n      dup4\n        /* \"#utility.yul\":7182:7201   */\n      add\n        /* \"#utility.yul\":7173:7179   */\n      dup5\n        /* \"#utility.yul\":7129:7202   */\n      tag_259\n      jump\t// in\n    tag_351:\n        /* \"#utility.yul\":6434:7209   */\n      swap8\n      swap7\n      pop\n      pop\n      pop\n      pop\n      pop\n      pop\n      pop\n      jump\t// out\n        /* \"#utility.yul\":7215:7689   */\n    tag_92:\n        /* \"#utility.yul\":7283:7289   */\n      0x00\n        /* \"#utility.yul\":7291:7297   */\n      dup1\n        /* \"#utility.yul\":7340:7342   */\n      0x40\n        /* \"#utility.yul\":7328:7337   */\n      dup4\n        /* \"#utility.yul\":7319:7326   */\n      dup6\n        /* \"#utility.yul\":7315:7338   */\n      sub\n        /* \"#utility.yul\":7311:7343   */\n      slt\n        /* \"#utility.yul\":7308:7427   */\n      iszero\n      tag_353\n      jumpi\n        /* \"#utility.yul\":7346:7425   */\n      tag_354\n      tag_248\n      jump\t// in\n    tag_354:\n        /* \"#utility.yul\":7308:7427   */\n    tag_353:\n        /* \"#utility.yul\":7466:7467   */\n      0x00\n        /* \"#utility.yul\":7491:7544   */\n      tag_355\n        /* \"#utility.yul\":7536:7543   */\n      dup6\n        /* \"#utility.yul\":7527:7533   */\n      dup3\n        /* \"#utility.yul\":7516:7525   */\n      dup7\n        /* \"#utility.yul\":7512:7534   */\n      add\n        /* \"#utility.yul\":7491:7544   */\n      tag_253\n      jump\t// in\n    tag_355:\n        /* \"#utility.yul\":7481:7544   */\n      swap3\n      pop\n        /* \"#utility.yul\":7437:7554   */\n      pop\n        /* \"#utility.yul\":7593:7595   */\n      0x20\n        /* \"#utility.yul\":7619:7672   */\n      tag_356\n        /* \"#utility.yul\":7664:7671   */\n      dup6\n        /* \"#utility.yul\":7655:7661   */\n      dup3\n        /* \"#utility.yul\":7644:7653   */\n      dup7\n        /* \"#utility.yul\":7640:7662   */\n      add\n        /* \"#utility.yul\":7619:7672   */\n      tag_253\n      jump\t// in\n    tag_356:\n        /* \"#utility.yul\":7609:7672   */\n      swap2\n      pop\n        /* \"#utility.yul\":7564:7682   */\n      pop\n        /* \"#utility.yul\":7215:7689   */\n      swap3\n      pop\n      swap3\n      swap1\n      pop\n      jump\t// out\n        /* \"#utility.yul\":7695:7875   */\n    tag_263:\n        /* \"#utility.yul\":7743:7820   */\n      0x4e487b7100000000000000000000000000000000000000000000000000000000\n        /* \"#utility.yul\":7740:7741   */\n      0x00\n        /* \"#utility.yul\":7733:7821   */\n      mstore\n        /* \"#utility.yul\":7840:7844   */\n      0x22\n        /* \"#utility.yul\":7837:7838   */\n      0x04\n        /* \"#utility.yul\":7830:7845   */\n      mstore\n        /* \"#utility.yul\":7864:7868   */\n      0x24\n        /* \"#utility.yul\":7861:7862   */\n      0x00\n        /* \"#utility.yul\":7854:7869   */\n      revert\n        /* \"#utility.yul\":7881:8201   */\n    tag_100:\n        /* \"#utility.yul\":7925:7931   */\n      0x00\n        /* \"#utility.yul\":7962:7963   */\n      0x02\n        /* \"#utility.yul\":7956:7960   */\n      dup3\n        /* \"#utility.yul\":7952:7964   */\n      div\n        /* \"#utility.yul\":7942:7964   */\n      swap1\n      pop\n        /* \"#utility.yul\":8009:8010   */\n      0x01\n        /* \"#utility.yul\":8003:8007   */\n      dup3\n        /* \"#utility.yul\":7999:8011   */\n      and\n        /* \"#utility.yul\":8030:8048   */\n      dup1\n        /* \"#utility.yul\":8020:8101   */\n      tag_359\n      jumpi\n        /* \"#utility.yul\":8086:8090   */\n      0x7f\n        /* \"#utility.yul\":8078:8084   */\n      dup3\n        /* \"#utility.yul\":8074:8091   */\n      and\n        /* \"#utility.yul\":8064:8091   */\n      swap2\n      pop\n        /* \"#utility.yul\":8020:8101   */\n    tag_359:\n        /* \"#utility.yul\":8148:8150   */\n      0x20\n        /* \"#utility.yul\":8140:8146   */\n      dup3\n        /* \"#utility.yul\":8137:8151   */\n      lt\n        /* \"#utility.yul\":8117:8135   */\n      dup2\n        /* \"#utility.yul\":8114:8152   */\n      sub\n        /* \"#utility.yul\":8111:8195   */\n      tag_360\n      jumpi\n        /* \"#utility.yul\":8167:8185   */\n      tag_361\n      tag_263\n      jump\t// in\n    tag_361:\n        /* \"#utility.yul\":8111:8195   */\n    tag_360:\n        /* \"#utility.yul\":7932:8201   */\n      pop\n        /* \"#utility.yul\":7881:8201   */\n      swap2\n      swap1\n      pop\n      jump\t// out\n        /* \"#utility.yul\":8207:8367   */\n    tag_264:\n        /* \"#utility.yul\":8347:8359   */\n      0x6f6e6c792061646d696e00000000000000000000000000000000000000000000\n        /* \"#utility.yul\":8343:8344   */\n      0x00\n        /* \"#utility.yul\":8335:8341   */\n      dup3\n        /* \"#utility.yul\":8331:8345   */\n      add\n        /* \"#utility.yul\":8324:8360   */\n      mstore\n        /* \"#utility.yul\":8207:8367   */\n      pop\n      jump\t// out\n        /* \"#utility.yul\":8373:8739   */\n    tag_265:\n        /* \"#utility.yul\":8515:8518   */\n      0x00\n        /* \"#utility.yul\":8536:8603   */\n      tag_364\n        /* \"#utility.yul\":8600:8602   */\n      0x0a\n        /* \"#utility.yul\":8595:8598   */\n      dup4\n        /* \"#utility.yul\":8536:8603   */\n      tag_243\n      jump\t// in\n    tag_364:\n        /* \"#utility.yul\":8529:8603   */\n      swap2\n      pop\n        /* \"#utility.yul\":8612:8705   */\n      tag_365\n        /* \"#utility.yul\":8701:8704   */\n      dup3\n        /* \"#utility.yul\":8612:8705   */\n      tag_264\n      jump\t// in\n    tag_365:\n        /* \"#utility.yul\":8730:8732   */\n      0x20\n        /* \"#utility.yul\":8725:8728   */\n      dup3\n        /* \"#utility.yul\":8721:8733   */\n      add\n        /* \"#utility.yul\":8714:8733   */\n      swap1\n      pop\n        /* \"#utility.yul\":8373:8739   */\n      swap2\n      swap1\n      pop\n      jump\t// out\n        /* \"#utility.yul\":8745:9164   */\n    tag_121:\n        /* \"#utility.yul\":8911:8915   */\n      0x00\n        /* \"#utility.yul\":8949:8951   */\n      0x20\n        /* \"#utility.yul\":8938:8947   */\n      dup3\n        /* \"#utility.yul\":8934:8952   */\n      add\n        /* \"#utility.yul\":8926:8952   */\n      swap1\n      pop\n        /* \"#utility.yul\":8998:9007   */\n      dup2\n        /* \"#utility.yul\":8992:8996   */\n      dup2\n        /* \"#utility.yul\":8988:9008   */\n      sub\n        /* \"#utility.yul\":8984:8985   */\n      0x00\n        /* \"#utility.yul\":8973:8982   */\n      dup4\n        /* \"#utility.yul\":8969:8986   */\n      add\n        /* \"#utility.yul\":8962:9009   */\n      mstore\n        /* \"#utility.yul\":9026:9157   */\n      tag_367\n        /* \"#utility.yul\":9152:9156   */\n      dup2\n        /* \"#utility.yul\":9026:9157   */\n      tag_265\n      jump\t// in\n    tag_367:\n        /* \"#utility.yul\":9018:9157   */\n      swap1\n      pop\n        /* \"#utility.yul\":8745:9164   */\n      swap2\n      swap1\n      pop\n      jump\t// out\n        /* \"#utility.yul\":9170:9342   */\n    tag_266:\n        /* \"#utility.yul\":9310:9334   */\n      0x496e76616c6964207472616e73616374696f6e20494400000000000000000000\n        /* \"#utility.yul\":9306:9307   */\n      0x00\n        /* \"#utility.yul\":9298:9304   */\n      dup3\n        /* \"#utility.yul\":9294:9308   */\n      add\n        /* \"#utility.yul\":9287:9335   */\n      mstore\n        /* \"#utility.yul\":9170:9342   */\n      pop\n      jump\t// out\n        /* \"#utility.yul\":9348:9714   */\n    tag_267:\n        /* \"#utility.yul\":9490:9493   */\n      0x00\n        /* \"#utility.yul\":9511:9578   */\n      tag_370\n        /* \"#utility.yul\":9575:9577   */\n      0x16\n        /* \"#utility.yul\":9570:9573   */\n      dup4\n        /* \"#utility.yul\":9511:9578   */\n      tag_243\n      jump\t// in\n    tag_370:\n        /* \"#utility.yul\":9504:9578   */\n      swap2\n      pop\n        /* \"#utility.yul\":9587:9680   */\n      tag_371\n        /* \"#utility.yul\":9676:9679   */\n      dup3\n        /* \"#utility.yul\":9587:9680   */\n      tag_266\n      jump\t// in\n    tag_371:\n        /* \"#utility.yul\":9705:9707   */\n      0x20\n        /* \"#utility.yul\":9700:9703   */\n      dup3\n        /* \"#utility.yul\":9696:9708   */\n      add\n        /* \"#utility.yul\":9689:9708   */\n      swap1\n      pop\n        /* \"#utility.yul\":9348:9714   */\n      swap2\n      swap1\n      pop\n      jump\t// out\n        /* \"#utility.yul\":9720:10139   */\n    tag_133:\n        /* \"#utility.yul\":9886:9890   */\n      0x00\n        /* \"#utility.yul\":9924:9926   */\n      0x20\n        /* \"#utility.yul\":9913:9922   */\n      dup3\n        /* \"#utility.yul\":9909:9927   */\n      add\n        /* \"#utility.yul\":9901:9927   */\n      swap1\n      pop\n        /* \"#utility.yul\":9973:9982   */\n      dup2\n        /* \"#utility.yul\":9967:9971   */\n      dup2\n        /* \"#utility.yul\":9963:9983   */\n      sub\n        /* \"#utility.yul\":9959:9960   */\n      0x00\n        /* \"#utility.yul\":9948:9957   */\n      dup4\n        /* \"#utility.yul\":9944:9961   */\n      add\n        /* \"#utility.yul\":9937:9984   */\n      mstore\n        /* \"#utility.yul\":10001:10132   */\n      tag_373\n        /* \"#utility.yul\":10127:10131   */\n      dup2\n        /* \"#utility.yul\":10001:10132   */\n      tag_267\n      jump\t// in\n    tag_373:\n        /* \"#utility.yul\":9993:10132   */\n      swap1\n      pop\n        /* \"#utility.yul\":9720:10139   */\n      swap2\n      swap1\n      pop\n      jump\t// out\n        /* \"#utility.yul\":10145:10587   */\n    tag_161:\n        /* \"#utility.yul\":10294:10298   */\n      0x00\n        /* \"#utility.yul\":10332:10334   */\n      0x60\n        /* \"#utility.yul\":10321:10330   */\n      dup3\n        /* \"#utility.yul\":10317:10335   */\n      add\n        /* \"#utility.yul\":10309:10335   */\n      swap1\n      pop\n        /* \"#utility.yul\":10345:10416   */\n      tag_375\n        /* \"#utility.yul\":10413:10414   */\n      0x00\n        /* \"#utility.yul\":10402:10411   */\n      dup4\n        /* \"#utility.yul\":10398:10415   */\n      add\n        /* \"#utility.yul\":10389:10395   */\n      dup7\n        /* \"#utility.yul\":10345:10416   */\n      tag_262\n      jump\t// in\n    tag_375:\n        /* \"#utility.yul\":10426:10498   */\n      tag_376\n        /* \"#utility.yul\":10494:10496   */\n      0x20\n        /* \"#utility.yul\":10483:10492   */\n      dup4\n        /* \"#utility.yul\":10479:10497   */\n      add\n        /* \"#utility.yul\":10470:10476   */\n      dup6\n        /* \"#utility.yul\":10426:10498   */\n      tag_259\n      jump\t// in\n    tag_376:\n        /* \"#utility.yul\":10508:10580   */\n      tag_377\n        /* \"#utility.yul\":10576:10578   */\n      0x40\n        /* \"#utility.yul\":10565:10574   */\n      dup4\n        /* \"#utility.yul\":10561:10579   */\n      add\n        /* \"#utility.yul\":10552:10558   */\n      dup5\n        /* \"#utility.yul\":10508:10580   */\n      tag_259\n      jump\t// in\n    tag_377:\n        /* \"#utility.yul\":10145:10587   */\n      swap5\n      swap4\n      pop\n      pop\n      pop\n      pop\n      jump\t// out\n        /* \"#utility.yul\":10593:10773   */\n    tag_268:\n        /* \"#utility.yul\":10641:10718   */\n      0x4e487b7100000000000000000000000000000000000000000000000000000000\n        /* \"#utility.yul\":10638:10639   */\n      0x00\n        /* \"#utility.yul\":10631:10719   */\n      mstore\n        /* \"#utility.yul\":10738:10742   */\n      0x11\n        /* \"#utility.yul\":10735:10736   */\n      0x04\n        /* \"#utility.yul\":10728:10743   */\n      mstore\n        /* \"#utility.yul\":10762:10766   */\n      0x24\n        /* \"#utility.yul\":10759:10760   */\n      0x00\n        /* \"#utility.yul\":10752:10767   */\n      revert\n        /* \"#utility.yul\":10779:11012   */\n    tag_176:\n        /* \"#utility.yul\":10818:10821   */\n      0x00\n        /* \"#utility.yul\":10841:10865   */\n      tag_380\n        /* \"#utility.yul\":10859:10864   */\n      dup3\n        /* \"#utility.yul\":10841:10865   */\n      tag_254\n      jump\t// in\n    tag_380:\n        /* \"#utility.yul\":10832:10865   */\n      swap2\n      pop\n        /* \"#utility.yul\":10887:10953   */\n      0xffffffffffffffffffffffffffffffffffffffffffffffffffffffffffffffff\n        /* \"#utility.yul\":10880:10885   */\n      dup3\n        /* \"#utility.yul\":10877:10954   */\n      sub\n        /* \"#utility.yul\":10874:10977   */\n      tag_381\n      jumpi\n        /* \"#utility.yul\":10957:10975   */\n      tag_382\n      tag_268\n      jump\t// in\n    tag_382:\n        /* \"#utility.yul\":10874:10977   */\n    tag_381:\n        /* \"#utility.yul\":11004:11005   */\n      0x01\n        /* \"#utility.yul\":10997:11002   */\n      dup3\n        /* \"#utility.yul\":10993:11006   */\n      add\n        /* \"#utility.yul\":10986:11006   */\n      swap1\n      pop\n        /* \"#utility.yul\":10779:11012   */\n      swap2\n      swap1\n      pop\n      jump\t// out\n        /* \"#utility.yul\":11018:11198   */\n    tag_269:\n        /* \"#utility.yul\":11066:11143   */\n      0x4e487b7100000000000000000000000000000000000000000000000000000000\n        /* \"#utility.yul\":11063:11064   */\n      0x00\n        /* \"#utility.yul\":11056:11144   */\n      mstore\n        /* \"#utility.yul\":11163:11167   */\n      0x12\n        /* \"#utility.yul\":11160:11161   */\n      0x04\n        /* \"#utility.yul\":11153:11168   */\n      mstore\n        /* \"#utility.yul\":11187:11191   */\n      0x24\n        /* \"#utility.yul\":11184:11185   */\n      0x00\n        /* \"#utility.yul\":11177:11192   */\n      revert\n        /* \"#utility.yul\":11204:11389   */\n    tag_184:\n        /* \"#utility.yul\":11244:11245   */\n      0x00\n        /* \"#utility.yul\":11261:11281   */\n      tag_385\n        /* \"#utility.yul\":11279:11280   */\n      dup3\n        /* \"#utility.yul\":11261:11281   */\n      tag_254\n      jump\t// in\n    tag_385:\n        /* \"#utility.yul\":11256:11281   */\n      swap2\n      pop\n        /* \"#utility.yul\":11295:11315   */\n      tag_386\n        /* \"#utility.yul\":11313:11314   */\n      dup4\n        /* \"#utility.yul\":11295:11315   */\n      tag_254\n      jump\t// in\n    tag_386:\n        /* \"#utility.yul\":11290:11315   */\n      swap3\n      pop\n        /* \"#utility.yul\":11334:11335   */\n      dup3\n        /* \"#utility.yul\":11324:11359   */\n      tag_387\n      jumpi\n        /* \"#utility.yul\":11339:11357   */\n      tag_388\n      tag_269\n      jump\t// in\n    tag_388:\n        /* \"#utility.yul\":11324:11359   */\n    tag_387:\n        /* \"#utility.yul\":11381:11382   */\n      dup3\n        /* \"#utility.yul\":11378:11379   */\n      dup3\n        /* \"#utility.yul\":11374:11383   */\n      div\n        /* \"#utility.yul\":11369:11383   */\n      swap1\n      pop\n        /* \"#utility.yul\":11204:11389   */\n      swap3\n      swap2\n      pop\n      pop\n      jump\t// out\n        /* \"#utility.yul\":11395:11571   */\n    tag_187:\n        /* \"#utility.yul\":11427:11428   */\n      0x00\n        /* \"#utility.yul\":11444:11464   */\n      tag_390\n        /* \"#utility.yul\":11462:11463   */\n      dup3\n        /* \"#utility.yul\":11444:11464   */\n      tag_254\n      jump\t// in\n    tag_390:\n        /* \"#utility.yul\":11439:11464   */\n      swap2\n      pop\n        /* \"#utility.yul\":11478:11498   */\n      tag_391\n        /* \"#utility.yul\":11496:11497   */\n      dup4\n        /* \"#utility.yul\":11478:11498   */\n      tag_254\n      jump\t// in\n    tag_391:\n        /* \"#utility.yul\":11473:11498   */\n      swap3\n      pop\n        /* \"#utility.yul\":11517:11518   */\n      dup3\n        /* \"#utility.yul\":11507:11542   */\n      tag_392\n      jumpi\n        /* \"#utility.yul\":11522:11540   */\n      tag_393\n      tag_269\n      jump\t// in\n    tag_393:\n        /* \"#utility.yul\":11507:11542   */\n    tag_392:\n        /* \"#utility.yul\":11563:11564   */\n      dup3\n        /* \"#utility.yul\":11560:11561   */\n      dup3\n        /* \"#utility.yul\":11556:11565   */\n      mod\n        /* \"#utility.yul\":11551:11565   */\n      swap1\n      pop\n        /* \"#utility.yul\":11395:11571   */\n      swap3\n      swap2\n      pop\n      pop\n      jump\t// out\n        /* \"#utility.yul\":11577:11768   */\n    tag_202:\n        /* \"#utility.yul\":11617:11620   */\n      0x00\n        /* \"#utility.yul\":11636:11656   */\n      tag_395\n        /* \"#utility.yul\":11654:11655   */\n      dup3\n        /* \"#utility.yul\":11636:11656   */\n      tag_254\n      jump\t// in\n    tag_395:\n        /* \"#utility.yul\":11631:11656   */\n      swap2\n      pop\n        /* \"#utility.yul\":11670:11690   */\n      tag_396\n        /* \"#utility.yul\":11688:11689   */\n      dup4\n        /* \"#utility.yul\":11670:11690   */\n      tag_254\n      jump\t// in\n    tag_396:\n        /* \"#utility.yul\":11665:11690   */\n      swap3\n      pop\n        /* \"#utility.yul\":11713:11714   */\n      dup3\n        /* \"#utility.yul\":11710:11711   */\n      dup3\n        /* \"#utility.yul\":11706:11715   */\n      add\n        /* \"#utility.yul\":11699:11715   */\n      swap1\n      pop\n        /* \"#utility.yul\":11734:11737   */\n      dup1\n        /* \"#utility.yul\":11731:11732   */\n      dup3\n        /* \"#utility.yul\":11728:11738   */\n      gt\n        /* \"#utility.yul\":11725:11761   */\n      iszero\n      tag_397\n      jumpi\n        /* \"#utility.yul\":11741:11759   */\n      tag_398\n      tag_268\n      jump\t// in\n    tag_398:\n        /* \"#utility.yul\":11725:11761   */\n    tag_397:\n        /* \"#utility.yul\":11577:11768   */\n      swap3\n      swap2\n      pop\n      pop\n      jump\t// out\n        /* \"#utility.yul\":11774:11850   */\n    tag_270:\n        /* \"#utility.yul\":11810:11817   */\n      0x00\n        /* \"#utility.yul\":11839:11844   */\n      dup2\n        /* \"#utility.yul\":11828:11844   */\n      swap1\n      pop\n        /* \"#utility.yul\":11774:11850   */\n      swap2\n      swap1\n      pop\n      jump\t// out\n        /* \"#utility.yul\":11856:12231   */\n    tag_211:\n        /* \"#utility.yul\":11895:11898   */\n      0x00\n        /* \"#utility.yul\":11914:11933   */\n      tag_401\n        /* \"#utility.yul\":11931:11932   */\n      dup3\n        /* \"#utility.yul\":11914:11933   */\n      tag_270\n      jump\t// in\n    tag_401:\n        /* \"#utility.yul\":11909:11933   */\n      swap2\n      pop\n        /* \"#utility.yul\":11947:11966   */\n      tag_402\n        /* \"#utility.yul\":11964:11965   */\n      dup4\n        /* \"#utility.yul\":11947:11966   */\n      tag_270\n      jump\t// in\n    tag_402:\n        /* \"#utility.yul\":11942:11966   */\n      swap3\n      pop\n        /* \"#utility.yul\":11989:11990   */\n      dup3\n        /* \"#utility.yul\":11986:11987   */\n      dup3\n        /* \"#utility.yul\":11982:11991   */\n      add\n        /* \"#utility.yul\":11975:11991   */\n      swap1\n      pop\n        /* \"#utility.yul\":12187:12188   */\n      dup3\n        /* \"#utility.yul\":12182:12185   */\n      dup2\n        /* \"#utility.yul\":12178:12189   */\n      slt\n        /* \"#utility.yul\":12171:12190   */\n      iszero\n        /* \"#utility.yul\":12167:12168   */\n      0x00\n        /* \"#utility.yul\":12164:12165   */\n      dup4\n        /* \"#utility.yul\":12160:12169   */\n      slt\n        /* \"#utility.yul\":12156:12191   */\n      and\n        /* \"#utility.yul\":12139:12140   */\n      dup4\n        /* \"#utility.yul\":12134:12137   */\n      dup3\n        /* \"#utility.yul\":12130:12141   */\n      slt\n        /* \"#utility.yul\":12125:12126   */\n      0x00\n        /* \"#utility.yul\":12122:12123   */\n      dup5\n        /* \"#utility.yul\":12118:12127   */\n      slt\n        /* \"#utility.yul\":12111:12128   */\n      iszero\n        /* \"#utility.yul\":12107:12142   */\n      and\n        /* \"#utility.yul\":12091:12201   */\n      or\n        /* \"#utility.yul\":12088:12224   */\n      iszero\n      tag_403\n      jumpi\n        /* \"#utility.yul\":12204:12222   */\n      tag_404\n      tag_268\n      jump\t// in\n    tag_404:\n        /* \"#utility.yul\":12088:12224   */\n    tag_403:\n        /* \"#utility.yul\":11856:12231   */\n      swap3\n      swap2\n      pop\n      pop\n      jump\t// out\n        /* \"#utility.yul\":12237:12793   */\n    tag_214:\n        /* \"#utility.yul\":12276:12283   */\n      0x00\n        /* \"#utility.yul\":12299:12318   */\n      tag_406\n        /* \"#utility.yul\":12316:12317   */\n      dup3\n        /* \"#utility.yul\":12299:12318   */\n      tag_270\n      jump\t// in\n    tag_406:\n        /* \"#utility.yul\":12294:12318   */\n      swap2\n      pop\n        /* \"#utility.yul\":12332:12351   */\n      tag_407\n        /* \"#utility.yul\":12349:12350   */\n      dup4\n        /* \"#utility.yul\":12332:12351   */\n      tag_270\n      jump\t// in\n    tag_407:\n        /* \"#utility.yul\":12327:12351   */\n      swap3\n      pop\n        /* \"#utility.yul\":12386:12387   */\n      dup3\n        /* \"#utility.yul\":12383:12384   */\n      dup3\n        /* \"#utility.yul\":12379:12388   */\n      mul\n        /* \"#utility.yul\":12408:12437   */\n      tag_408\n        /* \"#utility.yul\":12425:12436   */\n      dup2\n        /* \"#utility.yul\":12408:12437   */\n      tag_270\n      jump\t// in\n    tag_408:\n        /* \"#utility.yul\":12397:12437   */\n      swap2\n      pop\n        /* \"#utility.yul\":12495:12561   */\n      0x8000000000000000000000000000000000000000000000000000000000000000\n        /* \"#utility.yul\":12492:12493   */\n      dup5\n        /* \"#utility.yul\":12489:12562   */\n      eq\n        /* \"#utility.yul\":12485:12486   */\n      0x00\n        /* \"#utility.yul\":12482:12483   */\n      dup5\n        /* \"#utility.yul\":12478:12487   */\n      slt\n        /* \"#utility.yul\":12474:12563   */\n      and\n        /* \"#utility.yul\":12471:12586   */\n      iszero\n      tag_409\n      jumpi\n        /* \"#utility.yul\":12566:12584   */\n      tag_410\n      tag_268\n      jump\t// in\n    tag_410:\n        /* \"#utility.yul\":12471:12586   */\n    tag_409:\n        /* \"#utility.yul\":12736:12737   */\n      dup3\n        /* \"#utility.yul\":12727:12734   */\n      dup3\n        /* \"#utility.yul\":12722:12738   */\n      sdiv\n        /* \"#utility.yul\":12719:12720   */\n      dup5\n        /* \"#utility.yul\":12716:12739   */\n      eq\n        /* \"#utility.yul\":12696:12697   */\n      dup4\n        /* \"#utility.yul\":12689:12698   */\n      iszero\n        /* \"#utility.yul\":12669:12753   */\n      or\n        /* \"#utility.yul\":12646:12786   */\n      tag_411\n      jumpi\n        /* \"#utility.yul\":12766:12784   */\n      tag_412\n      tag_268\n      jump\t// in\n    tag_412:\n        /* \"#utility.yul\":12646:12786   */\n    tag_411:\n        /* \"#utility.yul\":12284:12793   */\n      pop\n        /* \"#utility.yul\":12237:12793   */\n      swap3\n      swap2\n      pop\n      pop\n      jump\t// out\n        /* \"#utility.yul\":12799:13184   */\n    tag_216:\n        /* \"#utility.yul\":12838:12839   */\n      0x00\n        /* \"#utility.yul\":12855:12874   */\n      tag_414\n        /* \"#utility.yul\":12872:12873   */\n      dup3\n        /* \"#utility.yul\":12855:12874   */\n      tag_270\n      jump\t// in\n    tag_414:\n        /* \"#utility.yul\":12850:12874   */\n      swap2\n      pop\n        /* \"#utility.yul\":12888:12907   */\n      tag_415\n        /* \"#utility.yul\":12905:12906   */\n      dup4\n        /* \"#utility.yul\":12888:12907   */\n      tag_270\n      jump\t// in\n    tag_415:\n        /* \"#utility.yul\":12883:12907   */\n      swap3\n      pop\n        /* \"#utility.yul\":12926:12927   */\n      dup3\n        /* \"#utility.yul\":12916:12951   */\n      tag_416\n      jumpi\n        /* \"#utility.yul\":12931:12949   */\n      tag_417\n      tag_269\n      jump\t// in\n    tag_417:\n        /* \"#utility.yul\":12916:12951   */\n    tag_416:\n        /* \"#utility.yul\":13117:13118   */\n      0x01\n        /* \"#utility.yul\":13114:13115   */\n      0x00\n        /* \"#utility.yul\":13110:13119   */\n      sub\n        /* \"#utility.yul\":13107:13108   */\n      dup4\n        /* \"#utility.yul\":13104:13120   */\n      eq\n        /* \"#utility.yul\":13023:13089   */\n      0x8000000000000000000000000000000000000000000000000000000000000000\n        /* \"#utility.yul\":13020:13021   */\n      dup4\n        /* \"#utility.yul\":13017:13090   */\n      eq\n        /* \"#utility.yul\":13000:13130   */\n      and\n        /* \"#utility.yul\":12997:13153   */\n      iszero\n      tag_418\n      jumpi\n        /* \"#utility.yul\":13133:13151   */\n      tag_419\n      tag_268\n      jump\t// in\n    tag_419:\n        /* \"#utility.yul\":12997:13153   */\n    tag_418:\n        /* \"#utility.yul\":13176:13177   */\n      dup3\n        /* \"#utility.yul\":13173:13174   */\n      dup3\n        /* \"#utility.yul\":13168:13178   */\n      sdiv\n        /* \"#utility.yul\":13163:13178   */\n      swap1\n      pop\n        /* \"#utility.yul\":12799:13184   */\n      swap3\n      swap2\n      pop\n      pop\n      jump\t// out\n        /* \"#utility.yul\":13190:13562   */\n    tag_221:\n        /* \"#utility.yul\":13229:13233   */\n      0x00\n        /* \"#utility.yul\":13249:13268   */\n      tag_421\n        /* \"#utility.yul\":13266:13267   */\n      dup3\n        /* \"#utility.yul\":13249:13268   */\n      tag_270\n      jump\t// in\n    tag_421:\n        /* \"#utility.yul\":13244:13268   */\n      swap2\n      pop\n        /* \"#utility.yul\":13282:13301   */\n      tag_422\n        /* \"#utility.yul\":13299:13300   */\n      dup4\n        /* \"#utility.yul\":13282:13301   */\n      tag_270\n      jump\t// in\n    tag_422:\n        /* \"#utility.yul\":13277:13301   */\n      swap3\n      pop\n        /* \"#utility.yul\":13325:13326   */\n      dup3\n        /* \"#utility.yul\":13322:13323   */\n      dup3\n        /* \"#utility.yul\":13318:13327   */\n      sub\n        /* \"#utility.yul\":13310:13327   */\n      swap1\n      pop\n        /* \"#utility.yul\":13519:13520   */\n      dup2\n        /* \"#utility.yul\":13513:13517   */\n      dup2\n        /* \"#utility.yul\":13509:13521   */\n      slt\n        /* \"#utility.yul\":13505:13506   */\n      0x00\n        /* \"#utility.yul\":13502:13503   */\n      dup5\n        /* \"#utility.yul\":13498:13507   */\n      slt\n        /* \"#utility.yul\":13494:13522   */\n      and\n        /* \"#utility.yul\":13477:13478   */\n      dup3\n        /* \"#utility.yul\":13471:13475   */\n      dup3\n        /* \"#utility.yul\":13467:13479   */\n      sgt\n        /* \"#utility.yul\":13462:13463   */\n      0x00\n        /* \"#utility.yul\":13459:13460   */\n      dup6\n        /* \"#utility.yul\":13455:13464   */\n      slt\n        /* \"#utility.yul\":13448:13465   */\n      iszero\n        /* \"#utility.yul\":13444:13480   */\n      and\n        /* \"#utility.yul\":13428:13532   */\n      or\n        /* \"#utility.yul\":13425:13555   */\n      iszero\n      tag_423\n      jumpi\n        /* \"#utility.yul\":13535:13553   */\n      tag_424\n      tag_268\n      jump\t// in\n    tag_424:\n        /* \"#utility.yul\":13425:13555   */\n    tag_423:\n        /* \"#utility.yul\":13190:13562   */\n      swap3\n      swap2\n      pop\n      pop\n      jump\t// out\n\n    auxdata: 0xa2646970667358221220dbf2f19a3e1a38af9c33382567e05c57a61aeabe8e0bdb89b26f8ca1bb3fcc0f64736f6c63430008170033\n}\n",
				"bytecode": {
					"linkReferences": {},
					"object": "608060405234801562000010575f80fd5b506040518060400160405280600781526020017f4d79546f6b656e000000000000000000000000000000000000000000000000008152506040518060400160405280600381526020017f4d544e000000000000000000000000000000000000000000000000000000000081525081600390816200008e919062000616565b508060049081620000a0919062000616565b505050620000b7336107d06200010460201b60201c565b3360055f6101000a81548173ffffffffffffffffffffffffffffffffffffffff021916908373ffffffffffffffffffffffffffffffffffffffff1602179055505f60068190555062000826565b5f73ffffffffffffffffffffffffffffffffffffffff168273ffffffffffffffffffffffffffffffffffffffff160362000177575f6040517fec442f050000000000000000000000000000000000000000000000000000000081526004016200016e91906200073d565b60405180910390fd5b6200018a5f83836200018e60201b60201c565b5050565b5f73ffffffffffffffffffffffffffffffffffffffff168373ffffffffffffffffffffffffffffffffffffffff1603620001e2578060025f828254620001d5919062000785565b92505081905550620002b3565b5f805f8573ffffffffffffffffffffffffffffffffffffffff1673ffffffffffffffffffffffffffffffffffffffff1681526020019081526020015f20549050818110156200026e578381836040517fe450d38c0000000000000000000000000000000000000000000000000000000081526004016200026593929190620007d0565b60405180910390fd5b8181035f808673ffffffffffffffffffffffffffffffffffffffff1673ffffffffffffffffffffffffffffffffffffffff1681526020019081526020015f2081905550505b5f73ffffffffffffffffffffffffffffffffffffffff168273ffffffffffffffffffffffffffffffffffffffff1603620002fc578060025f828254039250508190555062000346565b805f808473ffffffffffffffffffffffffffffffffffffffff1673ffffffffffffffffffffffffffffffffffffffff1681526020019081526020015f205f82825401925050819055505b8173ffffffffffffffffffffffffffffffffffffffff168373ffffffffffffffffffffffffffffffffffffffff167fddf252ad1be2c89b69c2b068fc378daa952ba7f163c4a11628f55a4df523b3ef83604051620003a591906200080b565b60405180910390a3505050565b5f81519050919050565b7f4e487b71000000000000000000000000000000000000000000000000000000005f52604160045260245ffd5b7f4e487b71000000000000000000000000000000000000000000000000000000005f52602260045260245ffd5b5f60028204905060018216806200042e57607f821691505b602082108103620004445762000443620003e9565b5b50919050565b5f819050815f5260205f209050919050565b5f6020601f8301049050919050565b5f82821b905092915050565b5f60088302620004a87fffffffffffffffffffffffffffffffffffffffffffffffffffffffffffffffff826200046b565b620004b486836200046b565b95508019841693508086168417925050509392505050565b5f819050919050565b5f819050919050565b5f620004fe620004f8620004f284620004cc565b620004d5565b620004cc565b9050919050565b5f819050919050565b6200051983620004de565b62000531620005288262000505565b84845462000477565b825550505050565b5f90565b6200054762000539565b620005548184846200050e565b505050565b5b818110156200057b576200056f5f826200053d565b6001810190506200055a565b5050565b601f821115620005ca5762000594816200044a565b6200059f846200045c565b81016020851015620005af578190505b620005c7620005be856200045c565b83018262000559565b50505b505050565b5f82821c905092915050565b5f620005ec5f1984600802620005cf565b1980831691505092915050565b5f620006068383620005db565b9150826002028217905092915050565b6200062182620003b2565b67ffffffffffffffff8111156200063d576200063c620003bc565b5b62000649825462000416565b620006568282856200057f565b5f60209050601f8311600181146200068c575f841562000677578287015190505b620006838582620005f9565b865550620006f2565b601f1984166200069c866200044a565b5f5b82811015620006c5578489015182556001820191506020850194506020810190506200069e565b86831015620006e55784890151620006e1601f891682620005db565b8355505b6001600288020188555050505b505050505050565b5f73ffffffffffffffffffffffffffffffffffffffff82169050919050565b5f6200072582620006fa565b9050919050565b620007378162000719565b82525050565b5f602082019050620007525f8301846200072c565b92915050565b7f4e487b71000000000000000000000000000000000000000000000000000000005f52601160045260245ffd5b5f6200079182620004cc565b91506200079e83620004cc565b9250828201905080821115620007b957620007b862000758565b5b92915050565b620007ca81620004cc565b82525050565b5f606082019050620007e55f8301866200072c565b620007f46020830185620007bf565b620008036040830184620007bf565b949350505050565b5f602082019050620008205f830184620007bf565b92915050565b611b2f80620008345f395ff3fe608060405234801561000f575f80fd5b5060043610610114575f3560e01c806395d89b41116100a0578063bead3f501161006f578063bead3f5014610309578063d45e3f4a14610327578063d7aa82731461034a578063dd62ed3e1461037d578063f851a440146103ad57610114565b806395d89b411461026a5780639ace38c214610288578063a9059cbb146102bb578063b9a60038146102eb57610114565b8063313ce567116100e7578063313ce567146101b457806340c10f19146101d257806342966c68146101ee57806352e61b251461020a57806370a082311461023a57610114565b806306fdde0314610118578063095ea7b31461013657806318160ddd1461016657806323b872dd14610184575b5f80fd5b6101206103cb565b60405161012d91906113cf565b60405180910390f35b610150600480360381019061014b9190611480565b61045b565b60405161015d91906114d8565b60405180910390f35b61016e61047d565b60405161017b9190611500565b60405180910390f35b61019e60048036038101906101999190611519565b610486565b6040516101ab91906114d8565b60405180910390f35b6101bc6104b4565b6040516101c99190611584565b60405180910390f35b6101ec60048036038101906101e79190611480565b6104bc565b005b6102086004803603810190610203919061159d565b610564565b005b610224600480360381019061021f919061159d565b61057c565b60405161023191906115d7565b60405180910390f35b610254600480360381019061024f91906115f0565b6105fc565b6040516102619190611500565b60405180910390f35b610272610641565b60405161027f91906113cf565b60405180910390f35b6102a2600480360381019061029d919061159d565b6106d1565b6040516102b2949392919061161b565b60405180910390f35b6102d560048036038101906102d09190611480565b61073b565b6040516102e291906114d8565b60405180910390f35b6102f361075d565b6040516103009190611500565b60405180910390f35b610311610763565b60405161031e91906115d7565b60405180910390f35b61032f61076a565b6040516103419695949392919061165e565b60405180910390f35b610364600480360381019061035f919061159d565b61079e565b604051610374949392919061161b565b60405180910390f35b610397600480360381019061039291906116bd565b6108e5565b6040516103a49190611500565b60405180910390f35b6103b5610967565b6040516103c291906115d7565b60405180910390f35b6060600380546103da90611728565b80601f016020809104026020016040519081016040528092919081815260200182805461040690611728565b80156104515780601f1061042857610100808354040283529160200191610451565b820191905f5260205f20905b81548152906001019060200180831161043457829003601f168201915b5050505050905090565b5f8061046561098c565b9050610472818585610993565b600191505092915050565b5f600254905090565b5f8061049061098c565b905061049d8582856109a5565b6104a8858585610a37565b60019150509392505050565b5f6012905090565b60055f9054906101000a900473ffffffffffffffffffffffffffffffffffffffff1673ffffffffffffffffffffffffffffffffffffffff163373ffffffffffffffffffffffffffffffffffffffff161461054b576040517f08c379a0000000000000000000000000000000000000000000000000000000008152600401610542906117a2565b60405180910390fd5b6105558282610b27565b610560338383610ba6565b5050565b61056e3382610cc3565b610579335f83610ba6565b50565b5f60065482106105c1576040517f08c379a00000000000000000000000000000000000000000000000000000000081526004016105b89061180a565b60405180910390fd5b60075f8381526020019081526020015f206001015f9054906101000a900473ffffffffffffffffffffffffffffffffffffffff169050919050565b5f805f8373ffffffffffffffffffffffffffffffffffffffff1673ffffffffffffffffffffffffffffffffffffffff1681526020019081526020015f20549050919050565b60606004805461065090611728565b80601f016020809104026020016040519081016040528092919081815260200182805461067c90611728565b80156106c75780601f1061069e576101008083540402835291602001916106c7565b820191905f5260205f20905b8154815290600101906020018083116106aa57829003601f168201915b5050505050905090565b6007602052805f5260405f205f91509050805f015f9054906101000a900473ffffffffffffffffffffffffffffffffffffffff1690806001015f9054906101000a900473ffffffffffffffffffffffffffffffffffffffff16908060020154908060030154905084565b5f8061074561098c565b9050610752818585610a37565b600191505092915050565b60065481565b5f33905090565b5f805f805f805f42905061077d81610d42565b809750819850829950839a50849b50859c5050505050505050909192939495565b5f805f8060065485106107e6576040517f08c379a00000000000000000000000000000000000000000000000000000000081526004016107dd9061180a565b60405180910390fd5b5f60075f8781526020019081526020015f206040518060800160405290815f82015f9054906101000a900473ffffffffffffffffffffffffffffffffffffffff1673ffffffffffffffffffffffffffffffffffffffff1673ffffffffffffffffffffffffffffffffffffffff168152602001600182015f9054906101000a900473ffffffffffffffffffffffffffffffffffffffff1673ffffffffffffffffffffffffffffffffffffffff1673ffffffffffffffffffffffffffffffffffffffff168152602001600282015481526020016003820154815250509050805f01518160200151826040015183606001519450945094509450509193509193565b5f60015f8473ffffffffffffffffffffffffffffffffffffffff1673ffffffffffffffffffffffffffffffffffffffff1681526020019081526020015f205f8373ffffffffffffffffffffffffffffffffffffffff1673ffffffffffffffffffffffffffffffffffffffff1681526020019081526020015f2054905092915050565b60055f9054906101000a900473ffffffffffffffffffffffffffffffffffffffff1681565b5f33905090565b6109a08383836001610dc5565b505050565b5f6109b084846108e5565b90507fffffffffffffffffffffffffffffffffffffffffffffffffffffffffffffffff8114610a315781811015610a22578281836040517ffb8f41b2000000000000000000000000000000000000000000000000000000008152600401610a1993929190611828565b60405180910390fd5b610a3084848484035f610dc5565b5b50505050565b5f73ffffffffffffffffffffffffffffffffffffffff168373ffffffffffffffffffffffffffffffffffffffff1603610aa7575f6040517f96c6fd1e000000000000000000000000000000000000000000000000000000008152600401610a9e91906115d7565b60405180910390fd5b5f73ffffffffffffffffffffffffffffffffffffffff168273ffffffffffffffffffffffffffffffffffffffff1603610b17575f6040517fec442f05000000000000000000000000000000000000000000000000000000008152600401610b0e91906115d7565b60405180910390fd5b610b22838383610f94565b505050565b5f73ffffffffffffffffffffffffffffffffffffffff168273ffffffffffffffffffffffffffffffffffffffff1603610b97575f6040517fec442f05000000000000000000000000000000000000000000000000000000008152600401610b8e91906115d7565b60405180910390fd5b610ba25f8383610f94565b5050565b60405180608001604052808473ffffffffffffffffffffffffffffffffffffffff1681526020018373ffffffffffffffffffffffffffffffffffffffff1681526020018281526020014281525060075f60065481526020019081526020015f205f820151815f015f6101000a81548173ffffffffffffffffffffffffffffffffffffffff021916908373ffffffffffffffffffffffffffffffffffffffff1602179055506020820151816001015f6101000a81548173ffffffffffffffffffffffffffffffffffffffff021916908373ffffffffffffffffffffffffffffffffffffffff160217905550604082015181600201556060820151816003015590505060065f815480929190610cb99061188a565b9190505550505050565b5f73ffffffffffffffffffffffffffffffffffffffff168273ffffffffffffffffffffffffffffffffffffffff1603610d33575f6040517f96c6fd1e000000000000000000000000000000000000000000000000000000008152600401610d2a91906115d7565b60405180910390fd5b610d3e825f83610f94565b5050565b5f805f805f80610d5f6201518088610d5a91906118fe565b6111ad565b8096508197508298505050505f6201518088610d7b919061192e565b9050610e1081610d8b91906118fe565b9350610e1081610d9b919061192e565b9050603c81610daa91906118fe565b9250603c81610db9919061192e565b91505091939550919395565b5f73ffffffffffffffffffffffffffffffffffffffff168473ffffffffffffffffffffffffffffffffffffffff1603610e35575f6040517fe602df05000000000000000000000000000000000000000000000000000000008152600401610e2c91906115d7565b60405180910390fd5b5f73ffffffffffffffffffffffffffffffffffffffff168373ffffffffffffffffffffffffffffffffffffffff1603610ea5575f6040517f94280d62000000000000000000000000000000000000000000000000000000008152600401610e9c91906115d7565b60405180910390fd5b8160015f8673ffffffffffffffffffffffffffffffffffffffff1673ffffffffffffffffffffffffffffffffffffffff1681526020019081526020015f205f8573ffffffffffffffffffffffffffffffffffffffff1673ffffffffffffffffffffffffffffffffffffffff1681526020019081526020015f20819055508015610f8e578273ffffffffffffffffffffffffffffffffffffffff168473ffffffffffffffffffffffffffffffffffffffff167f8c5be1e5ebec7d5bd14f71427d1e84f3dd0314c0f7b2291e5b200ac8c7c3b92584604051610f859190611500565b60405180910390a35b50505050565b5f73ffffffffffffffffffffffffffffffffffffffff168373ffffffffffffffffffffffffffffffffffffffff1603610fe4578060025f828254610fd8919061195e565b925050819055506110b2565b5f805f8573ffffffffffffffffffffffffffffffffffffffff1673ffffffffffffffffffffffffffffffffffffffff1681526020019081526020015f205490508181101561106d578381836040517fe450d38c00000000000000000000000000000000000000000000000000000000815260040161106493929190611828565b60405180910390fd5b8181035f808673ffffffffffffffffffffffffffffffffffffffff1673ffffffffffffffffffffffffffffffffffffffff1681526020019081526020015f2081905550505b5f73ffffffffffffffffffffffffffffffffffffffff168273ffffffffffffffffffffffffffffffffffffffff16036110f9578060025f8282540392505081905550611143565b805f808473ffffffffffffffffffffffffffffffffffffffff1673ffffffffffffffffffffffffffffffffffffffff1681526020019081526020015f205f82825401925050819055505b8173ffffffffffffffffffffffffffffffffffffffff168373ffffffffffffffffffffffffffffffffffffffff167fddf252ad1be2c89b69c2b068fc378daa952ba7f163c4a11628f55a4df523b3ef836040516111a09190611500565b60405180910390a3505050565b5f805f808490505f62253d8c62010bd9836111c8919061199a565b6111d2919061199a565b90505f62023ab18260046111e691906119db565b6111f09190611a51565b9050600460038262023ab161120591906119db565b61120f919061199a565b6112199190611a51565b826112249190611ab9565b91505f62164b09600184611238919061199a565b610fa061124591906119db565b61124f9190611a51565b9050601f6004826105b561126391906119db565b61126d9190611a51565b846112789190611ab9565b611282919061199a565b92505f61098f84605061129591906119db565b61129f9190611a51565b90505f60508261098f6112b291906119db565b6112bc9190611a51565b856112c79190611ab9565b9050600b826112d69190611a51565b945084600c6112e591906119db565b6002836112f2919061199a565b6112fc9190611ab9565b9150848360318661130d9190611ab9565b606461131991906119db565b611323919061199a565b61132d919061199a565b92508298508197508096505050505050509193909250565b5f81519050919050565b5f82825260208201905092915050565b5f5b8381101561137c578082015181840152602081019050611361565b5f8484015250505050565b5f601f19601f8301169050919050565b5f6113a182611345565b6113ab818561134f565b93506113bb81856020860161135f565b6113c481611387565b840191505092915050565b5f6020820190508181035f8301526113e78184611397565b905092915050565b5f80fd5b5f73ffffffffffffffffffffffffffffffffffffffff82169050919050565b5f61141c826113f3565b9050919050565b61142c81611412565b8114611436575f80fd5b50565b5f8135905061144781611423565b92915050565b5f819050919050565b61145f8161144d565b8114611469575f80fd5b50565b5f8135905061147a81611456565b92915050565b5f8060408385031215611496576114956113ef565b5b5f6114a385828601611439565b92505060206114b48582860161146c565b9150509250929050565b5f8115159050919050565b6114d2816114be565b82525050565b5f6020820190506114eb5f8301846114c9565b92915050565b6114fa8161144d565b82525050565b5f6020820190506115135f8301846114f1565b92915050565b5f805f606084860312156115305761152f6113ef565b5b5f61153d86828701611439565b935050602061154e86828701611439565b925050604061155f8682870161146c565b9150509250925092565b5f60ff82169050919050565b61157e81611569565b82525050565b5f6020820190506115975f830184611575565b92915050565b5f602082840312156115b2576115b16113ef565b5b5f6115bf8482850161146c565b91505092915050565b6115d181611412565b82525050565b5f6020820190506115ea5f8301846115c8565b92915050565b5f60208284031215611605576116046113ef565b5b5f61161284828501611439565b91505092915050565b5f60808201905061162e5f8301876115c8565b61163b60208301866115c8565b61164860408301856114f1565b61165560608301846114f1565b95945050505050565b5f60c0820190506116715f8301896114f1565b61167e60208301886114f1565b61168b60408301876114f1565b61169860608301866114f1565b6116a560808301856114f1565b6116b260a08301846114f1565b979650505050505050565b5f80604083850312156116d3576116d26113ef565b5b5f6116e085828601611439565b92505060206116f185828601611439565b9150509250929050565b7f4e487b71000000000000000000000000000000000000000000000000000000005f52602260045260245ffd5b5f600282049050600182168061173f57607f821691505b602082108103611752576117516116fb565b5b50919050565b7f6f6e6c792061646d696e000000000000000000000000000000000000000000005f82015250565b5f61178c600a8361134f565b915061179782611758565b602082019050919050565b5f6020820190508181035f8301526117b981611780565b9050919050565b7f496e76616c6964207472616e73616374696f6e204944000000000000000000005f82015250565b5f6117f460168361134f565b91506117ff826117c0565b602082019050919050565b5f6020820190508181035f830152611821816117e8565b9050919050565b5f60608201905061183b5f8301866115c8565b61184860208301856114f1565b61185560408301846114f1565b949350505050565b7f4e487b71000000000000000000000000000000000000000000000000000000005f52601160045260245ffd5b5f6118948261144d565b91507fffffffffffffffffffffffffffffffffffffffffffffffffffffffffffffffff82036118c6576118c561185d565b5b600182019050919050565b7f4e487b71000000000000000000000000000000000000000000000000000000005f52601260045260245ffd5b5f6119088261144d565b91506119138361144d565b925082611923576119226118d1565b5b828204905092915050565b5f6119388261144d565b91506119438361144d565b925082611953576119526118d1565b5b828206905092915050565b5f6119688261144d565b91506119738361144d565b925082820190508082111561198b5761198a61185d565b5b92915050565b5f819050919050565b5f6119a482611991565b91506119af83611991565b92508282019050828112155f8312168382125f8412151617156119d5576119d461185d565b5b92915050565b5f6119e582611991565b91506119f083611991565b92508282026119fe81611991565b91507f800000000000000000000000000000000000000000000000000000000000000084145f84121615611a3557611a3461185d565b5b8282058414831517611a4a57611a4961185d565b5b5092915050565b5f611a5b82611991565b9150611a6683611991565b925082611a7657611a756118d1565b5b60015f0383147f800000000000000000000000000000000000000000000000000000000000000083141615611aae57611aad61185d565b5b828205905092915050565b5f611ac382611991565b9150611ace83611991565b925082820390508181125f8412168282135f851215161715611af357611af261185d565b5b9291505056fea2646970667358221220dbf2f19a3e1a38af9c33382567e05c57a61aeabe8e0bdb89b26f8ca1bb3fcc0f64736f6c63430008170033",
					"opcodes": "PUSH1 0x80 PUSH1 0x40 MSTORE CALLVALUE DUP1 ISZERO PUSH3 0x10 JUMPI PUSH0 DUP1 REVERT JUMPDEST POP PUSH1 0x40 MLOAD DUP1 PUSH1 0x40 ADD PUSH1 0x40 MSTORE DUP1 PUSH1 0x7 DUP2 MSTORE PUSH1 0x20 ADD PUSH32 0x4D79546F6B656E00000000000000000000000000000000000000000000000000 DUP2 MSTORE POP PUSH1 0x40 MLOAD DUP1 PUSH1 0x40 ADD PUSH1 0x40 MSTORE DUP1 PUSH1 0x3 DUP2 MSTORE PUSH1 0x20 ADD PUSH32 0x4D544E0000000000000000000000000000000000000000000000000000000000 DUP2 MSTORE POP DUP2 PUSH1 0x3 SWAP1 DUP2 PUSH3 0x8E SWAP2 SWAP1 PUSH3 0x616 JUMP JUMPDEST POP DUP1 PUSH1 0x4 SWAP1 DUP2 PUSH3 0xA0 SWAP2 SWAP1 PUSH3 0x616 JUMP JUMPDEST POP POP POP PUSH3 0xB7 CALLER PUSH2 0x7D0 PUSH3 0x104 PUSH1 0x20 SHL PUSH1 0x20 SHR JUMP JUMPDEST CALLER PUSH1 0x5 PUSH0 PUSH2 0x100 EXP DUP2 SLOAD DUP2 PUSH20 0xFFFFFFFFFFFFFFFFFFFFFFFFFFFFFFFFFFFFFFFF MUL NOT AND SWAP1 DUP4 PUSH20 0xFFFFFFFFFFFFFFFFFFFFFFFFFFFFFFFFFFFFFFFF AND MUL OR SWAP1 SSTORE POP PUSH0 PUSH1 0x6 DUP2 SWAP1 SSTORE POP PUSH3 0x826 JUMP JUMPDEST PUSH0 PUSH20 0xFFFFFFFFFFFFFFFFFFFFFFFFFFFFFFFFFFFFFFFF AND DUP3 PUSH20 0xFFFFFFFFFFFFFFFFFFFFFFFFFFFFFFFFFFFFFFFF AND SUB PUSH3 0x177 JUMPI PUSH0 PUSH1 0x40 MLOAD PUSH32 0xEC442F0500000000000000000000000000000000000000000000000000000000 DUP2 MSTORE PUSH1 0x4 ADD PUSH3 0x16E SWAP2 SWAP1 PUSH3 0x73D JUMP JUMPDEST PUSH1 0x40 MLOAD DUP1 SWAP2 SUB SWAP1 REVERT JUMPDEST PUSH3 0x18A PUSH0 DUP4 DUP4 PUSH3 0x18E PUSH1 0x20 SHL PUSH1 0x20 SHR JUMP JUMPDEST POP POP JUMP JUMPDEST PUSH0 PUSH20 0xFFFFFFFFFFFFFFFFFFFFFFFFFFFFFFFFFFFFFFFF AND DUP4 PUSH20 0xFFFFFFFFFFFFFFFFFFFFFFFFFFFFFFFFFFFFFFFF AND SUB PUSH3 0x1E2 JUMPI DUP1 PUSH1 0x2 PUSH0 DUP3 DUP3 SLOAD PUSH3 0x1D5 SWAP2 SWAP1 PUSH3 0x785 JUMP JUMPDEST SWAP3 POP POP DUP2 SWAP1 SSTORE POP PUSH3 0x2B3 JUMP JUMPDEST PUSH0 DUP1 PUSH0 DUP6 PUSH20 0xFFFFFFFFFFFFFFFFFFFFFFFFFFFFFFFFFFFFFFFF AND PUSH20 0xFFFFFFFFFFFFFFFFFFFFFFFFFFFFFFFFFFFFFFFF AND DUP2 MSTORE PUSH1 0x20 ADD SWAP1 DUP2 MSTORE PUSH1 0x20 ADD PUSH0 KECCAK256 SLOAD SWAP1 POP DUP2 DUP2 LT ISZERO PUSH3 0x26E JUMPI DUP4 DUP2 DUP4 PUSH1 0x40 MLOAD PUSH32 0xE450D38C00000000000000000000000000000000000000000000000000000000 DUP2 MSTORE PUSH1 0x4 ADD PUSH3 0x265 SWAP4 SWAP3 SWAP2 SWAP1 PUSH3 0x7D0 JUMP JUMPDEST PUSH1 0x40 MLOAD DUP1 SWAP2 SUB SWAP1 REVERT JUMPDEST DUP2 DUP2 SUB PUSH0 DUP1 DUP7 PUSH20 0xFFFFFFFFFFFFFFFFFFFFFFFFFFFFFFFFFFFFFFFF AND PUSH20 0xFFFFFFFFFFFFFFFFFFFFFFFFFFFFFFFFFFFFFFFF AND DUP2 MSTORE PUSH1 0x20 ADD SWAP1 DUP2 MSTORE PUSH1 0x20 ADD PUSH0 KECCAK256 DUP2 SWAP1 SSTORE POP POP JUMPDEST PUSH0 PUSH20 0xFFFFFFFFFFFFFFFFFFFFFFFFFFFFFFFFFFFFFFFF AND DUP3 PUSH20 0xFFFFFFFFFFFFFFFFFFFFFFFFFFFFFFFFFFFFFFFF AND SUB PUSH3 0x2FC JUMPI DUP1 PUSH1 0x2 PUSH0 DUP3 DUP3 SLOAD SUB SWAP3 POP POP DUP2 SWAP1 SSTORE POP PUSH3 0x346 JUMP JUMPDEST DUP1 PUSH0 DUP1 DUP5 PUSH20 0xFFFFFFFFFFFFFFFFFFFFFFFFFFFFFFFFFFFFFFFF AND PUSH20 0xFFFFFFFFFFFFFFFFFFFFFFFFFFFFFFFFFFFFFFFF AND DUP2 MSTORE PUSH1 0x20 ADD SWAP1 DUP2 MSTORE PUSH1 0x20 ADD PUSH0 KECCAK256 PUSH0 DUP3 DUP3 SLOAD ADD SWAP3 POP POP DUP2 SWAP1 SSTORE POP JUMPDEST DUP2 PUSH20 0xFFFFFFFFFFFFFFFFFFFFFFFFFFFFFFFFFFFFFFFF AND DUP4 PUSH20 0xFFFFFFFFFFFFFFFFFFFFFFFFFFFFFFFFFFFFFFFF AND PUSH32 0xDDF252AD1BE2C89B69C2B068FC378DAA952BA7F163C4A11628F55A4DF523B3EF DUP4 PUSH1 0x40 MLOAD PUSH3 0x3A5 SWAP2 SWAP1 PUSH3 0x80B JUMP JUMPDEST PUSH1 0x40 MLOAD DUP1 SWAP2 SUB SWAP1 LOG3 POP POP POP JUMP JUMPDEST PUSH0 DUP2 MLOAD SWAP1 POP SWAP2 SWAP1 POP JUMP JUMPDEST PUSH32 0x4E487B7100000000000000000000000000000000000000000000000000000000 PUSH0 MSTORE PUSH1 0x41 PUSH1 0x4 MSTORE PUSH1 0x24 PUSH0 REVERT JUMPDEST PUSH32 0x4E487B7100000000000000000000000000000000000000000000000000000000 PUSH0 MSTORE PUSH1 0x22 PUSH1 0x4 MSTORE PUSH1 0x24 PUSH0 REVERT JUMPDEST PUSH0 PUSH1 0x2 DUP3 DIV SWAP1 POP PUSH1 0x1 DUP3 AND DUP1 PUSH3 0x42E JUMPI PUSH1 0x7F DUP3 AND SWAP2 POP JUMPDEST PUSH1 0x20 DUP3 LT DUP2 SUB PUSH3 0x444 JUMPI PUSH3 0x443 PUSH3 0x3E9 JUMP JUMPDEST JUMPDEST POP SWAP2 SWAP1 POP JUMP JUMPDEST PUSH0 DUP2 SWAP1 POP DUP2 PUSH0 MSTORE PUSH1 0x20 PUSH0 KECCAK256 SWAP1 POP SWAP2 SWAP1 POP JUMP JUMPDEST PUSH0 PUSH1 0x20 PUSH1 0x1F DUP4 ADD DIV SWAP1 POP SWAP2 SWAP1 POP JUMP JUMPDEST PUSH0 DUP3 DUP3 SHL SWAP1 POP SWAP3 SWAP2 POP POP JUMP JUMPDEST PUSH0 PUSH1 0x8 DUP4 MUL PUSH3 0x4A8 PUSH32 0xFFFFFFFFFFFFFFFFFFFFFFFFFFFFFFFFFFFFFFFFFFFFFFFFFFFFFFFFFFFFFFFF DUP3 PUSH3 0x46B JUMP JUMPDEST PUSH3 0x4B4 DUP7 DUP4 PUSH3 0x46B JUMP JUMPDEST SWAP6 POP DUP1 NOT DUP5 AND SWAP4 POP DUP1 DUP7 AND DUP5 OR SWAP3 POP POP POP SWAP4 SWAP3 POP POP POP JUMP JUMPDEST PUSH0 DUP2 SWAP1 POP SWAP2 SWAP1 POP JUMP JUMPDEST PUSH0 DUP2 SWAP1 POP SWAP2 SWAP1 POP JUMP JUMPDEST PUSH0 PUSH3 0x4FE PUSH3 0x4F8 PUSH3 0x4F2 DUP5 PUSH3 0x4CC JUMP JUMPDEST PUSH3 0x4D5 JUMP JUMPDEST PUSH3 0x4CC JUMP JUMPDEST SWAP1 POP SWAP2 SWAP1 POP JUMP JUMPDEST PUSH0 DUP2 SWAP1 POP SWAP2 SWAP1 POP JUMP JUMPDEST PUSH3 0x519 DUP4 PUSH3 0x4DE JUMP JUMPDEST PUSH3 0x531 PUSH3 0x528 DUP3 PUSH3 0x505 JUMP JUMPDEST DUP5 DUP5 SLOAD PUSH3 0x477 JUMP JUMPDEST DUP3 SSTORE POP POP POP POP JUMP JUMPDEST PUSH0 SWAP1 JUMP JUMPDEST PUSH3 0x547 PUSH3 0x539 JUMP JUMPDEST PUSH3 0x554 DUP2 DUP5 DUP5 PUSH3 0x50E JUMP JUMPDEST POP POP POP JUMP JUMPDEST JUMPDEST DUP2 DUP2 LT ISZERO PUSH3 0x57B JUMPI PUSH3 0x56F PUSH0 DUP3 PUSH3 0x53D JUMP JUMPDEST PUSH1 0x1 DUP2 ADD SWAP1 POP PUSH3 0x55A JUMP JUMPDEST POP POP JUMP JUMPDEST PUSH1 0x1F DUP3 GT ISZERO PUSH3 0x5CA JUMPI PUSH3 0x594 DUP2 PUSH3 0x44A JUMP JUMPDEST PUSH3 0x59F DUP5 PUSH3 0x45C JUMP JUMPDEST DUP2 ADD PUSH1 0x20 DUP6 LT ISZERO PUSH3 0x5AF JUMPI DUP2 SWAP1 POP JUMPDEST PUSH3 0x5C7 PUSH3 0x5BE DUP6 PUSH3 0x45C JUMP JUMPDEST DUP4 ADD DUP3 PUSH3 0x559 JUMP JUMPDEST POP POP JUMPDEST POP POP POP JUMP JUMPDEST PUSH0 DUP3 DUP3 SHR SWAP1 POP SWAP3 SWAP2 POP POP JUMP JUMPDEST PUSH0 PUSH3 0x5EC PUSH0 NOT DUP5 PUSH1 0x8 MUL PUSH3 0x5CF JUMP JUMPDEST NOT DUP1 DUP4 AND SWAP2 POP POP SWAP3 SWAP2 POP POP JUMP JUMPDEST PUSH0 PUSH3 0x606 DUP4 DUP4 PUSH3 0x5DB JUMP JUMPDEST SWAP2 POP DUP3 PUSH1 0x2 MUL DUP3 OR SWAP1 POP SWAP3 SWAP2 POP POP JUMP JUMPDEST PUSH3 0x621 DUP3 PUSH3 0x3B2 JUMP JUMPDEST PUSH8 0xFFFFFFFFFFFFFFFF DUP2 GT ISZERO PUSH3 0x63D JUMPI PUSH3 0x63C PUSH3 0x3BC JUMP JUMPDEST JUMPDEST PUSH3 0x649 DUP3 SLOAD PUSH3 0x416 JUMP JUMPDEST PUSH3 0x656 DUP3 DUP3 DUP6 PUSH3 0x57F JUMP JUMPDEST PUSH0 PUSH1 0x20 SWAP1 POP PUSH1 0x1F DUP4 GT PUSH1 0x1 DUP2 EQ PUSH3 0x68C JUMPI PUSH0 DUP5 ISZERO PUSH3 0x677 JUMPI DUP3 DUP8 ADD MLOAD SWAP1 POP JUMPDEST PUSH3 0x683 DUP6 DUP3 PUSH3 0x5F9 JUMP JUMPDEST DUP7 SSTORE POP PUSH3 0x6F2 JUMP JUMPDEST PUSH1 0x1F NOT DUP5 AND PUSH3 0x69C DUP7 PUSH3 0x44A JUMP JUMPDEST PUSH0 JUMPDEST DUP3 DUP2 LT ISZERO PUSH3 0x6C5 JUMPI DUP5 DUP10 ADD MLOAD DUP3 SSTORE PUSH1 0x1 DUP3 ADD SWAP2 POP PUSH1 0x20 DUP6 ADD SWAP5 POP PUSH1 0x20 DUP2 ADD SWAP1 POP PUSH3 0x69E JUMP JUMPDEST DUP7 DUP4 LT ISZERO PUSH3 0x6E5 JUMPI DUP5 DUP10 ADD MLOAD PUSH3 0x6E1 PUSH1 0x1F DUP10 AND DUP3 PUSH3 0x5DB JUMP JUMPDEST DUP4 SSTORE POP JUMPDEST PUSH1 0x1 PUSH1 0x2 DUP9 MUL ADD DUP9 SSTORE POP POP POP JUMPDEST POP POP POP POP POP POP JUMP JUMPDEST PUSH0 PUSH20 0xFFFFFFFFFFFFFFFFFFFFFFFFFFFFFFFFFFFFFFFF DUP3 AND SWAP1 POP SWAP2 SWAP1 POP JUMP JUMPDEST PUSH0 PUSH3 0x725 DUP3 PUSH3 0x6FA JUMP JUMPDEST SWAP1 POP SWAP2 SWAP1 POP JUMP JUMPDEST PUSH3 0x737 DUP2 PUSH3 0x719 JUMP JUMPDEST DUP3 MSTORE POP POP JUMP JUMPDEST PUSH0 PUSH1 0x20 DUP3 ADD SWAP1 POP PUSH3 0x752 PUSH0 DUP4 ADD DUP5 PUSH3 0x72C JUMP JUMPDEST SWAP3 SWAP2 POP POP JUMP JUMPDEST PUSH32 0x4E487B7100000000000000000000000000000000000000000000000000000000 PUSH0 MSTORE PUSH1 0x11 PUSH1 0x4 MSTORE PUSH1 0x24 PUSH0 REVERT JUMPDEST PUSH0 PUSH3 0x791 DUP3 PUSH3 0x4CC JUMP JUMPDEST SWAP2 POP PUSH3 0x79E DUP4 PUSH3 0x4CC JUMP JUMPDEST SWAP3 POP DUP3 DUP3 ADD SWAP1 POP DUP1 DUP3 GT ISZERO PUSH3 0x7B9 JUMPI PUSH3 0x7B8 PUSH3 0x758 JUMP JUMPDEST JUMPDEST SWAP3 SWAP2 POP POP JUMP JUMPDEST PUSH3 0x7CA DUP2 PUSH3 0x4CC JUMP JUMPDEST DUP3 MSTORE POP POP JUMP JUMPDEST PUSH0 PUSH1 0x60 DUP3 ADD SWAP1 POP PUSH3 0x7E5 PUSH0 DUP4 ADD DUP7 PUSH3 0x72C JUMP JUMPDEST PUSH3 0x7F4 PUSH1 0x20 DUP4 ADD DUP6 PUSH3 0x7BF JUMP JUMPDEST PUSH3 0x803 PUSH1 0x40 DUP4 ADD DUP5 PUSH3 0x7BF JUMP JUMPDEST SWAP5 SWAP4 POP POP POP POP JUMP JUMPDEST PUSH0 PUSH1 0x20 DUP3 ADD SWAP1 POP PUSH3 0x820 PUSH0 DUP4 ADD DUP5 PUSH3 0x7BF JUMP JUMPDEST SWAP3 SWAP2 POP POP JUMP JUMPDEST PUSH2 0x1B2F DUP1 PUSH3 0x834 PUSH0 CODECOPY PUSH0 RETURN INVALID PUSH1 0x80 PUSH1 0x40 MSTORE CALLVALUE DUP1 ISZERO PUSH2 0xF JUMPI PUSH0 DUP1 REVERT JUMPDEST POP PUSH1 0x4 CALLDATASIZE LT PUSH2 0x114 JUMPI PUSH0 CALLDATALOAD PUSH1 0xE0 SHR DUP1 PUSH4 0x95D89B41 GT PUSH2 0xA0 JUMPI DUP1 PUSH4 0xBEAD3F50 GT PUSH2 0x6F JUMPI DUP1 PUSH4 0xBEAD3F50 EQ PUSH2 0x309 JUMPI DUP1 PUSH4 0xD45E3F4A EQ PUSH2 0x327 JUMPI DUP1 PUSH4 0xD7AA8273 EQ PUSH2 0x34A JUMPI DUP1 PUSH4 0xDD62ED3E EQ PUSH2 0x37D JUMPI DUP1 PUSH4 0xF851A440 EQ PUSH2 0x3AD JUMPI PUSH2 0x114 JUMP JUMPDEST DUP1 PUSH4 0x95D89B41 EQ PUSH2 0x26A JUMPI DUP1 PUSH4 0x9ACE38C2 EQ PUSH2 0x288 JUMPI DUP1 PUSH4 0xA9059CBB EQ PUSH2 0x2BB JUMPI DUP1 PUSH4 0xB9A60038 EQ PUSH2 0x2EB JUMPI PUSH2 0x114 JUMP JUMPDEST DUP1 PUSH4 0x313CE567 GT PUSH2 0xE7 JUMPI DUP1 PUSH4 0x313CE567 EQ PUSH2 0x1B4 JUMPI DUP1 PUSH4 0x40C10F19 EQ PUSH2 0x1D2 JUMPI DUP1 PUSH4 0x42966C68 EQ PUSH2 0x1EE JUMPI DUP1 PUSH4 0x52E61B25 EQ PUSH2 0x20A JUMPI DUP1 PUSH4 0x70A08231 EQ PUSH2 0x23A JUMPI PUSH2 0x114 JUMP JUMPDEST DUP1 PUSH4 0x6FDDE03 EQ PUSH2 0x118 JUMPI DUP1 PUSH4 0x95EA7B3 EQ PUSH2 0x136 JUMPI DUP1 PUSH4 0x18160DDD EQ PUSH2 0x166 JUMPI DUP1 PUSH4 0x23B872DD EQ PUSH2 0x184 JUMPI JUMPDEST PUSH0 DUP1 REVERT JUMPDEST PUSH2 0x120 PUSH2 0x3CB JUMP JUMPDEST PUSH1 0x40 MLOAD PUSH2 0x12D SWAP2 SWAP1 PUSH2 0x13CF JUMP JUMPDEST PUSH1 0x40 MLOAD DUP1 SWAP2 SUB SWAP1 RETURN JUMPDEST PUSH2 0x150 PUSH1 0x4 DUP1 CALLDATASIZE SUB DUP2 ADD SWAP1 PUSH2 0x14B SWAP2 SWAP1 PUSH2 0x1480 JUMP JUMPDEST PUSH2 0x45B JUMP JUMPDEST PUSH1 0x40 MLOAD PUSH2 0x15D SWAP2 SWAP1 PUSH2 0x14D8 JUMP JUMPDEST PUSH1 0x40 MLOAD DUP1 SWAP2 SUB SWAP1 RETURN JUMPDEST PUSH2 0x16E PUSH2 0x47D JUMP JUMPDEST PUSH1 0x40 MLOAD PUSH2 0x17B SWAP2 SWAP1 PUSH2 0x1500 JUMP JUMPDEST PUSH1 0x40 MLOAD DUP1 SWAP2 SUB SWAP1 RETURN JUMPDEST PUSH2 0x19E PUSH1 0x4 DUP1 CALLDATASIZE SUB DUP2 ADD SWAP1 PUSH2 0x199 SWAP2 SWAP1 PUSH2 0x1519 JUMP JUMPDEST PUSH2 0x486 JUMP JUMPDEST PUSH1 0x40 MLOAD PUSH2 0x1AB SWAP2 SWAP1 PUSH2 0x14D8 JUMP JUMPDEST PUSH1 0x40 MLOAD DUP1 SWAP2 SUB SWAP1 RETURN JUMPDEST PUSH2 0x1BC PUSH2 0x4B4 JUMP JUMPDEST PUSH1 0x40 MLOAD PUSH2 0x1C9 SWAP2 SWAP1 PUSH2 0x1584 JUMP JUMPDEST PUSH1 0x40 MLOAD DUP1 SWAP2 SUB SWAP1 RETURN JUMPDEST PUSH2 0x1EC PUSH1 0x4 DUP1 CALLDATASIZE SUB DUP2 ADD SWAP1 PUSH2 0x1E7 SWAP2 SWAP1 PUSH2 0x1480 JUMP JUMPDEST PUSH2 0x4BC JUMP JUMPDEST STOP JUMPDEST PUSH2 0x208 PUSH1 0x4 DUP1 CALLDATASIZE SUB DUP2 ADD SWAP1 PUSH2 0x203 SWAP2 SWAP1 PUSH2 0x159D JUMP JUMPDEST PUSH2 0x564 JUMP JUMPDEST STOP JUMPDEST PUSH2 0x224 PUSH1 0x4 DUP1 CALLDATASIZE SUB DUP2 ADD SWAP1 PUSH2 0x21F SWAP2 SWAP1 PUSH2 0x159D JUMP JUMPDEST PUSH2 0x57C JUMP JUMPDEST PUSH1 0x40 MLOAD PUSH2 0x231 SWAP2 SWAP1 PUSH2 0x15D7 JUMP JUMPDEST PUSH1 0x40 MLOAD DUP1 SWAP2 SUB SWAP1 RETURN JUMPDEST PUSH2 0x254 PUSH1 0x4 DUP1 CALLDATASIZE SUB DUP2 ADD SWAP1 PUSH2 0x24F SWAP2 SWAP1 PUSH2 0x15F0 JUMP JUMPDEST PUSH2 0x5FC JUMP JUMPDEST PUSH1 0x40 MLOAD PUSH2 0x261 SWAP2 SWAP1 PUSH2 0x1500 JUMP JUMPDEST PUSH1 0x40 MLOAD DUP1 SWAP2 SUB SWAP1 RETURN JUMPDEST PUSH2 0x272 PUSH2 0x641 JUMP JUMPDEST PUSH1 0x40 MLOAD PUSH2 0x27F SWAP2 SWAP1 PUSH2 0x13CF JUMP JUMPDEST PUSH1 0x40 MLOAD DUP1 SWAP2 SUB SWAP1 RETURN JUMPDEST PUSH2 0x2A2 PUSH1 0x4 DUP1 CALLDATASIZE SUB DUP2 ADD SWAP1 PUSH2 0x29D SWAP2 SWAP1 PUSH2 0x159D JUMP JUMPDEST PUSH2 0x6D1 JUMP JUMPDEST PUSH1 0x40 MLOAD PUSH2 0x2B2 SWAP5 SWAP4 SWAP3 SWAP2 SWAP1 PUSH2 0x161B JUMP JUMPDEST PUSH1 0x40 MLOAD DUP1 SWAP2 SUB SWAP1 RETURN JUMPDEST PUSH2 0x2D5 PUSH1 0x4 DUP1 CALLDATASIZE SUB DUP2 ADD SWAP1 PUSH2 0x2D0 SWAP2 SWAP1 PUSH2 0x1480 JUMP JUMPDEST PUSH2 0x73B JUMP JUMPDEST PUSH1 0x40 MLOAD PUSH2 0x2E2 SWAP2 SWAP1 PUSH2 0x14D8 JUMP JUMPDEST PUSH1 0x40 MLOAD DUP1 SWAP2 SUB SWAP1 RETURN JUMPDEST PUSH2 0x2F3 PUSH2 0x75D JUMP JUMPDEST PUSH1 0x40 MLOAD PUSH2 0x300 SWAP2 SWAP1 PUSH2 0x1500 JUMP JUMPDEST PUSH1 0x40 MLOAD DUP1 SWAP2 SUB SWAP1 RETURN JUMPDEST PUSH2 0x311 PUSH2 0x763 JUMP JUMPDEST PUSH1 0x40 MLOAD PUSH2 0x31E SWAP2 SWAP1 PUSH2 0x15D7 JUMP JUMPDEST PUSH1 0x40 MLOAD DUP1 SWAP2 SUB SWAP1 RETURN JUMPDEST PUSH2 0x32F PUSH2 0x76A JUMP JUMPDEST PUSH1 0x40 MLOAD PUSH2 0x341 SWAP7 SWAP6 SWAP5 SWAP4 SWAP3 SWAP2 SWAP1 PUSH2 0x165E JUMP JUMPDEST PUSH1 0x40 MLOAD DUP1 SWAP2 SUB SWAP1 RETURN JUMPDEST PUSH2 0x364 PUSH1 0x4 DUP1 CALLDATASIZE SUB DUP2 ADD SWAP1 PUSH2 0x35F SWAP2 SWAP1 PUSH2 0x159D JUMP JUMPDEST PUSH2 0x79E JUMP JUMPDEST PUSH1 0x40 MLOAD PUSH2 0x374 SWAP5 SWAP4 SWAP3 SWAP2 SWAP1 PUSH2 0x161B JUMP JUMPDEST PUSH1 0x40 MLOAD DUP1 SWAP2 SUB SWAP1 RETURN JUMPDEST PUSH2 0x397 PUSH1 0x4 DUP1 CALLDATASIZE SUB DUP2 ADD SWAP1 PUSH2 0x392 SWAP2 SWAP1 PUSH2 0x16BD JUMP JUMPDEST PUSH2 0x8E5 JUMP JUMPDEST PUSH1 0x40 MLOAD PUSH2 0x3A4 SWAP2 SWAP1 PUSH2 0x1500 JUMP JUMPDEST PUSH1 0x40 MLOAD DUP1 SWAP2 SUB SWAP1 RETURN JUMPDEST PUSH2 0x3B5 PUSH2 0x967 JUMP JUMPDEST PUSH1 0x40 MLOAD PUSH2 0x3C2 SWAP2 SWAP1 PUSH2 0x15D7 JUMP JUMPDEST PUSH1 0x40 MLOAD DUP1 SWAP2 SUB SWAP1 RETURN JUMPDEST PUSH1 0x60 PUSH1 0x3 DUP1 SLOAD PUSH2 0x3DA SWAP1 PUSH2 0x1728 JUMP JUMPDEST DUP1 PUSH1 0x1F ADD PUSH1 0x20 DUP1 SWAP2 DIV MUL PUSH1 0x20 ADD PUSH1 0x40 MLOAD SWAP1 DUP2 ADD PUSH1 0x40 MSTORE DUP1 SWAP3 SWAP2 SWAP1 DUP2 DUP2 MSTORE PUSH1 0x20 ADD DUP3 DUP1 SLOAD PUSH2 0x406 SWAP1 PUSH2 0x1728 JUMP JUMPDEST DUP1 ISZERO PUSH2 0x451 JUMPI DUP1 PUSH1 0x1F LT PUSH2 0x428 JUMPI PUSH2 0x100 DUP1 DUP4 SLOAD DIV MUL DUP4 MSTORE SWAP2 PUSH1 0x20 ADD SWAP2 PUSH2 0x451 JUMP JUMPDEST DUP3 ADD SWAP2 SWAP1 PUSH0 MSTORE PUSH1 0x20 PUSH0 KECCAK256 SWAP1 JUMPDEST DUP2 SLOAD DUP2 MSTORE SWAP1 PUSH1 0x1 ADD SWAP1 PUSH1 0x20 ADD DUP1 DUP4 GT PUSH2 0x434 JUMPI DUP3 SWAP1 SUB PUSH1 0x1F AND DUP3 ADD SWAP2 JUMPDEST POP POP POP POP POP SWAP1 POP SWAP1 JUMP JUMPDEST PUSH0 DUP1 PUSH2 0x465 PUSH2 0x98C JUMP JUMPDEST SWAP1 POP PUSH2 0x472 DUP2 DUP6 DUP6 PUSH2 0x993 JUMP JUMPDEST PUSH1 0x1 SWAP2 POP POP SWAP3 SWAP2 POP POP JUMP JUMPDEST PUSH0 PUSH1 0x2 SLOAD SWAP1 POP SWAP1 JUMP JUMPDEST PUSH0 DUP1 PUSH2 0x490 PUSH2 0x98C JUMP JUMPDEST SWAP1 POP PUSH2 0x49D DUP6 DUP3 DUP6 PUSH2 0x9A5 JUMP JUMPDEST PUSH2 0x4A8 DUP6 DUP6 DUP6 PUSH2 0xA37 JUMP JUMPDEST PUSH1 0x1 SWAP2 POP POP SWAP4 SWAP3 POP POP POP JUMP JUMPDEST PUSH0 PUSH1 0x12 SWAP1 POP SWAP1 JUMP JUMPDEST PUSH1 0x5 PUSH0 SWAP1 SLOAD SWAP1 PUSH2 0x100 EXP SWAP1 DIV PUSH20 0xFFFFFFFFFFFFFFFFFFFFFFFFFFFFFFFFFFFFFFFF AND PUSH20 0xFFFFFFFFFFFFFFFFFFFFFFFFFFFFFFFFFFFFFFFF AND CALLER PUSH20 0xFFFFFFFFFFFFFFFFFFFFFFFFFFFFFFFFFFFFFFFF AND EQ PUSH2 0x54B JUMPI PUSH1 0x40 MLOAD PUSH32 0x8C379A000000000000000000000000000000000000000000000000000000000 DUP2 MSTORE PUSH1 0x4 ADD PUSH2 0x542 SWAP1 PUSH2 0x17A2 JUMP JUMPDEST PUSH1 0x40 MLOAD DUP1 SWAP2 SUB SWAP1 REVERT JUMPDEST PUSH2 0x555 DUP3 DUP3 PUSH2 0xB27 JUMP JUMPDEST PUSH2 0x560 CALLER DUP4 DUP4 PUSH2 0xBA6 JUMP JUMPDEST POP POP JUMP JUMPDEST PUSH2 0x56E CALLER DUP3 PUSH2 0xCC3 JUMP JUMPDEST PUSH2 0x579 CALLER PUSH0 DUP4 PUSH2 0xBA6 JUMP JUMPDEST POP JUMP JUMPDEST PUSH0 PUSH1 0x6 SLOAD DUP3 LT PUSH2 0x5C1 JUMPI PUSH1 0x40 MLOAD PUSH32 0x8C379A000000000000000000000000000000000000000000000000000000000 DUP2 MSTORE PUSH1 0x4 ADD PUSH2 0x5B8 SWAP1 PUSH2 0x180A JUMP JUMPDEST PUSH1 0x40 MLOAD DUP1 SWAP2 SUB SWAP1 REVERT JUMPDEST PUSH1 0x7 PUSH0 DUP4 DUP2 MSTORE PUSH1 0x20 ADD SWAP1 DUP2 MSTORE PUSH1 0x20 ADD PUSH0 KECCAK256 PUSH1 0x1 ADD PUSH0 SWAP1 SLOAD SWAP1 PUSH2 0x100 EXP SWAP1 DIV PUSH20 0xFFFFFFFFFFFFFFFFFFFFFFFFFFFFFFFFFFFFFFFF AND SWAP1 POP SWAP2 SWAP1 POP JUMP JUMPDEST PUSH0 DUP1 PUSH0 DUP4 PUSH20 0xFFFFFFFFFFFFFFFFFFFFFFFFFFFFFFFFFFFFFFFF AND PUSH20 0xFFFFFFFFFFFFFFFFFFFFFFFFFFFFFFFFFFFFFFFF AND DUP2 MSTORE PUSH1 0x20 ADD SWAP1 DUP2 MSTORE PUSH1 0x20 ADD PUSH0 KECCAK256 SLOAD SWAP1 POP SWAP2 SWAP1 POP JUMP JUMPDEST PUSH1 0x60 PUSH1 0x4 DUP1 SLOAD PUSH2 0x650 SWAP1 PUSH2 0x1728 JUMP JUMPDEST DUP1 PUSH1 0x1F ADD PUSH1 0x20 DUP1 SWAP2 DIV MUL PUSH1 0x20 ADD PUSH1 0x40 MLOAD SWAP1 DUP2 ADD PUSH1 0x40 MSTORE DUP1 SWAP3 SWAP2 SWAP1 DUP2 DUP2 MSTORE PUSH1 0x20 ADD DUP3 DUP1 SLOAD PUSH2 0x67C SWAP1 PUSH2 0x1728 JUMP JUMPDEST DUP1 ISZERO PUSH2 0x6C7 JUMPI DUP1 PUSH1 0x1F LT PUSH2 0x69E JUMPI PUSH2 0x100 DUP1 DUP4 SLOAD DIV MUL DUP4 MSTORE SWAP2 PUSH1 0x20 ADD SWAP2 PUSH2 0x6C7 JUMP JUMPDEST DUP3 ADD SWAP2 SWAP1 PUSH0 MSTORE PUSH1 0x20 PUSH0 KECCAK256 SWAP1 JUMPDEST DUP2 SLOAD DUP2 MSTORE SWAP1 PUSH1 0x1 ADD SWAP1 PUSH1 0x20 ADD DUP1 DUP4 GT PUSH2 0x6AA JUMPI DUP3 SWAP1 SUB PUSH1 0x1F AND DUP3 ADD SWAP2 JUMPDEST POP POP POP POP POP SWAP1 POP SWAP1 JUMP JUMPDEST PUSH1 0x7 PUSH1 0x20 MSTORE DUP1 PUSH0 MSTORE PUSH1 0x40 PUSH0 KECCAK256 PUSH0 SWAP2 POP SWAP1 POP DUP1 PUSH0 ADD PUSH0 SWAP1 SLOAD SWAP1 PUSH2 0x100 EXP SWAP1 DIV PUSH20 0xFFFFFFFFFFFFFFFFFFFFFFFFFFFFFFFFFFFFFFFF AND SWAP1 DUP1 PUSH1 0x1 ADD PUSH0 SWAP1 SLOAD SWAP1 PUSH2 0x100 EXP SWAP1 DIV PUSH20 0xFFFFFFFFFFFFFFFFFFFFFFFFFFFFFFFFFFFFFFFF AND SWAP1 DUP1 PUSH1 0x2 ADD SLOAD SWAP1 DUP1 PUSH1 0x3 ADD SLOAD SWAP1 POP DUP5 JUMP JUMPDEST PUSH0 DUP1 PUSH2 0x745 PUSH2 0x98C JUMP JUMPDEST SWAP1 POP PUSH2 0x752 DUP2 DUP6 DUP6 PUSH2 0xA37 JUMP JUMPDEST PUSH1 0x1 SWAP2 POP POP SWAP3 SWAP2 POP POP JUMP JUMPDEST PUSH1 0x6 SLOAD DUP2 JUMP JUMPDEST PUSH0 CALLER SWAP1 POP SWAP1 JUMP JUMPDEST PUSH0 DUP1 PUSH0 DUP1 PUSH0 DUP1 PUSH0 TIMESTAMP SWAP1 POP PUSH2 0x77D DUP2 PUSH2 0xD42 JUMP JUMPDEST DUP1 SWAP8 POP DUP2 SWAP9 POP DUP3 SWAP10 POP DUP4 SWAP11 POP DUP5 SWAP12 POP DUP6 SWAP13 POP POP POP POP POP POP POP POP SWAP1 SWAP2 SWAP3 SWAP4 SWAP5 SWAP6 JUMP JUMPDEST PUSH0 DUP1 PUSH0 DUP1 PUSH1 0x6 SLOAD DUP6 LT PUSH2 0x7E6 JUMPI PUSH1 0x40 MLOAD PUSH32 0x8C379A000000000000000000000000000000000000000000000000000000000 DUP2 MSTORE PUSH1 0x4 ADD PUSH2 0x7DD SWAP1 PUSH2 0x180A JUMP JUMPDEST PUSH1 0x40 MLOAD DUP1 SWAP2 SUB SWAP1 REVERT JUMPDEST PUSH0 PUSH1 0x7 PUSH0 DUP8 DUP2 MSTORE PUSH1 0x20 ADD SWAP1 DUP2 MSTORE PUSH1 0x20 ADD PUSH0 KECCAK256 PUSH1 0x40 MLOAD DUP1 PUSH1 0x80 ADD PUSH1 0x40 MSTORE SWAP1 DUP2 PUSH0 DUP3 ADD PUSH0 SWAP1 SLOAD SWAP1 PUSH2 0x100 EXP SWAP1 DIV PUSH20 0xFFFFFFFFFFFFFFFFFFFFFFFFFFFFFFFFFFFFFFFF AND PUSH20 0xFFFFFFFFFFFFFFFFFFFFFFFFFFFFFFFFFFFFFFFF AND PUSH20 0xFFFFFFFFFFFFFFFFFFFFFFFFFFFFFFFFFFFFFFFF AND DUP2 MSTORE PUSH1 0x20 ADD PUSH1 0x1 DUP3 ADD PUSH0 SWAP1 SLOAD SWAP1 PUSH2 0x100 EXP SWAP1 DIV PUSH20 0xFFFFFFFFFFFFFFFFFFFFFFFFFFFFFFFFFFFFFFFF AND PUSH20 0xFFFFFFFFFFFFFFFFFFFFFFFFFFFFFFFFFFFFFFFF AND PUSH20 0xFFFFFFFFFFFFFFFFFFFFFFFFFFFFFFFFFFFFFFFF AND DUP2 MSTORE PUSH1 0x20 ADD PUSH1 0x2 DUP3 ADD SLOAD DUP2 MSTORE PUSH1 0x20 ADD PUSH1 0x3 DUP3 ADD SLOAD DUP2 MSTORE POP POP SWAP1 POP DUP1 PUSH0 ADD MLOAD DUP2 PUSH1 0x20 ADD MLOAD DUP3 PUSH1 0x40 ADD MLOAD DUP4 PUSH1 0x60 ADD MLOAD SWAP5 POP SWAP5 POP SWAP5 POP SWAP5 POP POP SWAP2 SWAP4 POP SWAP2 SWAP4 JUMP JUMPDEST PUSH0 PUSH1 0x1 PUSH0 DUP5 PUSH20 0xFFFFFFFFFFFFFFFFFFFFFFFFFFFFFFFFFFFFFFFF AND PUSH20 0xFFFFFFFFFFFFFFFFFFFFFFFFFFFFFFFFFFFFFFFF AND DUP2 MSTORE PUSH1 0x20 ADD SWAP1 DUP2 MSTORE PUSH1 0x20 ADD PUSH0 KECCAK256 PUSH0 DUP4 PUSH20 0xFFFFFFFFFFFFFFFFFFFFFFFFFFFFFFFFFFFFFFFF AND PUSH20 0xFFFFFFFFFFFFFFFFFFFFFFFFFFFFFFFFFFFFFFFF AND DUP2 MSTORE PUSH1 0x20 ADD SWAP1 DUP2 MSTORE PUSH1 0x20 ADD PUSH0 KECCAK256 SLOAD SWAP1 POP SWAP3 SWAP2 POP POP JUMP JUMPDEST PUSH1 0x5 PUSH0 SWAP1 SLOAD SWAP1 PUSH2 0x100 EXP SWAP1 DIV PUSH20 0xFFFFFFFFFFFFFFFFFFFFFFFFFFFFFFFFFFFFFFFF AND DUP2 JUMP JUMPDEST PUSH0 CALLER SWAP1 POP SWAP1 JUMP JUMPDEST PUSH2 0x9A0 DUP4 DUP4 DUP4 PUSH1 0x1 PUSH2 0xDC5 JUMP JUMPDEST POP POP POP JUMP JUMPDEST PUSH0 PUSH2 0x9B0 DUP5 DUP5 PUSH2 0x8E5 JUMP JUMPDEST SWAP1 POP PUSH32 0xFFFFFFFFFFFFFFFFFFFFFFFFFFFFFFFFFFFFFFFFFFFFFFFFFFFFFFFFFFFFFFFF DUP2 EQ PUSH2 0xA31 JUMPI DUP2 DUP2 LT ISZERO PUSH2 0xA22 JUMPI DUP3 DUP2 DUP4 PUSH1 0x40 MLOAD PUSH32 0xFB8F41B200000000000000000000000000000000000000000000000000000000 DUP2 MSTORE PUSH1 0x4 ADD PUSH2 0xA19 SWAP4 SWAP3 SWAP2 SWAP1 PUSH2 0x1828 JUMP JUMPDEST PUSH1 0x40 MLOAD DUP1 SWAP2 SUB SWAP1 REVERT JUMPDEST PUSH2 0xA30 DUP5 DUP5 DUP5 DUP5 SUB PUSH0 PUSH2 0xDC5 JUMP JUMPDEST JUMPDEST POP POP POP POP JUMP JUMPDEST PUSH0 PUSH20 0xFFFFFFFFFFFFFFFFFFFFFFFFFFFFFFFFFFFFFFFF AND DUP4 PUSH20 0xFFFFFFFFFFFFFFFFFFFFFFFFFFFFFFFFFFFFFFFF AND SUB PUSH2 0xAA7 JUMPI PUSH0 PUSH1 0x40 MLOAD PUSH32 0x96C6FD1E00000000000000000000000000000000000000000000000000000000 DUP2 MSTORE PUSH1 0x4 ADD PUSH2 0xA9E SWAP2 SWAP1 PUSH2 0x15D7 JUMP JUMPDEST PUSH1 0x40 MLOAD DUP1 SWAP2 SUB SWAP1 REVERT JUMPDEST PUSH0 PUSH20 0xFFFFFFFFFFFFFFFFFFFFFFFFFFFFFFFFFFFFFFFF AND DUP3 PUSH20 0xFFFFFFFFFFFFFFFFFFFFFFFFFFFFFFFFFFFFFFFF AND SUB PUSH2 0xB17 JUMPI PUSH0 PUSH1 0x40 MLOAD PUSH32 0xEC442F0500000000000000000000000000000000000000000000000000000000 DUP2 MSTORE PUSH1 0x4 ADD PUSH2 0xB0E SWAP2 SWAP1 PUSH2 0x15D7 JUMP JUMPDEST PUSH1 0x40 MLOAD DUP1 SWAP2 SUB SWAP1 REVERT JUMPDEST PUSH2 0xB22 DUP4 DUP4 DUP4 PUSH2 0xF94 JUMP JUMPDEST POP POP POP JUMP JUMPDEST PUSH0 PUSH20 0xFFFFFFFFFFFFFFFFFFFFFFFFFFFFFFFFFFFFFFFF AND DUP3 PUSH20 0xFFFFFFFFFFFFFFFFFFFFFFFFFFFFFFFFFFFFFFFF AND SUB PUSH2 0xB97 JUMPI PUSH0 PUSH1 0x40 MLOAD PUSH32 0xEC442F0500000000000000000000000000000000000000000000000000000000 DUP2 MSTORE PUSH1 0x4 ADD PUSH2 0xB8E SWAP2 SWAP1 PUSH2 0x15D7 JUMP JUMPDEST PUSH1 0x40 MLOAD DUP1 SWAP2 SUB SWAP1 REVERT JUMPDEST PUSH2 0xBA2 PUSH0 DUP4 DUP4 PUSH2 0xF94 JUMP JUMPDEST POP POP JUMP JUMPDEST PUSH1 0x40 MLOAD DUP1 PUSH1 0x80 ADD PUSH1 0x40 MSTORE DUP1 DUP5 PUSH20 0xFFFFFFFFFFFFFFFFFFFFFFFFFFFFFFFFFFFFFFFF AND DUP2 MSTORE PUSH1 0x20 ADD DUP4 PUSH20 0xFFFFFFFFFFFFFFFFFFFFFFFFFFFFFFFFFFFFFFFF AND DUP2 MSTORE PUSH1 0x20 ADD DUP3 DUP2 MSTORE PUSH1 0x20 ADD TIMESTAMP DUP2 MSTORE POP PUSH1 0x7 PUSH0 PUSH1 0x6 SLOAD DUP2 MSTORE PUSH1 0x20 ADD SWAP1 DUP2 MSTORE PUSH1 0x20 ADD PUSH0 KECCAK256 PUSH0 DUP3 ADD MLOAD DUP2 PUSH0 ADD PUSH0 PUSH2 0x100 EXP DUP2 SLOAD DUP2 PUSH20 0xFFFFFFFFFFFFFFFFFFFFFFFFFFFFFFFFFFFFFFFF MUL NOT AND SWAP1 DUP4 PUSH20 0xFFFFFFFFFFFFFFFFFFFFFFFFFFFFFFFFFFFFFFFF AND MUL OR SWAP1 SSTORE POP PUSH1 0x20 DUP3 ADD MLOAD DUP2 PUSH1 0x1 ADD PUSH0 PUSH2 0x100 EXP DUP2 SLOAD DUP2 PUSH20 0xFFFFFFFFFFFFFFFFFFFFFFFFFFFFFFFFFFFFFFFF MUL NOT AND SWAP1 DUP4 PUSH20 0xFFFFFFFFFFFFFFFFFFFFFFFFFFFFFFFFFFFFFFFF AND MUL OR SWAP1 SSTORE POP PUSH1 0x40 DUP3 ADD MLOAD DUP2 PUSH1 0x2 ADD SSTORE PUSH1 0x60 DUP3 ADD MLOAD DUP2 PUSH1 0x3 ADD SSTORE SWAP1 POP POP PUSH1 0x6 PUSH0 DUP2 SLOAD DUP1 SWAP3 SWAP2 SWAP1 PUSH2 0xCB9 SWAP1 PUSH2 0x188A JUMP JUMPDEST SWAP2 SWAP1 POP SSTORE POP POP POP POP JUMP JUMPDEST PUSH0 PUSH20 0xFFFFFFFFFFFFFFFFFFFFFFFFFFFFFFFFFFFFFFFF AND DUP3 PUSH20 0xFFFFFFFFFFFFFFFFFFFFFFFFFFFFFFFFFFFFFFFF AND SUB PUSH2 0xD33 JUMPI PUSH0 PUSH1 0x40 MLOAD PUSH32 0x96C6FD1E00000000000000000000000000000000000000000000000000000000 DUP2 MSTORE PUSH1 0x4 ADD PUSH2 0xD2A SWAP2 SWAP1 PUSH2 0x15D7 JUMP JUMPDEST PUSH1 0x40 MLOAD DUP1 SWAP2 SUB SWAP1 REVERT JUMPDEST PUSH2 0xD3E DUP3 PUSH0 DUP4 PUSH2 0xF94 JUMP JUMPDEST POP POP JUMP JUMPDEST PUSH0 DUP1 PUSH0 DUP1 PUSH0 DUP1 PUSH2 0xD5F PUSH3 0x15180 DUP9 PUSH2 0xD5A SWAP2 SWAP1 PUSH2 0x18FE JUMP JUMPDEST PUSH2 0x11AD JUMP JUMPDEST DUP1 SWAP7 POP DUP2 SWAP8 POP DUP3 SWAP9 POP POP POP POP PUSH0 PUSH3 0x15180 DUP9 PUSH2 0xD7B SWAP2 SWAP1 PUSH2 0x192E JUMP JUMPDEST SWAP1 POP PUSH2 0xE10 DUP2 PUSH2 0xD8B SWAP2 SWAP1 PUSH2 0x18FE JUMP JUMPDEST SWAP4 POP PUSH2 0xE10 DUP2 PUSH2 0xD9B SWAP2 SWAP1 PUSH2 0x192E JUMP JUMPDEST SWAP1 POP PUSH1 0x3C DUP2 PUSH2 0xDAA SWAP2 SWAP1 PUSH2 0x18FE JUMP JUMPDEST SWAP3 POP PUSH1 0x3C DUP2 PUSH2 0xDB9 SWAP2 SWAP1 PUSH2 0x192E JUMP JUMPDEST SWAP2 POP POP SWAP2 SWAP4 SWAP6 POP SWAP2 SWAP4 SWAP6 JUMP JUMPDEST PUSH0 PUSH20 0xFFFFFFFFFFFFFFFFFFFFFFFFFFFFFFFFFFFFFFFF AND DUP5 PUSH20 0xFFFFFFFFFFFFFFFFFFFFFFFFFFFFFFFFFFFFFFFF AND SUB PUSH2 0xE35 JUMPI PUSH0 PUSH1 0x40 MLOAD PUSH32 0xE602DF0500000000000000000000000000000000000000000000000000000000 DUP2 MSTORE PUSH1 0x4 ADD PUSH2 0xE2C SWAP2 SWAP1 PUSH2 0x15D7 JUMP JUMPDEST PUSH1 0x40 MLOAD DUP1 SWAP2 SUB SWAP1 REVERT JUMPDEST PUSH0 PUSH20 0xFFFFFFFFFFFFFFFFFFFFFFFFFFFFFFFFFFFFFFFF AND DUP4 PUSH20 0xFFFFFFFFFFFFFFFFFFFFFFFFFFFFFFFFFFFFFFFF AND SUB PUSH2 0xEA5 JUMPI PUSH0 PUSH1 0x40 MLOAD PUSH32 0x94280D6200000000000000000000000000000000000000000000000000000000 DUP2 MSTORE PUSH1 0x4 ADD PUSH2 0xE9C SWAP2 SWAP1 PUSH2 0x15D7 JUMP JUMPDEST PUSH1 0x40 MLOAD DUP1 SWAP2 SUB SWAP1 REVERT JUMPDEST DUP2 PUSH1 0x1 PUSH0 DUP7 PUSH20 0xFFFFFFFFFFFFFFFFFFFFFFFFFFFFFFFFFFFFFFFF AND PUSH20 0xFFFFFFFFFFFFFFFFFFFFFFFFFFFFFFFFFFFFFFFF AND DUP2 MSTORE PUSH1 0x20 ADD SWAP1 DUP2 MSTORE PUSH1 0x20 ADD PUSH0 KECCAK256 PUSH0 DUP6 PUSH20 0xFFFFFFFFFFFFFFFFFFFFFFFFFFFFFFFFFFFFFFFF AND PUSH20 0xFFFFFFFFFFFFFFFFFFFFFFFFFFFFFFFFFFFFFFFF AND DUP2 MSTORE PUSH1 0x20 ADD SWAP1 DUP2 MSTORE PUSH1 0x20 ADD PUSH0 KECCAK256 DUP2 SWAP1 SSTORE POP DUP1 ISZERO PUSH2 0xF8E JUMPI DUP3 PUSH20 0xFFFFFFFFFFFFFFFFFFFFFFFFFFFFFFFFFFFFFFFF AND DUP5 PUSH20 0xFFFFFFFFFFFFFFFFFFFFFFFFFFFFFFFFFFFFFFFF AND PUSH32 0x8C5BE1E5EBEC7D5BD14F71427D1E84F3DD0314C0F7B2291E5B200AC8C7C3B925 DUP5 PUSH1 0x40 MLOAD PUSH2 0xF85 SWAP2 SWAP1 PUSH2 0x1500 JUMP JUMPDEST PUSH1 0x40 MLOAD DUP1 SWAP2 SUB SWAP1 LOG3 JUMPDEST POP POP POP POP JUMP JUMPDEST PUSH0 PUSH20 0xFFFFFFFFFFFFFFFFFFFFFFFFFFFFFFFFFFFFFFFF AND DUP4 PUSH20 0xFFFFFFFFFFFFFFFFFFFFFFFFFFFFFFFFFFFFFFFF AND SUB PUSH2 0xFE4 JUMPI DUP1 PUSH1 0x2 PUSH0 DUP3 DUP3 SLOAD PUSH2 0xFD8 SWAP2 SWAP1 PUSH2 0x195E JUMP JUMPDEST SWAP3 POP POP DUP2 SWAP1 SSTORE POP PUSH2 0x10B2 JUMP JUMPDEST PUSH0 DUP1 PUSH0 DUP6 PUSH20 0xFFFFFFFFFFFFFFFFFFFFFFFFFFFFFFFFFFFFFFFF AND PUSH20 0xFFFFFFFFFFFFFFFFFFFFFFFFFFFFFFFFFFFFFFFF AND DUP2 MSTORE PUSH1 0x20 ADD SWAP1 DUP2 MSTORE PUSH1 0x20 ADD PUSH0 KECCAK256 SLOAD SWAP1 POP DUP2 DUP2 LT ISZERO PUSH2 0x106D JUMPI DUP4 DUP2 DUP4 PUSH1 0x40 MLOAD PUSH32 0xE450D38C00000000000000000000000000000000000000000000000000000000 DUP2 MSTORE PUSH1 0x4 ADD PUSH2 0x1064 SWAP4 SWAP3 SWAP2 SWAP1 PUSH2 0x1828 JUMP JUMPDEST PUSH1 0x40 MLOAD DUP1 SWAP2 SUB SWAP1 REVERT JUMPDEST DUP2 DUP2 SUB PUSH0 DUP1 DUP7 PUSH20 0xFFFFFFFFFFFFFFFFFFFFFFFFFFFFFFFFFFFFFFFF AND PUSH20 0xFFFFFFFFFFFFFFFFFFFFFFFFFFFFFFFFFFFFFFFF AND DUP2 MSTORE PUSH1 0x20 ADD SWAP1 DUP2 MSTORE PUSH1 0x20 ADD PUSH0 KECCAK256 DUP2 SWAP1 SSTORE POP POP JUMPDEST PUSH0 PUSH20 0xFFFFFFFFFFFFFFFFFFFFFFFFFFFFFFFFFFFFFFFF AND DUP3 PUSH20 0xFFFFFFFFFFFFFFFFFFFFFFFFFFFFFFFFFFFFFFFF AND SUB PUSH2 0x10F9 JUMPI DUP1 PUSH1 0x2 PUSH0 DUP3 DUP3 SLOAD SUB SWAP3 POP POP DUP2 SWAP1 SSTORE POP PUSH2 0x1143 JUMP JUMPDEST DUP1 PUSH0 DUP1 DUP5 PUSH20 0xFFFFFFFFFFFFFFFFFFFFFFFFFFFFFFFFFFFFFFFF AND PUSH20 0xFFFFFFFFFFFFFFFFFFFFFFFFFFFFFFFFFFFFFFFF AND DUP2 MSTORE PUSH1 0x20 ADD SWAP1 DUP2 MSTORE PUSH1 0x20 ADD PUSH0 KECCAK256 PUSH0 DUP3 DUP3 SLOAD ADD SWAP3 POP POP DUP2 SWAP1 SSTORE POP JUMPDEST DUP2 PUSH20 0xFFFFFFFFFFFFFFFFFFFFFFFFFFFFFFFFFFFFFFFF AND DUP4 PUSH20 0xFFFFFFFFFFFFFFFFFFFFFFFFFFFFFFFFFFFFFFFF AND PUSH32 0xDDF252AD1BE2C89B69C2B068FC378DAA952BA7F163C4A11628F55A4DF523B3EF DUP4 PUSH1 0x40 MLOAD PUSH2 0x11A0 SWAP2 SWAP1 PUSH2 0x1500 JUMP JUMPDEST PUSH1 0x40 MLOAD DUP1 SWAP2 SUB SWAP1 LOG3 POP POP POP JUMP JUMPDEST PUSH0 DUP1 PUSH0 DUP1 DUP5 SWAP1 POP PUSH0 PUSH3 0x253D8C PUSH3 0x10BD9 DUP4 PUSH2 0x11C8 SWAP2 SWAP1 PUSH2 0x199A JUMP JUMPDEST PUSH2 0x11D2 SWAP2 SWAP1 PUSH2 0x199A JUMP JUMPDEST SWAP1 POP PUSH0 PUSH3 0x23AB1 DUP3 PUSH1 0x4 PUSH2 0x11E6 SWAP2 SWAP1 PUSH2 0x19DB JUMP JUMPDEST PUSH2 0x11F0 SWAP2 SWAP1 PUSH2 0x1A51 JUMP JUMPDEST SWAP1 POP PUSH1 0x4 PUSH1 0x3 DUP3 PUSH3 0x23AB1 PUSH2 0x1205 SWAP2 SWAP1 PUSH2 0x19DB JUMP JUMPDEST PUSH2 0x120F SWAP2 SWAP1 PUSH2 0x199A JUMP JUMPDEST PUSH2 0x1219 SWAP2 SWAP1 PUSH2 0x1A51 JUMP JUMPDEST DUP3 PUSH2 0x1224 SWAP2 SWAP1 PUSH2 0x1AB9 JUMP JUMPDEST SWAP2 POP PUSH0 PUSH3 0x164B09 PUSH1 0x1 DUP5 PUSH2 0x1238 SWAP2 SWAP1 PUSH2 0x199A JUMP JUMPDEST PUSH2 0xFA0 PUSH2 0x1245 SWAP2 SWAP1 PUSH2 0x19DB JUMP JUMPDEST PUSH2 0x124F SWAP2 SWAP1 PUSH2 0x1A51 JUMP JUMPDEST SWAP1 POP PUSH1 0x1F PUSH1 0x4 DUP3 PUSH2 0x5B5 PUSH2 0x1263 SWAP2 SWAP1 PUSH2 0x19DB JUMP JUMPDEST PUSH2 0x126D SWAP2 SWAP1 PUSH2 0x1A51 JUMP JUMPDEST DUP5 PUSH2 0x1278 SWAP2 SWAP1 PUSH2 0x1AB9 JUMP JUMPDEST PUSH2 0x1282 SWAP2 SWAP1 PUSH2 0x199A JUMP JUMPDEST SWAP3 POP PUSH0 PUSH2 0x98F DUP5 PUSH1 0x50 PUSH2 0x1295 SWAP2 SWAP1 PUSH2 0x19DB JUMP JUMPDEST PUSH2 0x129F SWAP2 SWAP1 PUSH2 0x1A51 JUMP JUMPDEST SWAP1 POP PUSH0 PUSH1 0x50 DUP3 PUSH2 0x98F PUSH2 0x12B2 SWAP2 SWAP1 PUSH2 0x19DB JUMP JUMPDEST PUSH2 0x12BC SWAP2 SWAP1 PUSH2 0x1A51 JUMP JUMPDEST DUP6 PUSH2 0x12C7 SWAP2 SWAP1 PUSH2 0x1AB9 JUMP JUMPDEST SWAP1 POP PUSH1 0xB DUP3 PUSH2 0x12D6 SWAP2 SWAP1 PUSH2 0x1A51 JUMP JUMPDEST SWAP5 POP DUP5 PUSH1 0xC PUSH2 0x12E5 SWAP2 SWAP1 PUSH2 0x19DB JUMP JUMPDEST PUSH1 0x2 DUP4 PUSH2 0x12F2 SWAP2 SWAP1 PUSH2 0x199A JUMP JUMPDEST PUSH2 0x12FC SWAP2 SWAP1 PUSH2 0x1AB9 JUMP JUMPDEST SWAP2 POP DUP5 DUP4 PUSH1 0x31 DUP7 PUSH2 0x130D SWAP2 SWAP1 PUSH2 0x1AB9 JUMP JUMPDEST PUSH1 0x64 PUSH2 0x1319 SWAP2 SWAP1 PUSH2 0x19DB JUMP JUMPDEST PUSH2 0x1323 SWAP2 SWAP1 PUSH2 0x199A JUMP JUMPDEST PUSH2 0x132D SWAP2 SWAP1 PUSH2 0x199A JUMP JUMPDEST SWAP3 POP DUP3 SWAP9 POP DUP2 SWAP8 POP DUP1 SWAP7 POP POP POP POP POP POP POP SWAP2 SWAP4 SWAP1 SWAP3 POP JUMP JUMPDEST PUSH0 DUP2 MLOAD SWAP1 POP SWAP2 SWAP1 POP JUMP JUMPDEST PUSH0 DUP3 DUP3 MSTORE PUSH1 0x20 DUP3 ADD SWAP1 POP SWAP3 SWAP2 POP POP JUMP JUMPDEST PUSH0 JUMPDEST DUP4 DUP2 LT ISZERO PUSH2 0x137C JUMPI DUP1 DUP3 ADD MLOAD DUP2 DUP5 ADD MSTORE PUSH1 0x20 DUP2 ADD SWAP1 POP PUSH2 0x1361 JUMP JUMPDEST PUSH0 DUP5 DUP5 ADD MSTORE POP POP POP POP JUMP JUMPDEST PUSH0 PUSH1 0x1F NOT PUSH1 0x1F DUP4 ADD AND SWAP1 POP SWAP2 SWAP1 POP JUMP JUMPDEST PUSH0 PUSH2 0x13A1 DUP3 PUSH2 0x1345 JUMP JUMPDEST PUSH2 0x13AB DUP2 DUP6 PUSH2 0x134F JUMP JUMPDEST SWAP4 POP PUSH2 0x13BB DUP2 DUP6 PUSH1 0x20 DUP7 ADD PUSH2 0x135F JUMP JUMPDEST PUSH2 0x13C4 DUP2 PUSH2 0x1387 JUMP JUMPDEST DUP5 ADD SWAP2 POP POP SWAP3 SWAP2 POP POP JUMP JUMPDEST PUSH0 PUSH1 0x20 DUP3 ADD SWAP1 POP DUP2 DUP2 SUB PUSH0 DUP4 ADD MSTORE PUSH2 0x13E7 DUP2 DUP5 PUSH2 0x1397 JUMP JUMPDEST SWAP1 POP SWAP3 SWAP2 POP POP JUMP JUMPDEST PUSH0 DUP1 REVERT JUMPDEST PUSH0 PUSH20 0xFFFFFFFFFFFFFFFFFFFFFFFFFFFFFFFFFFFFFFFF DUP3 AND SWAP1 POP SWAP2 SWAP1 POP JUMP JUMPDEST PUSH0 PUSH2 0x141C DUP3 PUSH2 0x13F3 JUMP JUMPDEST SWAP1 POP SWAP2 SWAP1 POP JUMP JUMPDEST PUSH2 0x142C DUP2 PUSH2 0x1412 JUMP JUMPDEST DUP2 EQ PUSH2 0x1436 JUMPI PUSH0 DUP1 REVERT JUMPDEST POP JUMP JUMPDEST PUSH0 DUP2 CALLDATALOAD SWAP1 POP PUSH2 0x1447 DUP2 PUSH2 0x1423 JUMP JUMPDEST SWAP3 SWAP2 POP POP JUMP JUMPDEST PUSH0 DUP2 SWAP1 POP SWAP2 SWAP1 POP JUMP JUMPDEST PUSH2 0x145F DUP2 PUSH2 0x144D JUMP JUMPDEST DUP2 EQ PUSH2 0x1469 JUMPI PUSH0 DUP1 REVERT JUMPDEST POP JUMP JUMPDEST PUSH0 DUP2 CALLDATALOAD SWAP1 POP PUSH2 0x147A DUP2 PUSH2 0x1456 JUMP JUMPDEST SWAP3 SWAP2 POP POP JUMP JUMPDEST PUSH0 DUP1 PUSH1 0x40 DUP4 DUP6 SUB SLT ISZERO PUSH2 0x1496 JUMPI PUSH2 0x1495 PUSH2 0x13EF JUMP JUMPDEST JUMPDEST PUSH0 PUSH2 0x14A3 DUP6 DUP3 DUP7 ADD PUSH2 0x1439 JUMP JUMPDEST SWAP3 POP POP PUSH1 0x20 PUSH2 0x14B4 DUP6 DUP3 DUP7 ADD PUSH2 0x146C JUMP JUMPDEST SWAP2 POP POP SWAP3 POP SWAP3 SWAP1 POP JUMP JUMPDEST PUSH0 DUP2 ISZERO ISZERO SWAP1 POP SWAP2 SWAP1 POP JUMP JUMPDEST PUSH2 0x14D2 DUP2 PUSH2 0x14BE JUMP JUMPDEST DUP3 MSTORE POP POP JUMP JUMPDEST PUSH0 PUSH1 0x20 DUP3 ADD SWAP1 POP PUSH2 0x14EB PUSH0 DUP4 ADD DUP5 PUSH2 0x14C9 JUMP JUMPDEST SWAP3 SWAP2 POP POP JUMP JUMPDEST PUSH2 0x14FA DUP2 PUSH2 0x144D JUMP JUMPDEST DUP3 MSTORE POP POP JUMP JUMPDEST PUSH0 PUSH1 0x20 DUP3 ADD SWAP1 POP PUSH2 0x1513 PUSH0 DUP4 ADD DUP5 PUSH2 0x14F1 JUMP JUMPDEST SWAP3 SWAP2 POP POP JUMP JUMPDEST PUSH0 DUP1 PUSH0 PUSH1 0x60 DUP5 DUP7 SUB SLT ISZERO PUSH2 0x1530 JUMPI PUSH2 0x152F PUSH2 0x13EF JUMP JUMPDEST JUMPDEST PUSH0 PUSH2 0x153D DUP7 DUP3 DUP8 ADD PUSH2 0x1439 JUMP JUMPDEST SWAP4 POP POP PUSH1 0x20 PUSH2 0x154E DUP7 DUP3 DUP8 ADD PUSH2 0x1439 JUMP JUMPDEST SWAP3 POP POP PUSH1 0x40 PUSH2 0x155F DUP7 DUP3 DUP8 ADD PUSH2 0x146C JUMP JUMPDEST SWAP2 POP POP SWAP3 POP SWAP3 POP SWAP3 JUMP JUMPDEST PUSH0 PUSH1 0xFF DUP3 AND SWAP1 POP SWAP2 SWAP1 POP JUMP JUMPDEST PUSH2 0x157E DUP2 PUSH2 0x1569 JUMP JUMPDEST DUP3 MSTORE POP POP JUMP JUMPDEST PUSH0 PUSH1 0x20 DUP3 ADD SWAP1 POP PUSH2 0x1597 PUSH0 DUP4 ADD DUP5 PUSH2 0x1575 JUMP JUMPDEST SWAP3 SWAP2 POP POP JUMP JUMPDEST PUSH0 PUSH1 0x20 DUP3 DUP5 SUB SLT ISZERO PUSH2 0x15B2 JUMPI PUSH2 0x15B1 PUSH2 0x13EF JUMP JUMPDEST JUMPDEST PUSH0 PUSH2 0x15BF DUP5 DUP3 DUP6 ADD PUSH2 0x146C JUMP JUMPDEST SWAP2 POP POP SWAP3 SWAP2 POP POP JUMP JUMPDEST PUSH2 0x15D1 DUP2 PUSH2 0x1412 JUMP JUMPDEST DUP3 MSTORE POP POP JUMP JUMPDEST PUSH0 PUSH1 0x20 DUP3 ADD SWAP1 POP PUSH2 0x15EA PUSH0 DUP4 ADD DUP5 PUSH2 0x15C8 JUMP JUMPDEST SWAP3 SWAP2 POP POP JUMP JUMPDEST PUSH0 PUSH1 0x20 DUP3 DUP5 SUB SLT ISZERO PUSH2 0x1605 JUMPI PUSH2 0x1604 PUSH2 0x13EF JUMP JUMPDEST JUMPDEST PUSH0 PUSH2 0x1612 DUP5 DUP3 DUP6 ADD PUSH2 0x1439 JUMP JUMPDEST SWAP2 POP POP SWAP3 SWAP2 POP POP JUMP JUMPDEST PUSH0 PUSH1 0x80 DUP3 ADD SWAP1 POP PUSH2 0x162E PUSH0 DUP4 ADD DUP8 PUSH2 0x15C8 JUMP JUMPDEST PUSH2 0x163B PUSH1 0x20 DUP4 ADD DUP7 PUSH2 0x15C8 JUMP JUMPDEST PUSH2 0x1648 PUSH1 0x40 DUP4 ADD DUP6 PUSH2 0x14F1 JUMP JUMPDEST PUSH2 0x1655 PUSH1 0x60 DUP4 ADD DUP5 PUSH2 0x14F1 JUMP JUMPDEST SWAP6 SWAP5 POP POP POP POP POP JUMP JUMPDEST PUSH0 PUSH1 0xC0 DUP3 ADD SWAP1 POP PUSH2 0x1671 PUSH0 DUP4 ADD DUP10 PUSH2 0x14F1 JUMP JUMPDEST PUSH2 0x167E PUSH1 0x20 DUP4 ADD DUP9 PUSH2 0x14F1 JUMP JUMPDEST PUSH2 0x168B PUSH1 0x40 DUP4 ADD DUP8 PUSH2 0x14F1 JUMP JUMPDEST PUSH2 0x1698 PUSH1 0x60 DUP4 ADD DUP7 PUSH2 0x14F1 JUMP JUMPDEST PUSH2 0x16A5 PUSH1 0x80 DUP4 ADD DUP6 PUSH2 0x14F1 JUMP JUMPDEST PUSH2 0x16B2 PUSH1 0xA0 DUP4 ADD DUP5 PUSH2 0x14F1 JUMP JUMPDEST SWAP8 SWAP7 POP POP POP POP POP POP POP JUMP JUMPDEST PUSH0 DUP1 PUSH1 0x40 DUP4 DUP6 SUB SLT ISZERO PUSH2 0x16D3 JUMPI PUSH2 0x16D2 PUSH2 0x13EF JUMP JUMPDEST JUMPDEST PUSH0 PUSH2 0x16E0 DUP6 DUP3 DUP7 ADD PUSH2 0x1439 JUMP JUMPDEST SWAP3 POP POP PUSH1 0x20 PUSH2 0x16F1 DUP6 DUP3 DUP7 ADD PUSH2 0x1439 JUMP JUMPDEST SWAP2 POP POP SWAP3 POP SWAP3 SWAP1 POP JUMP JUMPDEST PUSH32 0x4E487B7100000000000000000000000000000000000000000000000000000000 PUSH0 MSTORE PUSH1 0x22 PUSH1 0x4 MSTORE PUSH1 0x24 PUSH0 REVERT JUMPDEST PUSH0 PUSH1 0x2 DUP3 DIV SWAP1 POP PUSH1 0x1 DUP3 AND DUP1 PUSH2 0x173F JUMPI PUSH1 0x7F DUP3 AND SWAP2 POP JUMPDEST PUSH1 0x20 DUP3 LT DUP2 SUB PUSH2 0x1752 JUMPI PUSH2 0x1751 PUSH2 0x16FB JUMP JUMPDEST JUMPDEST POP SWAP2 SWAP1 POP JUMP JUMPDEST PUSH32 0x6F6E6C792061646D696E00000000000000000000000000000000000000000000 PUSH0 DUP3 ADD MSTORE POP JUMP JUMPDEST PUSH0 PUSH2 0x178C PUSH1 0xA DUP4 PUSH2 0x134F JUMP JUMPDEST SWAP2 POP PUSH2 0x1797 DUP3 PUSH2 0x1758 JUMP JUMPDEST PUSH1 0x20 DUP3 ADD SWAP1 POP SWAP2 SWAP1 POP JUMP JUMPDEST PUSH0 PUSH1 0x20 DUP3 ADD SWAP1 POP DUP2 DUP2 SUB PUSH0 DUP4 ADD MSTORE PUSH2 0x17B9 DUP2 PUSH2 0x1780 JUMP JUMPDEST SWAP1 POP SWAP2 SWAP1 POP JUMP JUMPDEST PUSH32 0x496E76616C6964207472616E73616374696F6E20494400000000000000000000 PUSH0 DUP3 ADD MSTORE POP JUMP JUMPDEST PUSH0 PUSH2 0x17F4 PUSH1 0x16 DUP4 PUSH2 0x134F JUMP JUMPDEST SWAP2 POP PUSH2 0x17FF DUP3 PUSH2 0x17C0 JUMP JUMPDEST PUSH1 0x20 DUP3 ADD SWAP1 POP SWAP2 SWAP1 POP JUMP JUMPDEST PUSH0 PUSH1 0x20 DUP3 ADD SWAP1 POP DUP2 DUP2 SUB PUSH0 DUP4 ADD MSTORE PUSH2 0x1821 DUP2 PUSH2 0x17E8 JUMP JUMPDEST SWAP1 POP SWAP2 SWAP1 POP JUMP JUMPDEST PUSH0 PUSH1 0x60 DUP3 ADD SWAP1 POP PUSH2 0x183B PUSH0 DUP4 ADD DUP7 PUSH2 0x15C8 JUMP JUMPDEST PUSH2 0x1848 PUSH1 0x20 DUP4 ADD DUP6 PUSH2 0x14F1 JUMP JUMPDEST PUSH2 0x1855 PUSH1 0x40 DUP4 ADD DUP5 PUSH2 0x14F1 JUMP JUMPDEST SWAP5 SWAP4 POP POP POP POP JUMP JUMPDEST PUSH32 0x4E487B7100000000000000000000000000000000000000000000000000000000 PUSH0 MSTORE PUSH1 0x11 PUSH1 0x4 MSTORE PUSH1 0x24 PUSH0 REVERT JUMPDEST PUSH0 PUSH2 0x1894 DUP3 PUSH2 0x144D JUMP JUMPDEST SWAP2 POP PUSH32 0xFFFFFFFFFFFFFFFFFFFFFFFFFFFFFFFFFFFFFFFFFFFFFFFFFFFFFFFFFFFFFFFF DUP3 SUB PUSH2 0x18C6 JUMPI PUSH2 0x18C5 PUSH2 0x185D JUMP JUMPDEST JUMPDEST PUSH1 0x1 DUP3 ADD SWAP1 POP SWAP2 SWAP1 POP JUMP JUMPDEST PUSH32 0x4E487B7100000000000000000000000000000000000000000000000000000000 PUSH0 MSTORE PUSH1 0x12 PUSH1 0x4 MSTORE PUSH1 0x24 PUSH0 REVERT JUMPDEST PUSH0 PUSH2 0x1908 DUP3 PUSH2 0x144D JUMP JUMPDEST SWAP2 POP PUSH2 0x1913 DUP4 PUSH2 0x144D JUMP JUMPDEST SWAP3 POP DUP3 PUSH2 0x1923 JUMPI PUSH2 0x1922 PUSH2 0x18D1 JUMP JUMPDEST JUMPDEST DUP3 DUP3 DIV SWAP1 POP SWAP3 SWAP2 POP POP JUMP JUMPDEST PUSH0 PUSH2 0x1938 DUP3 PUSH2 0x144D JUMP JUMPDEST SWAP2 POP PUSH2 0x1943 DUP4 PUSH2 0x144D JUMP JUMPDEST SWAP3 POP DUP3 PUSH2 0x1953 JUMPI PUSH2 0x1952 PUSH2 0x18D1 JUMP JUMPDEST JUMPDEST DUP3 DUP3 MOD SWAP1 POP SWAP3 SWAP2 POP POP JUMP JUMPDEST PUSH0 PUSH2 0x1968 DUP3 PUSH2 0x144D JUMP JUMPDEST SWAP2 POP PUSH2 0x1973 DUP4 PUSH2 0x144D JUMP JUMPDEST SWAP3 POP DUP3 DUP3 ADD SWAP1 POP DUP1 DUP3 GT ISZERO PUSH2 0x198B JUMPI PUSH2 0x198A PUSH2 0x185D JUMP JUMPDEST JUMPDEST SWAP3 SWAP2 POP POP JUMP JUMPDEST PUSH0 DUP2 SWAP1 POP SWAP2 SWAP1 POP JUMP JUMPDEST PUSH0 PUSH2 0x19A4 DUP3 PUSH2 0x1991 JUMP JUMPDEST SWAP2 POP PUSH2 0x19AF DUP4 PUSH2 0x1991 JUMP JUMPDEST SWAP3 POP DUP3 DUP3 ADD SWAP1 POP DUP3 DUP2 SLT ISZERO PUSH0 DUP4 SLT AND DUP4 DUP3 SLT PUSH0 DUP5 SLT ISZERO AND OR ISZERO PUSH2 0x19D5 JUMPI PUSH2 0x19D4 PUSH2 0x185D JUMP JUMPDEST JUMPDEST SWAP3 SWAP2 POP POP JUMP JUMPDEST PUSH0 PUSH2 0x19E5 DUP3 PUSH2 0x1991 JUMP JUMPDEST SWAP2 POP PUSH2 0x19F0 DUP4 PUSH2 0x1991 JUMP JUMPDEST SWAP3 POP DUP3 DUP3 MUL PUSH2 0x19FE DUP2 PUSH2 0x1991 JUMP JUMPDEST SWAP2 POP PUSH32 0x8000000000000000000000000000000000000000000000000000000000000000 DUP5 EQ PUSH0 DUP5 SLT AND ISZERO PUSH2 0x1A35 JUMPI PUSH2 0x1A34 PUSH2 0x185D JUMP JUMPDEST JUMPDEST DUP3 DUP3 SDIV DUP5 EQ DUP4 ISZERO OR PUSH2 0x1A4A JUMPI PUSH2 0x1A49 PUSH2 0x185D JUMP JUMPDEST JUMPDEST POP SWAP3 SWAP2 POP POP JUMP JUMPDEST PUSH0 PUSH2 0x1A5B DUP3 PUSH2 0x1991 JUMP JUMPDEST SWAP2 POP PUSH2 0x1A66 DUP4 PUSH2 0x1991 JUMP JUMPDEST SWAP3 POP DUP3 PUSH2 0x1A76 JUMPI PUSH2 0x1A75 PUSH2 0x18D1 JUMP JUMPDEST JUMPDEST PUSH1 0x1 PUSH0 SUB DUP4 EQ PUSH32 0x8000000000000000000000000000000000000000000000000000000000000000 DUP4 EQ AND ISZERO PUSH2 0x1AAE JUMPI PUSH2 0x1AAD PUSH2 0x185D JUMP JUMPDEST JUMPDEST DUP3 DUP3 SDIV SWAP1 POP SWAP3 SWAP2 POP POP JUMP JUMPDEST PUSH0 PUSH2 0x1AC3 DUP3 PUSH2 0x1991 JUMP JUMPDEST SWAP2 POP PUSH2 0x1ACE DUP4 PUSH2 0x1991 JUMP JUMPDEST SWAP3 POP DUP3 DUP3 SUB SWAP1 POP DUP2 DUP2 SLT PUSH0 DUP5 SLT AND DUP3 DUP3 SGT PUSH0 DUP6 SLT ISZERO AND OR ISZERO PUSH2 0x1AF3 JUMPI PUSH2 0x1AF2 PUSH2 0x185D JUMP JUMPDEST JUMPDEST SWAP3 SWAP2 POP POP JUMP INVALID LOG2 PUSH5 0x6970667358 0x22 SLT KECCAK256 0xDB CALLCODE CALL SWAP11 RETURNDATACOPY BYTE CODESIZE 0xAF SWAP13 CALLER CODESIZE 0x25 PUSH8 0xE05C57A61AEABE8E SIGNEXTEND 0xDB DUP10 0xB2 PUSH16 0x8CA1BB3FCC0F64736F6C634300081700 CALLER "
				},
				"gasEstimates": {
					"creation": {
						"codeDepositCost": "1391800",
						"executionCost": "infinite",
						"totalCost": "infinite"
					},
					"external": {
						"admin()": "2618",
						"allowance(address,address)": "infinite",
						"approve(address,uint256)": "infinite",
						"balanceOf(address)": "2940",
						"burn(uint256)": "infinite",
						"decimals()": "361",
						"getLatestTransactionTimestamp()": "infinite",
						"getTransactionInfo(uint256)": "infinite",
						"getTransactionReceiver(uint256)": "5070",
						"getTransactionSender()": "401",
						"mint(address,uint256)": "infinite",
						"name()": "infinite",
						"symbol()": "infinite",
						"totalSupply()": "2500",
						"totalTransactions()": "2514",
						"transactions(uint256)": "infinite",
						"transfer(address,uint256)": "infinite",
						"transferFrom(address,address,uint256)": "infinite"
					},
					"internal": {
						"_addTransaction(address,address,uint256)": "infinite"
					}
				},
				"methodIdentifiers": {
					"admin()": "f851a440",
					"allowance(address,address)": "dd62ed3e",
					"approve(address,uint256)": "095ea7b3",
					"balanceOf(address)": "70a08231",
					"burn(uint256)": "42966c68",
					"decimals()": "313ce567",
					"getLatestTransactionTimestamp()": "d45e3f4a",
					"getTransactionInfo(uint256)": "d7aa8273",
					"getTransactionReceiver(uint256)": "52e61b25",
					"getTransactionSender()": "bead3f50",
					"mint(address,uint256)": "40c10f19",
					"name()": "06fdde03",
					"symbol()": "95d89b41",
					"totalSupply()": "18160ddd",
					"totalTransactions()": "b9a60038",
					"transactions(uint256)": "9ace38c2",
					"transfer(address,uint256)": "a9059cbb",
					"transferFrom(address,address,uint256)": "23b872dd"
				}
			},
			"storageLayout": {
				"storage": [
					{
						"astId": 393,
						"contract": "aitu_diana.sol:aitu_diana",
						"label": "_balances",
						"offset": 0,
						"slot": "0",
						"type": "t_mapping(t_address,t_uint256)"
					},
					{
						"astId": 399,
						"contract": "aitu_diana.sol:aitu_diana",
						"label": "_allowances",
						"offset": 0,
						"slot": "1",
						"type": "t_mapping(t_address,t_mapping(t_address,t_uint256))"
					},
					{
						"astId": 401,
						"contract": "aitu_diana.sol:aitu_diana",
						"label": "_totalSupply",
						"offset": 0,
						"slot": "2",
						"type": "t_uint256"
					},
					{
						"astId": 403,
						"contract": "aitu_diana.sol:aitu_diana",
						"label": "_name",
						"offset": 0,
						"slot": "3",
						"type": "t_string_storage"
					},
					{
						"astId": 405,
						"contract": "aitu_diana.sol:aitu_diana",
						"label": "_symbol",
						"offset": 0,
						"slot": "4",
						"type": "t_string_storage"
					},
					{
						"astId": 7,
						"contract": "aitu_diana.sol:aitu_diana",
						"label": "admin",
						"offset": 0,
						"slot": "5",
						"type": "t_address"
					},
					{
						"astId": 9,
						"contract": "aitu_diana.sol:aitu_diana",
						"label": "totalTransactions",
						"offset": 0,
						"slot": "6",
						"type": "t_uint256"
					},
					{
						"astId": 26,
						"contract": "aitu_diana.sol:aitu_diana",
						"label": "transactions",
						"offset": 0,
						"slot": "7",
						"type": "t_mapping(t_uint256,t_struct(TransactionInfo)21_storage)"
					}
				],
				"types": {
					"t_address": {
						"encoding": "inplace",
						"label": "address",
						"numberOfBytes": "20"
					},
					"t_mapping(t_address,t_mapping(t_address,t_uint256))": {
						"encoding": "mapping",
						"key": "t_address",
						"label": "mapping(address => mapping(address => uint256))",
						"numberOfBytes": "32",
						"value": "t_mapping(t_address,t_uint256)"
					},
					"t_mapping(t_address,t_uint256)": {
						"encoding": "mapping",
						"key": "t_address",
						"label": "mapping(address => uint256)",
						"numberOfBytes": "32",
						"value": "t_uint256"
					},
					"t_mapping(t_uint256,t_struct(TransactionInfo)21_storage)": {
						"encoding": "mapping",
						"key": "t_uint256",
						"label": "mapping(uint256 => struct aitu_diana.TransactionInfo)",
						"numberOfBytes": "32",
						"value": "t_struct(TransactionInfo)21_storage"
					},
					"t_string_storage": {
						"encoding": "bytes",
						"label": "string",
						"numberOfBytes": "32"
					},
					"t_struct(TransactionInfo)21_storage": {
						"encoding": "inplace",
						"label": "struct aitu_diana.TransactionInfo",
						"members": [
							{
								"astId": 14,
								"contract": "aitu_diana.sol:aitu_diana",
								"label": "sender",
								"offset": 0,
								"slot": "0",
								"type": "t_address"
							},
							{
								"astId": 16,
								"contract": "aitu_diana.sol:aitu_diana",
								"label": "recipient",
								"offset": 0,
								"slot": "1",
								"type": "t_address"
							},
							{
								"astId": 18,
								"contract": "aitu_diana.sol:aitu_diana",
								"label": "amount",
								"offset": 0,
								"slot": "2",
								"type": "t_uint256"
							},
							{
								"astId": 20,
								"contract": "aitu_diana.sol:aitu_diana",
								"label": "timestamp",
								"offset": 0,
								"slot": "3",
								"type": "t_uint256"
							}
						],
						"numberOfBytes": "128"
					},
					"t_uint256": {
						"encoding": "inplace",
						"label": "uint256",
						"numberOfBytes": "32"
					}
				}
			},
			"userdoc": {
				"kind": "user",
				"methods": {},
				"version": 1
			}
		}
	}
}